{
  "contracts/CoinFlip.sol": {
    "CoinFlip": {
      "abi": [
        {
          "inputs": [],
          "stateMutability": "nonpayable",
          "type": "constructor"
        },
        {
          "inputs": [
            {
              "internalType": "address",
              "name": "have",
              "type": "address"
            },
            {
              "internalType": "address",
              "name": "want",
              "type": "address"
            }
          ],
          "name": "OnlyCoordinatorCanFulfill",
          "type": "error"
        },
        {
          "stateMutability": "payable",
          "type": "fallback"
        },
        {
          "inputs": [],
          "name": "cancelSubscription",
          "outputs": [],
          "stateMutability": "nonpayable",
          "type": "function"
        },
        {
          "inputs": [],
          "name": "dexRouter",
          "outputs": [
            {
              "internalType": "contract IUniswapV2Router02",
              "name": "",
              "type": "address"
            }
          ],
          "stateMutability": "view",
          "type": "function"
        },
        {
          "inputs": [
            {
              "internalType": "bool",
              "name": "bet",
              "type": "bool"
            },
            {
              "internalType": "uint256",
              "name": "mode",
              "type": "uint256"
            }
          ],
          "name": "flipCoin",
          "outputs": [],
          "stateMutability": "payable",
          "type": "function"
        },
        {
          "inputs": [],
          "name": "fundAndRequestRandomWords",
          "outputs": [],
          "stateMutability": "nonpayable",
          "type": "function"
        },
        {
          "inputs": [],
          "name": "getLinkBalance",
          "outputs": [
            {
              "internalType": "uint256",
              "name": "balance",
              "type": "uint256"
            }
          ],
          "stateMutability": "view",
          "type": "function"
        },
        {
          "inputs": [],
          "name": "getSubscriptionDetails",
          "outputs": [
            {
              "internalType": "uint96",
              "name": "balance",
              "type": "uint96"
            },
            {
              "internalType": "uint64",
              "name": "reqCount",
              "type": "uint64"
            },
            {
              "internalType": "address",
              "name": "owner",
              "type": "address"
            },
            {
              "internalType": "address[]",
              "name": "consumers",
              "type": "address[]"
            }
          ],
          "stateMutability": "view",
          "type": "function"
        },
        {
          "inputs": [],
          "name": "pendingRequestExists",
          "outputs": [
            {
              "internalType": "bool",
              "name": "",
              "type": "bool"
            }
          ],
          "stateMutability": "view",
          "type": "function"
        },
        {
          "inputs": [
            {
              "internalType": "uint256",
              "name": "requestId",
              "type": "uint256"
            },
            {
              "internalType": "uint256[]",
              "name": "randomWords",
              "type": "uint256[]"
            }
          ],
          "name": "rawFulfillRandomWords",
          "outputs": [],
          "stateMutability": "nonpayable",
          "type": "function"
        },
        {
          "inputs": [],
          "name": "requestRandomWords",
          "outputs": [],
          "stateMutability": "nonpayable",
          "type": "function"
        },
        {
          "inputs": [],
          "name": "reserveBnbPercentageForHolders",
          "outputs": [
            {
              "internalType": "uint256",
              "name": "",
              "type": "uint256"
            }
          ],
          "stateMutability": "view",
          "type": "function"
        },
        {
          "inputs": [],
          "name": "reservedBnbForBuyLink",
          "outputs": [
            {
              "internalType": "uint256",
              "name": "",
              "type": "uint256"
            }
          ],
          "stateMutability": "view",
          "type": "function"
        },
        {
          "inputs": [],
          "name": "reservedBnbForBuyLinkPercentage",
          "outputs": [
            {
              "internalType": "uint256",
              "name": "",
              "type": "uint256"
            }
          ],
          "stateMutability": "view",
          "type": "function"
        },
        {
          "inputs": [],
          "name": "reservedBnbHolders",
          "outputs": [
            {
              "internalType": "uint256",
              "name": "",
              "type": "uint256"
            }
          ],
          "stateMutability": "view",
          "type": "function"
        },
        {
          "inputs": [],
          "name": "s_owner",
          "outputs": [
            {
              "internalType": "address",
              "name": "",
              "type": "address"
            }
          ],
          "stateMutability": "view",
          "type": "function"
        },
        {
          "inputs": [
            {
              "internalType": "uint256",
              "name": "",
              "type": "uint256"
            }
          ],
          "name": "s_randomWords",
          "outputs": [
            {
              "internalType": "uint256",
              "name": "",
              "type": "uint256"
            }
          ],
          "stateMutability": "view",
          "type": "function"
        },
        {
          "inputs": [],
          "name": "s_requestId",
          "outputs": [
            {
              "internalType": "uint256",
              "name": "",
              "type": "uint256"
            }
          ],
          "stateMutability": "view",
          "type": "function"
        },
        {
          "inputs": [],
          "name": "topUpSubscription",
          "outputs": [],
          "stateMutability": "nonpayable",
          "type": "function"
        },
        {
          "inputs": [
            {
              "internalType": "uint256",
              "name": "",
              "type": "uint256"
            }
          ],
          "name": "usersFlips",
          "outputs": [
            {
              "internalType": "address",
              "name": "user",
              "type": "address"
            },
            {
              "internalType": "uint256",
              "name": "timestamp",
              "type": "uint256"
            },
            {
              "internalType": "uint256",
              "name": "flipNumber",
              "type": "uint256"
            },
            {
              "internalType": "bool",
              "name": "win",
              "type": "bool"
            }
          ],
          "stateMutability": "view",
          "type": "function"
        },
        {
          "inputs": [],
          "name": "usersFlipsCounter",
          "outputs": [
            {
              "internalType": "uint256",
              "name": "",
              "type": "uint256"
            }
          ],
          "stateMutability": "view",
          "type": "function"
        },
        {
          "inputs": [],
          "name": "withdrawBnb",
          "outputs": [],
          "stateMutability": "nonpayable",
          "type": "function"
        },
        {
          "inputs": [],
          "name": "withdrawLink",
          "outputs": [],
          "stateMutability": "nonpayable",
          "type": "function"
        },
        {
          "inputs": [],
          "name": "wordsIndex",
          "outputs": [
            {
              "internalType": "uint256",
              "name": "",
              "type": "uint256"
            }
          ],
          "stateMutability": "view",
          "type": "function"
        },
        {
          "stateMutability": "payable",
          "type": "receive"
        }
      ],
      "evm": {
        "bytecode": {
          "linkReferences": {},
          "object": "60a0604052600280546001600160a01b0319908116736a2aad07396b36fe02a22b33cf443582f682c82f17909155600380549091167384b9b910527ad5c03a9ca831909e21e236ea7b061781557fd4bb89654db74673a187bd804519e65e3f71a52bc55f11da7601a13dcf5053146004556005805466020003000186a06001600160501b031990911617905560006009819055600c819055600d55600a600e55600f55348015620000af57600080fd5b506002546001600160a01b039081166080819052600080546001600160a01b0319908116909217905560035460018054831691909316179091556008805490911633179055620000fe6200012f565b6000600b55601080546001600160a01b031916739ac64cc6e4415144c455bd8e4837fea55603e5c317905562000289565b6008546001600160a01b031633146200014757600080fd5b60008054906101000a90046001600160a01b03166001600160a01b031663a21a23e46040518163ffffffff1660e01b81526004016020604051808303816000875af11580156200019b573d6000803e3d6000fd5b505050506040513d601f19601f82011682018060405250810190620001c1919062000257565b60018054600160a01b600160e01b031916600160a01b6001600160401b0393841681029190911791829055600054604051631cd0704360e21b81529190920490921660048301523060248301526001600160a01b031690637341c10c90604401600060405180830381600087803b1580156200023c57600080fd5b505af115801562000251573d6000803e3d6000fd5b50505050565b6000602082840312156200026a57600080fd5b81516001600160401b03811681146200028257600080fd5b9392505050565b608051611693620002ac60003960008181610721015261076301526116936000f3fe6080604052600436106101065760003560e01c80630758d9241461010f5780630c997597146101455780630d5de6df146101585780631da0603a1461017d5780631fe543e31461019257806321e71717146101b257806324e9edb0146101d657806350c5f975146101eb57806352253d581461020057806358ecb16b146102165780636c8ceed51461022b5780637aa51754146102415780638dc654a2146102565780639233ab781461026b578063a0f0a1e314610281578063a3ced7b9146102fc578063d627f36314610321578063e0c8628914610337578063e39782401461034c578063e89e106a1461036c578063f6eaffc814610382578063fb496fdb146103a257005b3661010d57005b005b34801561011b57600080fd5b5060105461012f906001600160a01b031681565b60405161013c91906110a3565b60405180910390f35b61010d6101533660046110c5565b6103b8565b34801561016457600080fd5b5061016d6105fe565b60405161013c9493929190611135565b34801561018957600080fd5b5061010d61069c565b34801561019e57600080fd5b5061010d6101ad3660046111ea565b610716565b3480156101be57600080fd5b506101c8600b5481565b60405190815260200161013c565b3480156101e257600080fd5b5061010d61079e565b3480156101f757600080fd5b506101c8610845565b34801561020c57600080fd5b506101c8600f5481565b34801561022257600080fd5b5061010d6108bc565b34801561023757600080fd5b506101c8600d5481565b34801561024d57600080fd5b5061010d610999565b34801561026257600080fd5b5061010d6109ba565b34801561027757600080fd5b506101c8600e5481565b34801561028d57600080fd5b506102d061029c36600461128b565b600a6020526000908152604090208054600182015460028301546003909301546001600160a01b0390921692909160ff1684565b604080516001600160a01b0390951685526020850193909352918301521515606082015260800161013c565b34801561030857600080fd5b50610311610abe565b604051901515815260200161013c565b34801561032d57600080fd5b506101c860095481565b34801561034357600080fd5b5061010d610b85565b34801561035857600080fd5b5060085461012f906001600160a01b031681565b34801561037857600080fd5b506101c860075481565b34801561038e57600080fd5b506101c861039d36600461128b565b610b9c565b3480156103ae57600080fd5b506101c8600c5481565b60006103c382610bbd565b9050803410156104075760405162461bcd60e51b815260206004820152600a602482015269131bddc8185b5bdd5b9d60b21b60448201526064015b60405180910390fd5b600060066009548154811061041e5761041e6112a4565b90600052602060002001549050600084156104465761043e6002836112d0565b159050610456565b6104516002836112d0565b151590505b6040805160808101825233815242602080830191825282840186815285151560608501908152600b546000908152600a909352948220845181546001600160a01b0319166001600160a01b039091161781559251600184015551600283015592516003909101805460ff19169115159190911790556009805491926104da836112fa565b9091555050600b80549060006104ef836112fa565b919050555060095460020361050b57600060095561050b6108db565b60006064600e543461051d9190611313565b6105279190611332565b905060006064600f543461053b9190611313565b6105459190611332565b905081600c60008282546105599190611346565b9250508190555080600d60008282546105729190611346565b90915550506703782dace9d90000600c541061059857610590610c85565b610598610e3b565b83156105f457600081836105ad346002611313565b6105b7919061135e565b6105c1919061135e565b604051909150339082156108fc029083906000818181858888f193505050501580156105f1573d6000803e3d6000fd5b50505b5050505050505050565b6000805460015460405163523e3b4b60e11b8152839283926060926001600160a01b039092169163a47c76969161064991600160a01b9091046001600160401b031690600401611375565b600060405180830381865afa158015610666573d6000803e3d6000fd5b505050506040513d6000823e601f3d908101601f1916820160405261068e91908101906113a5565b935093509350935090919293565b6008546001600160a01b031633146106b357600080fd5b6008546040516000916001600160a01b03169047908381818185875af1925050503d8060008114610700576040519150601f19603f3d011682016040523d82523d6000602084013e610705565b606091505b505090508061071357600080fd5b50565b336001600160a01b037f000000000000000000000000000000000000000000000000000000000000000016146107905760405163073e64fd60e21b81523360048201526001600160a01b037f00000000000000000000000000000000000000000000000000000000000000001660248201526044016103fe565b61079a8282610fa3565b5050565b6008546001600160a01b031633146107b557600080fd5b600054600154600854604051630d7ae1d360e41b8152600160a01b9092046001600160401b031660048301526001600160a01b0390811660248301529091169063d7ae1d3090604401600060405180830381600087803b15801561081857600080fd5b505af115801561082c573d6000803e3d6000fd5b505060018054600160a01b600160e01b03191690555050565b6001546040516370a0823160e01b81526000916001600160a01b0316906370a08231906108769030906004016110a3565b602060405180830381865afa158015610893573d6000803e3d6000fd5b505050506040513d601f19601f820116820180604052508101906108b7919061148a565b905090565b6008546001600160a01b031633146108d357600080fd5b6108db610e3b565b600054600480546001546005546040516305d3b1d360e41b815293840192909252600160a01b90046001600160401b03166024830152600160201b810461ffff16604483015263ffffffff8082166064840152600160301b9091041660848201526001600160a01b0390911690635d3b1d309060a4016020604051808303816000875af1158015610970573d6000803e3d6000fd5b505050506040513d601f19601f82011682018060405250810190610994919061148a565b600755565b6008546001600160a01b031633146109b057600080fd5b6109b8610e3b565b565b6008546001600160a01b031633146109d157600080fd5b6001546008546040516370a0823160e01b81526001600160a01b039283169263a9059cbb92169083906370a0823190610a0e9030906004016110a3565b602060405180830381865afa158015610a2b573d6000803e3d6000fd5b505050506040513d601f19601f82011682018060405250810190610a4f919061148a565b6040516001600160e01b031960e085901b1681526001600160a01b03909216600483015260248201526044016020604051808303816000875af1158015610a9a573d6000803e3d6000fd5b505050506040513d601f19601f8201168201806040525081019061071391906114a3565b6000805460015460405183926001600160a01b031691610af291600160a01b9091046001600160401b031690602401611375565b60408051601f198184030181529181526020820180516001600160e01b0316633a0ab5f560e21b17905251610b2791906114f7565b600060405180830381855afa9150503d8060008114610b62576040519150601f19603f3d011682016040523d82523d6000602084013e610b67565b606091505b5091505080806020019051810190610b7f91906114a3565b91505090565b6008546001600160a01b031633146108db57600080fd5b60068181548110610bac57600080fd5b600091825260209091200154905081565b600080828103610bd5575066b1a2bc2ec50000610c7f565b82600103610bec575067016345785d8a0000610c7f565b82600203610c0357506703782dace9d90000610c7f565b82600303610c1a57506706f05b59d3b20000610c7f565b82600403610c315750670de0b6b3a7640000610c7f565b82600503610c485750671bc16d674ec80000610c7f565b60405162461bcd60e51b815260206004820152600c60248201526b696e76616c6964206d6f646560a01b60448201526064016103fe565b92915050565b6000610d12601060009054906101000a90046001600160a01b03166001600160a01b031663ad5c46486040518163ffffffff1660e01b8152600401602060405180830381865afa158015610cdd573d6000803e3d6000fd5b505050506040513d601f19601f82011682018060405250810190610d019190611513565b6003546001600160a01b0316610fb6565b60105460405163d06ca61f60e01b81529192506000916001600160a01b039091169063d06ca61f90610d4a903490869060040161152e565b600060405180830381865afa158015610d67573d6000803e3d6000fd5b505050506040513d6000823e601f3d908101601f19168201604052610d8f919081019061154f565b600181518110610da157610da16112a4565b60209081029190910101516010549091506001600160a01b0316637ff36ab534838530610dd0426103e8611346565b6040518663ffffffff1660e01b8152600401610def94939291906115df565b60006040518083038185885af1158015610e0d573d6000803e3d6000fd5b50505050506040513d6000823e601f3d908101601f19168201604052610e36919081019061154f565b505050565b6001546040516370a0823160e01b81526000916001600160a01b0316906370a0823190610e6c9030906004016110a3565b602060405180830381865afa158015610e89573d6000803e3d6000fd5b505050506040513d601f19601f82011682018060405250810190610ead919061148a565b905060008111610ef35760405162461bcd60e51b81526020600482015260116024820152705a65726f206c696e6b2062616c616e636560781b60448201526064016103fe565b6001546000546040516001600160a01b0380841693634000aea09391909116918591610f3391600160a01b9091046001600160401b031690602001611375565b6040516020818303038152906040526040518463ffffffff1660e01b8152600401610f6093929190611614565b6020604051808303816000875af1158015610f7f573d6000803e3d6000fd5b505050506040513d601f19601f8201168201806040525081019061079a91906114a3565b8051610e36906006906020840190611043565b604080516002808252606080830184529260009291906020830190803683370190505090508381600081518110610fef57610fef6112a4565b60200260200101906001600160a01b031690816001600160a01b0316815250508281600181518110611023576110236112a4565b6001600160a01b0390921660209283029190910190910152905092915050565b82805482825590600052602060002090810192821561107e579160200282015b8281111561107e578251825591602001919060010190611063565b5061108a92915061108e565b5090565b5b8082111561108a576000815560010161108f565b6001600160a01b0391909116815260200190565b801515811461071357600080fd5b600080604083850312156110d857600080fd5b82356110e3816110b7565b946020939093013593505050565b600081518084526020808501945080840160005b8381101561112a5781516001600160a01b031687529582019590820190600101611105565b509495945050505050565b6001600160601b03851681526001600160401b03841660208201526001600160a01b0383166040820152608060608201819052600090611177908301846110f1565b9695505050505050565b634e487b7160e01b600052604160045260246000fd5b604051601f8201601f191681016001600160401b03811182821017156111bf576111bf611181565b604052919050565b60006001600160401b038211156111e0576111e0611181565b5060051b60200190565b600080604083850312156111fd57600080fd5b823591506020808401356001600160401b0381111561121b57600080fd5b8401601f8101861361122c57600080fd5b803561123f61123a826111c7565b611197565b81815260059190911b8201830190838101908883111561125e57600080fd5b928401925b8284101561127c57833582529284019290840190611263565b80955050505050509250929050565b60006020828403121561129d57600080fd5b5035919050565b634e487b7160e01b600052603260045260246000fd5b634e487b7160e01b600052601260045260246000fd5b6000826112df576112df6112ba565b500690565b634e487b7160e01b600052601160045260246000fd5b60006001820161130c5761130c6112e4565b5060010190565b600081600019048311821515161561132d5761132d6112e4565b500290565b600082611341576113416112ba565b500490565b60008219821115611359576113596112e4565b500190565b600082821015611370576113706112e4565b500390565b6001600160401b0391909116815260200190565b80516001600160a01b03811681146113a057600080fd5b919050565b600080600080608085870312156113bb57600080fd5b84516001600160601b03811681146113d257600080fd5b602086810151919550906001600160401b0380821682146113f257600080fd5b81955061140160408901611389565b9450606088015191508082111561141757600080fd5b508601601f8101881361142957600080fd5b805161143761123a826111c7565b81815260059190911b8201830190838101908a83111561145657600080fd5b928401925b8284101561147b5761146c84611389565b8252928401929084019061145b565b979a9699509497505050505050565b60006020828403121561149c57600080fd5b5051919050565b6000602082840312156114b557600080fd5b81516114c0816110b7565b9392505050565b60005b838110156114e25781810151838201526020016114ca565b838111156114f1576000848401525b50505050565b600082516115098184602087016114c7565b9190910192915050565b60006020828403121561152557600080fd5b6114c082611389565b82815260406020820152600061154760408301846110f1565b949350505050565b6000602080838503121561156257600080fd5b82516001600160401b0381111561157857600080fd5b8301601f8101851361158957600080fd5b805161159761123a826111c7565b81815260059190911b820183019083810190878311156115b657600080fd5b928401925b828410156115d4578351825292840192908401906115bb565b979650505050505050565b8481526080602082015260006115f860808301866110f1565b6001600160a01b03949094166040830152506060015292915050565b60018060a01b038416815282602082015260606040820152600082518060608401526116478160808501602087016114c7565b601f01601f19169190910160800194935050505056fea26469706673582212200be695971e3a114604ede06fa62ed0965dc4dc0da2e1cf5f648dd18480116fe364736f6c634300080f0033",
          "opcodes": "PUSH1 0xA0 PUSH1 0x40 MSTORE PUSH1 0x2 DUP1 SLOAD PUSH1 0x1 PUSH1 0x1 PUSH1 0xA0 SHL SUB NOT SWAP1 DUP2 AND PUSH20 0x6A2AAD07396B36FE02A22B33CF443582F682C82F OR SWAP1 SWAP2 SSTORE PUSH1 0x3 DUP1 SLOAD SWAP1 SWAP2 AND PUSH20 0x84B9B910527AD5C03A9CA831909E21E236EA7B06 OR DUP2 SSTORE PUSH32 0xD4BB89654DB74673A187BD804519E65E3F71A52BC55F11DA7601A13DCF505314 PUSH1 0x4 SSTORE PUSH1 0x5 DUP1 SLOAD PUSH7 0x20003000186A0 PUSH1 0x1 PUSH1 0x1 PUSH1 0x50 SHL SUB NOT SWAP1 SWAP2 AND OR SWAP1 SSTORE PUSH1 0x0 PUSH1 0x9 DUP2 SWAP1 SSTORE PUSH1 0xC DUP2 SWAP1 SSTORE PUSH1 0xD SSTORE PUSH1 0xA PUSH1 0xE SSTORE PUSH1 0xF SSTORE CALLVALUE DUP1 ISZERO PUSH3 0xAF JUMPI PUSH1 0x0 DUP1 REVERT JUMPDEST POP PUSH1 0x2 SLOAD PUSH1 0x1 PUSH1 0x1 PUSH1 0xA0 SHL SUB SWAP1 DUP2 AND PUSH1 0x80 DUP2 SWAP1 MSTORE PUSH1 0x0 DUP1 SLOAD PUSH1 0x1 PUSH1 0x1 PUSH1 0xA0 SHL SUB NOT SWAP1 DUP2 AND SWAP1 SWAP3 OR SWAP1 SSTORE PUSH1 0x3 SLOAD PUSH1 0x1 DUP1 SLOAD DUP4 AND SWAP2 SWAP1 SWAP4 AND OR SWAP1 SWAP2 SSTORE PUSH1 0x8 DUP1 SLOAD SWAP1 SWAP2 AND CALLER OR SWAP1 SSTORE PUSH3 0xFE PUSH3 0x12F JUMP JUMPDEST PUSH1 0x0 PUSH1 0xB SSTORE PUSH1 0x10 DUP1 SLOAD PUSH1 0x1 PUSH1 0x1 PUSH1 0xA0 SHL SUB NOT AND PUSH20 0x9AC64CC6E4415144C455BD8E4837FEA55603E5C3 OR SWAP1 SSTORE PUSH3 0x289 JUMP JUMPDEST PUSH1 0x8 SLOAD PUSH1 0x1 PUSH1 0x1 PUSH1 0xA0 SHL SUB AND CALLER EQ PUSH3 0x147 JUMPI PUSH1 0x0 DUP1 REVERT JUMPDEST PUSH1 0x0 DUP1 SLOAD SWAP1 PUSH2 0x100 EXP SWAP1 DIV PUSH1 0x1 PUSH1 0x1 PUSH1 0xA0 SHL SUB AND PUSH1 0x1 PUSH1 0x1 PUSH1 0xA0 SHL SUB AND PUSH4 0xA21A23E4 PUSH1 0x40 MLOAD DUP2 PUSH4 0xFFFFFFFF AND PUSH1 0xE0 SHL DUP2 MSTORE PUSH1 0x4 ADD PUSH1 0x20 PUSH1 0x40 MLOAD DUP1 DUP4 SUB DUP2 PUSH1 0x0 DUP8 GAS CALL ISZERO DUP1 ISZERO PUSH3 0x19B JUMPI RETURNDATASIZE PUSH1 0x0 DUP1 RETURNDATACOPY RETURNDATASIZE PUSH1 0x0 REVERT JUMPDEST POP POP POP POP PUSH1 0x40 MLOAD RETURNDATASIZE PUSH1 0x1F NOT PUSH1 0x1F DUP3 ADD AND DUP3 ADD DUP1 PUSH1 0x40 MSTORE POP DUP2 ADD SWAP1 PUSH3 0x1C1 SWAP2 SWAP1 PUSH3 0x257 JUMP JUMPDEST PUSH1 0x1 DUP1 SLOAD PUSH1 0x1 PUSH1 0xA0 SHL PUSH1 0x1 PUSH1 0xE0 SHL SUB NOT AND PUSH1 0x1 PUSH1 0xA0 SHL PUSH1 0x1 PUSH1 0x1 PUSH1 0x40 SHL SUB SWAP4 DUP5 AND DUP2 MUL SWAP2 SWAP1 SWAP2 OR SWAP2 DUP3 SWAP1 SSTORE PUSH1 0x0 SLOAD PUSH1 0x40 MLOAD PUSH4 0x1CD07043 PUSH1 0xE2 SHL DUP2 MSTORE SWAP2 SWAP1 SWAP3 DIV SWAP1 SWAP3 AND PUSH1 0x4 DUP4 ADD MSTORE ADDRESS PUSH1 0x24 DUP4 ADD MSTORE PUSH1 0x1 PUSH1 0x1 PUSH1 0xA0 SHL SUB AND SWAP1 PUSH4 0x7341C10C SWAP1 PUSH1 0x44 ADD PUSH1 0x0 PUSH1 0x40 MLOAD DUP1 DUP4 SUB DUP2 PUSH1 0x0 DUP8 DUP1 EXTCODESIZE ISZERO DUP1 ISZERO PUSH3 0x23C JUMPI PUSH1 0x0 DUP1 REVERT JUMPDEST POP GAS CALL ISZERO DUP1 ISZERO PUSH3 0x251 JUMPI RETURNDATASIZE PUSH1 0x0 DUP1 RETURNDATACOPY RETURNDATASIZE PUSH1 0x0 REVERT JUMPDEST POP POP POP POP JUMP JUMPDEST PUSH1 0x0 PUSH1 0x20 DUP3 DUP5 SUB SLT ISZERO PUSH3 0x26A JUMPI PUSH1 0x0 DUP1 REVERT JUMPDEST DUP2 MLOAD PUSH1 0x1 PUSH1 0x1 PUSH1 0x40 SHL SUB DUP2 AND DUP2 EQ PUSH3 0x282 JUMPI PUSH1 0x0 DUP1 REVERT JUMPDEST SWAP4 SWAP3 POP POP POP JUMP JUMPDEST PUSH1 0x80 MLOAD PUSH2 0x1693 PUSH3 0x2AC PUSH1 0x0 CODECOPY PUSH1 0x0 DUP2 DUP2 PUSH2 0x721 ADD MSTORE PUSH2 0x763 ADD MSTORE PUSH2 0x1693 PUSH1 0x0 RETURN INVALID PUSH1 0x80 PUSH1 0x40 MSTORE PUSH1 0x4 CALLDATASIZE LT PUSH2 0x106 JUMPI PUSH1 0x0 CALLDATALOAD PUSH1 0xE0 SHR DUP1 PUSH4 0x758D924 EQ PUSH2 0x10F JUMPI DUP1 PUSH4 0xC997597 EQ PUSH2 0x145 JUMPI DUP1 PUSH4 0xD5DE6DF EQ PUSH2 0x158 JUMPI DUP1 PUSH4 0x1DA0603A EQ PUSH2 0x17D JUMPI DUP1 PUSH4 0x1FE543E3 EQ PUSH2 0x192 JUMPI DUP1 PUSH4 0x21E71717 EQ PUSH2 0x1B2 JUMPI DUP1 PUSH4 0x24E9EDB0 EQ PUSH2 0x1D6 JUMPI DUP1 PUSH4 0x50C5F975 EQ PUSH2 0x1EB JUMPI DUP1 PUSH4 0x52253D58 EQ PUSH2 0x200 JUMPI DUP1 PUSH4 0x58ECB16B EQ PUSH2 0x216 JUMPI DUP1 PUSH4 0x6C8CEED5 EQ PUSH2 0x22B JUMPI DUP1 PUSH4 0x7AA51754 EQ PUSH2 0x241 JUMPI DUP1 PUSH4 0x8DC654A2 EQ PUSH2 0x256 JUMPI DUP1 PUSH4 0x9233AB78 EQ PUSH2 0x26B JUMPI DUP1 PUSH4 0xA0F0A1E3 EQ PUSH2 0x281 JUMPI DUP1 PUSH4 0xA3CED7B9 EQ PUSH2 0x2FC JUMPI DUP1 PUSH4 0xD627F363 EQ PUSH2 0x321 JUMPI DUP1 PUSH4 0xE0C86289 EQ PUSH2 0x337 JUMPI DUP1 PUSH4 0xE3978240 EQ PUSH2 0x34C JUMPI DUP1 PUSH4 0xE89E106A EQ PUSH2 0x36C JUMPI DUP1 PUSH4 0xF6EAFFC8 EQ PUSH2 0x382 JUMPI DUP1 PUSH4 0xFB496FDB EQ PUSH2 0x3A2 JUMPI STOP JUMPDEST CALLDATASIZE PUSH2 0x10D JUMPI STOP JUMPDEST STOP JUMPDEST CALLVALUE DUP1 ISZERO PUSH2 0x11B JUMPI PUSH1 0x0 DUP1 REVERT JUMPDEST POP PUSH1 0x10 SLOAD PUSH2 0x12F SWAP1 PUSH1 0x1 PUSH1 0x1 PUSH1 0xA0 SHL SUB AND DUP2 JUMP JUMPDEST PUSH1 0x40 MLOAD PUSH2 0x13C SWAP2 SWAP1 PUSH2 0x10A3 JUMP JUMPDEST PUSH1 0x40 MLOAD DUP1 SWAP2 SUB SWAP1 RETURN JUMPDEST PUSH2 0x10D PUSH2 0x153 CALLDATASIZE PUSH1 0x4 PUSH2 0x10C5 JUMP JUMPDEST PUSH2 0x3B8 JUMP JUMPDEST CALLVALUE DUP1 ISZERO PUSH2 0x164 JUMPI PUSH1 0x0 DUP1 REVERT JUMPDEST POP PUSH2 0x16D PUSH2 0x5FE JUMP JUMPDEST PUSH1 0x40 MLOAD PUSH2 0x13C SWAP5 SWAP4 SWAP3 SWAP2 SWAP1 PUSH2 0x1135 JUMP JUMPDEST CALLVALUE DUP1 ISZERO PUSH2 0x189 JUMPI PUSH1 0x0 DUP1 REVERT JUMPDEST POP PUSH2 0x10D PUSH2 0x69C JUMP JUMPDEST CALLVALUE DUP1 ISZERO PUSH2 0x19E JUMPI PUSH1 0x0 DUP1 REVERT JUMPDEST POP PUSH2 0x10D PUSH2 0x1AD CALLDATASIZE PUSH1 0x4 PUSH2 0x11EA JUMP JUMPDEST PUSH2 0x716 JUMP JUMPDEST CALLVALUE DUP1 ISZERO PUSH2 0x1BE JUMPI PUSH1 0x0 DUP1 REVERT JUMPDEST POP PUSH2 0x1C8 PUSH1 0xB SLOAD DUP2 JUMP JUMPDEST PUSH1 0x40 MLOAD SWAP1 DUP2 MSTORE PUSH1 0x20 ADD PUSH2 0x13C JUMP JUMPDEST CALLVALUE DUP1 ISZERO PUSH2 0x1E2 JUMPI PUSH1 0x0 DUP1 REVERT JUMPDEST POP PUSH2 0x10D PUSH2 0x79E JUMP JUMPDEST CALLVALUE DUP1 ISZERO PUSH2 0x1F7 JUMPI PUSH1 0x0 DUP1 REVERT JUMPDEST POP PUSH2 0x1C8 PUSH2 0x845 JUMP JUMPDEST CALLVALUE DUP1 ISZERO PUSH2 0x20C JUMPI PUSH1 0x0 DUP1 REVERT JUMPDEST POP PUSH2 0x1C8 PUSH1 0xF SLOAD DUP2 JUMP JUMPDEST CALLVALUE DUP1 ISZERO PUSH2 0x222 JUMPI PUSH1 0x0 DUP1 REVERT JUMPDEST POP PUSH2 0x10D PUSH2 0x8BC JUMP JUMPDEST CALLVALUE DUP1 ISZERO PUSH2 0x237 JUMPI PUSH1 0x0 DUP1 REVERT JUMPDEST POP PUSH2 0x1C8 PUSH1 0xD SLOAD DUP2 JUMP JUMPDEST CALLVALUE DUP1 ISZERO PUSH2 0x24D JUMPI PUSH1 0x0 DUP1 REVERT JUMPDEST POP PUSH2 0x10D PUSH2 0x999 JUMP JUMPDEST CALLVALUE DUP1 ISZERO PUSH2 0x262 JUMPI PUSH1 0x0 DUP1 REVERT JUMPDEST POP PUSH2 0x10D PUSH2 0x9BA JUMP JUMPDEST CALLVALUE DUP1 ISZERO PUSH2 0x277 JUMPI PUSH1 0x0 DUP1 REVERT JUMPDEST POP PUSH2 0x1C8 PUSH1 0xE SLOAD DUP2 JUMP JUMPDEST CALLVALUE DUP1 ISZERO PUSH2 0x28D JUMPI PUSH1 0x0 DUP1 REVERT JUMPDEST POP PUSH2 0x2D0 PUSH2 0x29C CALLDATASIZE PUSH1 0x4 PUSH2 0x128B JUMP JUMPDEST PUSH1 0xA PUSH1 0x20 MSTORE PUSH1 0x0 SWAP1 DUP2 MSTORE PUSH1 0x40 SWAP1 KECCAK256 DUP1 SLOAD PUSH1 0x1 DUP3 ADD SLOAD PUSH1 0x2 DUP4 ADD SLOAD PUSH1 0x3 SWAP1 SWAP4 ADD SLOAD PUSH1 0x1 PUSH1 0x1 PUSH1 0xA0 SHL SUB SWAP1 SWAP3 AND SWAP3 SWAP1 SWAP2 PUSH1 0xFF AND DUP5 JUMP JUMPDEST PUSH1 0x40 DUP1 MLOAD PUSH1 0x1 PUSH1 0x1 PUSH1 0xA0 SHL SUB SWAP1 SWAP6 AND DUP6 MSTORE PUSH1 0x20 DUP6 ADD SWAP4 SWAP1 SWAP4 MSTORE SWAP2 DUP4 ADD MSTORE ISZERO ISZERO PUSH1 0x60 DUP3 ADD MSTORE PUSH1 0x80 ADD PUSH2 0x13C JUMP JUMPDEST CALLVALUE DUP1 ISZERO PUSH2 0x308 JUMPI PUSH1 0x0 DUP1 REVERT JUMPDEST POP PUSH2 0x311 PUSH2 0xABE JUMP JUMPDEST PUSH1 0x40 MLOAD SWAP1 ISZERO ISZERO DUP2 MSTORE PUSH1 0x20 ADD PUSH2 0x13C JUMP JUMPDEST CALLVALUE DUP1 ISZERO PUSH2 0x32D JUMPI PUSH1 0x0 DUP1 REVERT JUMPDEST POP PUSH2 0x1C8 PUSH1 0x9 SLOAD DUP2 JUMP JUMPDEST CALLVALUE DUP1 ISZERO PUSH2 0x343 JUMPI PUSH1 0x0 DUP1 REVERT JUMPDEST POP PUSH2 0x10D PUSH2 0xB85 JUMP JUMPDEST CALLVALUE DUP1 ISZERO PUSH2 0x358 JUMPI PUSH1 0x0 DUP1 REVERT JUMPDEST POP PUSH1 0x8 SLOAD PUSH2 0x12F SWAP1 PUSH1 0x1 PUSH1 0x1 PUSH1 0xA0 SHL SUB AND DUP2 JUMP JUMPDEST CALLVALUE DUP1 ISZERO PUSH2 0x378 JUMPI PUSH1 0x0 DUP1 REVERT JUMPDEST POP PUSH2 0x1C8 PUSH1 0x7 SLOAD DUP2 JUMP JUMPDEST CALLVALUE DUP1 ISZERO PUSH2 0x38E JUMPI PUSH1 0x0 DUP1 REVERT JUMPDEST POP PUSH2 0x1C8 PUSH2 0x39D CALLDATASIZE PUSH1 0x4 PUSH2 0x128B JUMP JUMPDEST PUSH2 0xB9C JUMP JUMPDEST CALLVALUE DUP1 ISZERO PUSH2 0x3AE JUMPI PUSH1 0x0 DUP1 REVERT JUMPDEST POP PUSH2 0x1C8 PUSH1 0xC SLOAD DUP2 JUMP JUMPDEST PUSH1 0x0 PUSH2 0x3C3 DUP3 PUSH2 0xBBD JUMP JUMPDEST SWAP1 POP DUP1 CALLVALUE LT ISZERO PUSH2 0x407 JUMPI PUSH1 0x40 MLOAD PUSH3 0x461BCD PUSH1 0xE5 SHL DUP2 MSTORE PUSH1 0x20 PUSH1 0x4 DUP3 ADD MSTORE PUSH1 0xA PUSH1 0x24 DUP3 ADD MSTORE PUSH10 0x131BDDC8185B5BDD5B9D PUSH1 0xB2 SHL PUSH1 0x44 DUP3 ADD MSTORE PUSH1 0x64 ADD JUMPDEST PUSH1 0x40 MLOAD DUP1 SWAP2 SUB SWAP1 REVERT JUMPDEST PUSH1 0x0 PUSH1 0x6 PUSH1 0x9 SLOAD DUP2 SLOAD DUP2 LT PUSH2 0x41E JUMPI PUSH2 0x41E PUSH2 0x12A4 JUMP JUMPDEST SWAP1 PUSH1 0x0 MSTORE PUSH1 0x20 PUSH1 0x0 KECCAK256 ADD SLOAD SWAP1 POP PUSH1 0x0 DUP5 ISZERO PUSH2 0x446 JUMPI PUSH2 0x43E PUSH1 0x2 DUP4 PUSH2 0x12D0 JUMP JUMPDEST ISZERO SWAP1 POP PUSH2 0x456 JUMP JUMPDEST PUSH2 0x451 PUSH1 0x2 DUP4 PUSH2 0x12D0 JUMP JUMPDEST ISZERO ISZERO SWAP1 POP JUMPDEST PUSH1 0x40 DUP1 MLOAD PUSH1 0x80 DUP2 ADD DUP3 MSTORE CALLER DUP2 MSTORE TIMESTAMP PUSH1 0x20 DUP1 DUP4 ADD SWAP2 DUP3 MSTORE DUP3 DUP5 ADD DUP7 DUP2 MSTORE DUP6 ISZERO ISZERO PUSH1 0x60 DUP6 ADD SWAP1 DUP2 MSTORE PUSH1 0xB SLOAD PUSH1 0x0 SWAP1 DUP2 MSTORE PUSH1 0xA SWAP1 SWAP4 MSTORE SWAP5 DUP3 KECCAK256 DUP5 MLOAD DUP2 SLOAD PUSH1 0x1 PUSH1 0x1 PUSH1 0xA0 SHL SUB NOT AND PUSH1 0x1 PUSH1 0x1 PUSH1 0xA0 SHL SUB SWAP1 SWAP2 AND OR DUP2 SSTORE SWAP3 MLOAD PUSH1 0x1 DUP5 ADD SSTORE MLOAD PUSH1 0x2 DUP4 ADD SSTORE SWAP3 MLOAD PUSH1 0x3 SWAP1 SWAP2 ADD DUP1 SLOAD PUSH1 0xFF NOT AND SWAP2 ISZERO ISZERO SWAP2 SWAP1 SWAP2 OR SWAP1 SSTORE PUSH1 0x9 DUP1 SLOAD SWAP2 SWAP3 PUSH2 0x4DA DUP4 PUSH2 0x12FA JUMP JUMPDEST SWAP1 SWAP2 SSTORE POP POP PUSH1 0xB DUP1 SLOAD SWAP1 PUSH1 0x0 PUSH2 0x4EF DUP4 PUSH2 0x12FA JUMP JUMPDEST SWAP2 SWAP1 POP SSTORE POP PUSH1 0x9 SLOAD PUSH1 0x2 SUB PUSH2 0x50B JUMPI PUSH1 0x0 PUSH1 0x9 SSTORE PUSH2 0x50B PUSH2 0x8DB JUMP JUMPDEST PUSH1 0x0 PUSH1 0x64 PUSH1 0xE SLOAD CALLVALUE PUSH2 0x51D SWAP2 SWAP1 PUSH2 0x1313 JUMP JUMPDEST PUSH2 0x527 SWAP2 SWAP1 PUSH2 0x1332 JUMP JUMPDEST SWAP1 POP PUSH1 0x0 PUSH1 0x64 PUSH1 0xF SLOAD CALLVALUE PUSH2 0x53B SWAP2 SWAP1 PUSH2 0x1313 JUMP JUMPDEST PUSH2 0x545 SWAP2 SWAP1 PUSH2 0x1332 JUMP JUMPDEST SWAP1 POP DUP2 PUSH1 0xC PUSH1 0x0 DUP3 DUP3 SLOAD PUSH2 0x559 SWAP2 SWAP1 PUSH2 0x1346 JUMP JUMPDEST SWAP3 POP POP DUP2 SWAP1 SSTORE POP DUP1 PUSH1 0xD PUSH1 0x0 DUP3 DUP3 SLOAD PUSH2 0x572 SWAP2 SWAP1 PUSH2 0x1346 JUMP JUMPDEST SWAP1 SWAP2 SSTORE POP POP PUSH8 0x3782DACE9D90000 PUSH1 0xC SLOAD LT PUSH2 0x598 JUMPI PUSH2 0x590 PUSH2 0xC85 JUMP JUMPDEST PUSH2 0x598 PUSH2 0xE3B JUMP JUMPDEST DUP4 ISZERO PUSH2 0x5F4 JUMPI PUSH1 0x0 DUP2 DUP4 PUSH2 0x5AD CALLVALUE PUSH1 0x2 PUSH2 0x1313 JUMP JUMPDEST PUSH2 0x5B7 SWAP2 SWAP1 PUSH2 0x135E JUMP JUMPDEST PUSH2 0x5C1 SWAP2 SWAP1 PUSH2 0x135E JUMP JUMPDEST PUSH1 0x40 MLOAD SWAP1 SWAP2 POP CALLER SWAP1 DUP3 ISZERO PUSH2 0x8FC MUL SWAP1 DUP4 SWAP1 PUSH1 0x0 DUP2 DUP2 DUP2 DUP6 DUP9 DUP9 CALL SWAP4 POP POP POP POP ISZERO DUP1 ISZERO PUSH2 0x5F1 JUMPI RETURNDATASIZE PUSH1 0x0 DUP1 RETURNDATACOPY RETURNDATASIZE PUSH1 0x0 REVERT JUMPDEST POP POP JUMPDEST POP POP POP POP POP POP POP POP JUMP JUMPDEST PUSH1 0x0 DUP1 SLOAD PUSH1 0x1 SLOAD PUSH1 0x40 MLOAD PUSH4 0x523E3B4B PUSH1 0xE1 SHL DUP2 MSTORE DUP4 SWAP3 DUP4 SWAP3 PUSH1 0x60 SWAP3 PUSH1 0x1 PUSH1 0x1 PUSH1 0xA0 SHL SUB SWAP1 SWAP3 AND SWAP2 PUSH4 0xA47C7696 SWAP2 PUSH2 0x649 SWAP2 PUSH1 0x1 PUSH1 0xA0 SHL SWAP1 SWAP2 DIV PUSH1 0x1 PUSH1 0x1 PUSH1 0x40 SHL SUB AND SWAP1 PUSH1 0x4 ADD PUSH2 0x1375 JUMP JUMPDEST PUSH1 0x0 PUSH1 0x40 MLOAD DUP1 DUP4 SUB DUP2 DUP7 GAS STATICCALL ISZERO DUP1 ISZERO PUSH2 0x666 JUMPI RETURNDATASIZE PUSH1 0x0 DUP1 RETURNDATACOPY RETURNDATASIZE PUSH1 0x0 REVERT JUMPDEST POP POP POP POP PUSH1 0x40 MLOAD RETURNDATASIZE PUSH1 0x0 DUP3 RETURNDATACOPY PUSH1 0x1F RETURNDATASIZE SWAP1 DUP2 ADD PUSH1 0x1F NOT AND DUP3 ADD PUSH1 0x40 MSTORE PUSH2 0x68E SWAP2 SWAP1 DUP2 ADD SWAP1 PUSH2 0x13A5 JUMP JUMPDEST SWAP4 POP SWAP4 POP SWAP4 POP SWAP4 POP SWAP1 SWAP2 SWAP3 SWAP4 JUMP JUMPDEST PUSH1 0x8 SLOAD PUSH1 0x1 PUSH1 0x1 PUSH1 0xA0 SHL SUB AND CALLER EQ PUSH2 0x6B3 JUMPI PUSH1 0x0 DUP1 REVERT JUMPDEST PUSH1 0x8 SLOAD PUSH1 0x40 MLOAD PUSH1 0x0 SWAP2 PUSH1 0x1 PUSH1 0x1 PUSH1 0xA0 SHL SUB AND SWAP1 SELFBALANCE SWAP1 DUP4 DUP2 DUP2 DUP2 DUP6 DUP8 GAS CALL SWAP3 POP POP POP RETURNDATASIZE DUP1 PUSH1 0x0 DUP2 EQ PUSH2 0x700 JUMPI PUSH1 0x40 MLOAD SWAP2 POP PUSH1 0x1F NOT PUSH1 0x3F RETURNDATASIZE ADD AND DUP3 ADD PUSH1 0x40 MSTORE RETURNDATASIZE DUP3 MSTORE RETURNDATASIZE PUSH1 0x0 PUSH1 0x20 DUP5 ADD RETURNDATACOPY PUSH2 0x705 JUMP JUMPDEST PUSH1 0x60 SWAP2 POP JUMPDEST POP POP SWAP1 POP DUP1 PUSH2 0x713 JUMPI PUSH1 0x0 DUP1 REVERT JUMPDEST POP JUMP JUMPDEST CALLER PUSH1 0x1 PUSH1 0x1 PUSH1 0xA0 SHL SUB PUSH32 0x0 AND EQ PUSH2 0x790 JUMPI PUSH1 0x40 MLOAD PUSH4 0x73E64FD PUSH1 0xE2 SHL DUP2 MSTORE CALLER PUSH1 0x4 DUP3 ADD MSTORE PUSH1 0x1 PUSH1 0x1 PUSH1 0xA0 SHL SUB PUSH32 0x0 AND PUSH1 0x24 DUP3 ADD MSTORE PUSH1 0x44 ADD PUSH2 0x3FE JUMP JUMPDEST PUSH2 0x79A DUP3 DUP3 PUSH2 0xFA3 JUMP JUMPDEST POP POP JUMP JUMPDEST PUSH1 0x8 SLOAD PUSH1 0x1 PUSH1 0x1 PUSH1 0xA0 SHL SUB AND CALLER EQ PUSH2 0x7B5 JUMPI PUSH1 0x0 DUP1 REVERT JUMPDEST PUSH1 0x0 SLOAD PUSH1 0x1 SLOAD PUSH1 0x8 SLOAD PUSH1 0x40 MLOAD PUSH4 0xD7AE1D3 PUSH1 0xE4 SHL DUP2 MSTORE PUSH1 0x1 PUSH1 0xA0 SHL SWAP1 SWAP3 DIV PUSH1 0x1 PUSH1 0x1 PUSH1 0x40 SHL SUB AND PUSH1 0x4 DUP4 ADD MSTORE PUSH1 0x1 PUSH1 0x1 PUSH1 0xA0 SHL SUB SWAP1 DUP2 AND PUSH1 0x24 DUP4 ADD MSTORE SWAP1 SWAP2 AND SWAP1 PUSH4 0xD7AE1D30 SWAP1 PUSH1 0x44 ADD PUSH1 0x0 PUSH1 0x40 MLOAD DUP1 DUP4 SUB DUP2 PUSH1 0x0 DUP8 DUP1 EXTCODESIZE ISZERO DUP1 ISZERO PUSH2 0x818 JUMPI PUSH1 0x0 DUP1 REVERT JUMPDEST POP GAS CALL ISZERO DUP1 ISZERO PUSH2 0x82C JUMPI RETURNDATASIZE PUSH1 0x0 DUP1 RETURNDATACOPY RETURNDATASIZE PUSH1 0x0 REVERT JUMPDEST POP POP PUSH1 0x1 DUP1 SLOAD PUSH1 0x1 PUSH1 0xA0 SHL PUSH1 0x1 PUSH1 0xE0 SHL SUB NOT AND SWAP1 SSTORE POP POP JUMP JUMPDEST PUSH1 0x1 SLOAD PUSH1 0x40 MLOAD PUSH4 0x70A08231 PUSH1 0xE0 SHL DUP2 MSTORE PUSH1 0x0 SWAP2 PUSH1 0x1 PUSH1 0x1 PUSH1 0xA0 SHL SUB AND SWAP1 PUSH4 0x70A08231 SWAP1 PUSH2 0x876 SWAP1 ADDRESS SWAP1 PUSH1 0x4 ADD PUSH2 0x10A3 JUMP JUMPDEST PUSH1 0x20 PUSH1 0x40 MLOAD DUP1 DUP4 SUB DUP2 DUP7 GAS STATICCALL ISZERO DUP1 ISZERO PUSH2 0x893 JUMPI RETURNDATASIZE PUSH1 0x0 DUP1 RETURNDATACOPY RETURNDATASIZE PUSH1 0x0 REVERT JUMPDEST POP POP POP POP PUSH1 0x40 MLOAD RETURNDATASIZE PUSH1 0x1F NOT PUSH1 0x1F DUP3 ADD AND DUP3 ADD DUP1 PUSH1 0x40 MSTORE POP DUP2 ADD SWAP1 PUSH2 0x8B7 SWAP2 SWAP1 PUSH2 0x148A JUMP JUMPDEST SWAP1 POP SWAP1 JUMP JUMPDEST PUSH1 0x8 SLOAD PUSH1 0x1 PUSH1 0x1 PUSH1 0xA0 SHL SUB AND CALLER EQ PUSH2 0x8D3 JUMPI PUSH1 0x0 DUP1 REVERT JUMPDEST PUSH2 0x8DB PUSH2 0xE3B JUMP JUMPDEST PUSH1 0x0 SLOAD PUSH1 0x4 DUP1 SLOAD PUSH1 0x1 SLOAD PUSH1 0x5 SLOAD PUSH1 0x40 MLOAD PUSH4 0x5D3B1D3 PUSH1 0xE4 SHL DUP2 MSTORE SWAP4 DUP5 ADD SWAP3 SWAP1 SWAP3 MSTORE PUSH1 0x1 PUSH1 0xA0 SHL SWAP1 DIV PUSH1 0x1 PUSH1 0x1 PUSH1 0x40 SHL SUB AND PUSH1 0x24 DUP4 ADD MSTORE PUSH1 0x1 PUSH1 0x20 SHL DUP2 DIV PUSH2 0xFFFF AND PUSH1 0x44 DUP4 ADD MSTORE PUSH4 0xFFFFFFFF DUP1 DUP3 AND PUSH1 0x64 DUP5 ADD MSTORE PUSH1 0x1 PUSH1 0x30 SHL SWAP1 SWAP2 DIV AND PUSH1 0x84 DUP3 ADD MSTORE PUSH1 0x1 PUSH1 0x1 PUSH1 0xA0 SHL SUB SWAP1 SWAP2 AND SWAP1 PUSH4 0x5D3B1D30 SWAP1 PUSH1 0xA4 ADD PUSH1 0x20 PUSH1 0x40 MLOAD DUP1 DUP4 SUB DUP2 PUSH1 0x0 DUP8 GAS CALL ISZERO DUP1 ISZERO PUSH2 0x970 JUMPI RETURNDATASIZE PUSH1 0x0 DUP1 RETURNDATACOPY RETURNDATASIZE PUSH1 0x0 REVERT JUMPDEST POP POP POP POP PUSH1 0x40 MLOAD RETURNDATASIZE PUSH1 0x1F NOT PUSH1 0x1F DUP3 ADD AND DUP3 ADD DUP1 PUSH1 0x40 MSTORE POP DUP2 ADD SWAP1 PUSH2 0x994 SWAP2 SWAP1 PUSH2 0x148A JUMP JUMPDEST PUSH1 0x7 SSTORE JUMP JUMPDEST PUSH1 0x8 SLOAD PUSH1 0x1 PUSH1 0x1 PUSH1 0xA0 SHL SUB AND CALLER EQ PUSH2 0x9B0 JUMPI PUSH1 0x0 DUP1 REVERT JUMPDEST PUSH2 0x9B8 PUSH2 0xE3B JUMP JUMPDEST JUMP JUMPDEST PUSH1 0x8 SLOAD PUSH1 0x1 PUSH1 0x1 PUSH1 0xA0 SHL SUB AND CALLER EQ PUSH2 0x9D1 JUMPI PUSH1 0x0 DUP1 REVERT JUMPDEST PUSH1 0x1 SLOAD PUSH1 0x8 SLOAD PUSH1 0x40 MLOAD PUSH4 0x70A08231 PUSH1 0xE0 SHL DUP2 MSTORE PUSH1 0x1 PUSH1 0x1 PUSH1 0xA0 SHL SUB SWAP3 DUP4 AND SWAP3 PUSH4 0xA9059CBB SWAP3 AND SWAP1 DUP4 SWAP1 PUSH4 0x70A08231 SWAP1 PUSH2 0xA0E SWAP1 ADDRESS SWAP1 PUSH1 0x4 ADD PUSH2 0x10A3 JUMP JUMPDEST PUSH1 0x20 PUSH1 0x40 MLOAD DUP1 DUP4 SUB DUP2 DUP7 GAS STATICCALL ISZERO DUP1 ISZERO PUSH2 0xA2B JUMPI RETURNDATASIZE PUSH1 0x0 DUP1 RETURNDATACOPY RETURNDATASIZE PUSH1 0x0 REVERT JUMPDEST POP POP POP POP PUSH1 0x40 MLOAD RETURNDATASIZE PUSH1 0x1F NOT PUSH1 0x1F DUP3 ADD AND DUP3 ADD DUP1 PUSH1 0x40 MSTORE POP DUP2 ADD SWAP1 PUSH2 0xA4F SWAP2 SWAP1 PUSH2 0x148A JUMP JUMPDEST PUSH1 0x40 MLOAD PUSH1 0x1 PUSH1 0x1 PUSH1 0xE0 SHL SUB NOT PUSH1 0xE0 DUP6 SWAP1 SHL AND DUP2 MSTORE PUSH1 0x1 PUSH1 0x1 PUSH1 0xA0 SHL SUB SWAP1 SWAP3 AND PUSH1 0x4 DUP4 ADD MSTORE PUSH1 0x24 DUP3 ADD MSTORE PUSH1 0x44 ADD PUSH1 0x20 PUSH1 0x40 MLOAD DUP1 DUP4 SUB DUP2 PUSH1 0x0 DUP8 GAS CALL ISZERO DUP1 ISZERO PUSH2 0xA9A JUMPI RETURNDATASIZE PUSH1 0x0 DUP1 RETURNDATACOPY RETURNDATASIZE PUSH1 0x0 REVERT JUMPDEST POP POP POP POP PUSH1 0x40 MLOAD RETURNDATASIZE PUSH1 0x1F NOT PUSH1 0x1F DUP3 ADD AND DUP3 ADD DUP1 PUSH1 0x40 MSTORE POP DUP2 ADD SWAP1 PUSH2 0x713 SWAP2 SWAP1 PUSH2 0x14A3 JUMP JUMPDEST PUSH1 0x0 DUP1 SLOAD PUSH1 0x1 SLOAD PUSH1 0x40 MLOAD DUP4 SWAP3 PUSH1 0x1 PUSH1 0x1 PUSH1 0xA0 SHL SUB AND SWAP2 PUSH2 0xAF2 SWAP2 PUSH1 0x1 PUSH1 0xA0 SHL SWAP1 SWAP2 DIV PUSH1 0x1 PUSH1 0x1 PUSH1 0x40 SHL SUB AND SWAP1 PUSH1 0x24 ADD PUSH2 0x1375 JUMP JUMPDEST PUSH1 0x40 DUP1 MLOAD PUSH1 0x1F NOT DUP2 DUP5 SUB ADD DUP2 MSTORE SWAP2 DUP2 MSTORE PUSH1 0x20 DUP3 ADD DUP1 MLOAD PUSH1 0x1 PUSH1 0x1 PUSH1 0xE0 SHL SUB AND PUSH4 0x3A0AB5F5 PUSH1 0xE2 SHL OR SWAP1 MSTORE MLOAD PUSH2 0xB27 SWAP2 SWAP1 PUSH2 0x14F7 JUMP JUMPDEST PUSH1 0x0 PUSH1 0x40 MLOAD DUP1 DUP4 SUB DUP2 DUP6 GAS STATICCALL SWAP2 POP POP RETURNDATASIZE DUP1 PUSH1 0x0 DUP2 EQ PUSH2 0xB62 JUMPI PUSH1 0x40 MLOAD SWAP2 POP PUSH1 0x1F NOT PUSH1 0x3F RETURNDATASIZE ADD AND DUP3 ADD PUSH1 0x40 MSTORE RETURNDATASIZE DUP3 MSTORE RETURNDATASIZE PUSH1 0x0 PUSH1 0x20 DUP5 ADD RETURNDATACOPY PUSH2 0xB67 JUMP JUMPDEST PUSH1 0x60 SWAP2 POP JUMPDEST POP SWAP2 POP POP DUP1 DUP1 PUSH1 0x20 ADD SWAP1 MLOAD DUP2 ADD SWAP1 PUSH2 0xB7F SWAP2 SWAP1 PUSH2 0x14A3 JUMP JUMPDEST SWAP2 POP POP SWAP1 JUMP JUMPDEST PUSH1 0x8 SLOAD PUSH1 0x1 PUSH1 0x1 PUSH1 0xA0 SHL SUB AND CALLER EQ PUSH2 0x8DB JUMPI PUSH1 0x0 DUP1 REVERT JUMPDEST PUSH1 0x6 DUP2 DUP2 SLOAD DUP2 LT PUSH2 0xBAC JUMPI PUSH1 0x0 DUP1 REVERT JUMPDEST PUSH1 0x0 SWAP2 DUP3 MSTORE PUSH1 0x20 SWAP1 SWAP2 KECCAK256 ADD SLOAD SWAP1 POP DUP2 JUMP JUMPDEST PUSH1 0x0 DUP1 DUP3 DUP2 SUB PUSH2 0xBD5 JUMPI POP PUSH7 0xB1A2BC2EC50000 PUSH2 0xC7F JUMP JUMPDEST DUP3 PUSH1 0x1 SUB PUSH2 0xBEC JUMPI POP PUSH8 0x16345785D8A0000 PUSH2 0xC7F JUMP JUMPDEST DUP3 PUSH1 0x2 SUB PUSH2 0xC03 JUMPI POP PUSH8 0x3782DACE9D90000 PUSH2 0xC7F JUMP JUMPDEST DUP3 PUSH1 0x3 SUB PUSH2 0xC1A JUMPI POP PUSH8 0x6F05B59D3B20000 PUSH2 0xC7F JUMP JUMPDEST DUP3 PUSH1 0x4 SUB PUSH2 0xC31 JUMPI POP PUSH8 0xDE0B6B3A7640000 PUSH2 0xC7F JUMP JUMPDEST DUP3 PUSH1 0x5 SUB PUSH2 0xC48 JUMPI POP PUSH8 0x1BC16D674EC80000 PUSH2 0xC7F JUMP JUMPDEST PUSH1 0x40 MLOAD PUSH3 0x461BCD PUSH1 0xE5 SHL DUP2 MSTORE PUSH1 0x20 PUSH1 0x4 DUP3 ADD MSTORE PUSH1 0xC PUSH1 0x24 DUP3 ADD MSTORE PUSH12 0x696E76616C6964206D6F6465 PUSH1 0xA0 SHL PUSH1 0x44 DUP3 ADD MSTORE PUSH1 0x64 ADD PUSH2 0x3FE JUMP JUMPDEST SWAP3 SWAP2 POP POP JUMP JUMPDEST PUSH1 0x0 PUSH2 0xD12 PUSH1 0x10 PUSH1 0x0 SWAP1 SLOAD SWAP1 PUSH2 0x100 EXP SWAP1 DIV PUSH1 0x1 PUSH1 0x1 PUSH1 0xA0 SHL SUB AND PUSH1 0x1 PUSH1 0x1 PUSH1 0xA0 SHL SUB AND PUSH4 0xAD5C4648 PUSH1 0x40 MLOAD DUP2 PUSH4 0xFFFFFFFF AND PUSH1 0xE0 SHL DUP2 MSTORE PUSH1 0x4 ADD PUSH1 0x20 PUSH1 0x40 MLOAD DUP1 DUP4 SUB DUP2 DUP7 GAS STATICCALL ISZERO DUP1 ISZERO PUSH2 0xCDD JUMPI RETURNDATASIZE PUSH1 0x0 DUP1 RETURNDATACOPY RETURNDATASIZE PUSH1 0x0 REVERT JUMPDEST POP POP POP POP PUSH1 0x40 MLOAD RETURNDATASIZE PUSH1 0x1F NOT PUSH1 0x1F DUP3 ADD AND DUP3 ADD DUP1 PUSH1 0x40 MSTORE POP DUP2 ADD SWAP1 PUSH2 0xD01 SWAP2 SWAP1 PUSH2 0x1513 JUMP JUMPDEST PUSH1 0x3 SLOAD PUSH1 0x1 PUSH1 0x1 PUSH1 0xA0 SHL SUB AND PUSH2 0xFB6 JUMP JUMPDEST PUSH1 0x10 SLOAD PUSH1 0x40 MLOAD PUSH4 0xD06CA61F PUSH1 0xE0 SHL DUP2 MSTORE SWAP2 SWAP3 POP PUSH1 0x0 SWAP2 PUSH1 0x1 PUSH1 0x1 PUSH1 0xA0 SHL SUB SWAP1 SWAP2 AND SWAP1 PUSH4 0xD06CA61F SWAP1 PUSH2 0xD4A SWAP1 CALLVALUE SWAP1 DUP7 SWAP1 PUSH1 0x4 ADD PUSH2 0x152E JUMP JUMPDEST PUSH1 0x0 PUSH1 0x40 MLOAD DUP1 DUP4 SUB DUP2 DUP7 GAS STATICCALL ISZERO DUP1 ISZERO PUSH2 0xD67 JUMPI RETURNDATASIZE PUSH1 0x0 DUP1 RETURNDATACOPY RETURNDATASIZE PUSH1 0x0 REVERT JUMPDEST POP POP POP POP PUSH1 0x40 MLOAD RETURNDATASIZE PUSH1 0x0 DUP3 RETURNDATACOPY PUSH1 0x1F RETURNDATASIZE SWAP1 DUP2 ADD PUSH1 0x1F NOT AND DUP3 ADD PUSH1 0x40 MSTORE PUSH2 0xD8F SWAP2 SWAP1 DUP2 ADD SWAP1 PUSH2 0x154F JUMP JUMPDEST PUSH1 0x1 DUP2 MLOAD DUP2 LT PUSH2 0xDA1 JUMPI PUSH2 0xDA1 PUSH2 0x12A4 JUMP JUMPDEST PUSH1 0x20 SWAP1 DUP2 MUL SWAP2 SWAP1 SWAP2 ADD ADD MLOAD PUSH1 0x10 SLOAD SWAP1 SWAP2 POP PUSH1 0x1 PUSH1 0x1 PUSH1 0xA0 SHL SUB AND PUSH4 0x7FF36AB5 CALLVALUE DUP4 DUP6 ADDRESS PUSH2 0xDD0 TIMESTAMP PUSH2 0x3E8 PUSH2 0x1346 JUMP JUMPDEST PUSH1 0x40 MLOAD DUP7 PUSH4 0xFFFFFFFF AND PUSH1 0xE0 SHL DUP2 MSTORE PUSH1 0x4 ADD PUSH2 0xDEF SWAP5 SWAP4 SWAP3 SWAP2 SWAP1 PUSH2 0x15DF JUMP JUMPDEST PUSH1 0x0 PUSH1 0x40 MLOAD DUP1 DUP4 SUB DUP2 DUP6 DUP9 GAS CALL ISZERO DUP1 ISZERO PUSH2 0xE0D JUMPI RETURNDATASIZE PUSH1 0x0 DUP1 RETURNDATACOPY RETURNDATASIZE PUSH1 0x0 REVERT JUMPDEST POP POP POP POP POP PUSH1 0x40 MLOAD RETURNDATASIZE PUSH1 0x0 DUP3 RETURNDATACOPY PUSH1 0x1F RETURNDATASIZE SWAP1 DUP2 ADD PUSH1 0x1F NOT AND DUP3 ADD PUSH1 0x40 MSTORE PUSH2 0xE36 SWAP2 SWAP1 DUP2 ADD SWAP1 PUSH2 0x154F JUMP JUMPDEST POP POP POP JUMP JUMPDEST PUSH1 0x1 SLOAD PUSH1 0x40 MLOAD PUSH4 0x70A08231 PUSH1 0xE0 SHL DUP2 MSTORE PUSH1 0x0 SWAP2 PUSH1 0x1 PUSH1 0x1 PUSH1 0xA0 SHL SUB AND SWAP1 PUSH4 0x70A08231 SWAP1 PUSH2 0xE6C SWAP1 ADDRESS SWAP1 PUSH1 0x4 ADD PUSH2 0x10A3 JUMP JUMPDEST PUSH1 0x20 PUSH1 0x40 MLOAD DUP1 DUP4 SUB DUP2 DUP7 GAS STATICCALL ISZERO DUP1 ISZERO PUSH2 0xE89 JUMPI RETURNDATASIZE PUSH1 0x0 DUP1 RETURNDATACOPY RETURNDATASIZE PUSH1 0x0 REVERT JUMPDEST POP POP POP POP PUSH1 0x40 MLOAD RETURNDATASIZE PUSH1 0x1F NOT PUSH1 0x1F DUP3 ADD AND DUP3 ADD DUP1 PUSH1 0x40 MSTORE POP DUP2 ADD SWAP1 PUSH2 0xEAD SWAP2 SWAP1 PUSH2 0x148A JUMP JUMPDEST SWAP1 POP PUSH1 0x0 DUP2 GT PUSH2 0xEF3 JUMPI PUSH1 0x40 MLOAD PUSH3 0x461BCD PUSH1 0xE5 SHL DUP2 MSTORE PUSH1 0x20 PUSH1 0x4 DUP3 ADD MSTORE PUSH1 0x11 PUSH1 0x24 DUP3 ADD MSTORE PUSH17 0x5A65726F206C696E6B2062616C616E6365 PUSH1 0x78 SHL PUSH1 0x44 DUP3 ADD MSTORE PUSH1 0x64 ADD PUSH2 0x3FE JUMP JUMPDEST PUSH1 0x1 SLOAD PUSH1 0x0 SLOAD PUSH1 0x40 MLOAD PUSH1 0x1 PUSH1 0x1 PUSH1 0xA0 SHL SUB DUP1 DUP5 AND SWAP4 PUSH4 0x4000AEA0 SWAP4 SWAP2 SWAP1 SWAP2 AND SWAP2 DUP6 SWAP2 PUSH2 0xF33 SWAP2 PUSH1 0x1 PUSH1 0xA0 SHL SWAP1 SWAP2 DIV PUSH1 0x1 PUSH1 0x1 PUSH1 0x40 SHL SUB AND SWAP1 PUSH1 0x20 ADD PUSH2 0x1375 JUMP JUMPDEST PUSH1 0x40 MLOAD PUSH1 0x20 DUP2 DUP4 SUB SUB DUP2 MSTORE SWAP1 PUSH1 0x40 MSTORE PUSH1 0x40 MLOAD DUP5 PUSH4 0xFFFFFFFF AND PUSH1 0xE0 SHL DUP2 MSTORE PUSH1 0x4 ADD PUSH2 0xF60 SWAP4 SWAP3 SWAP2 SWAP1 PUSH2 0x1614 JUMP JUMPDEST PUSH1 0x20 PUSH1 0x40 MLOAD DUP1 DUP4 SUB DUP2 PUSH1 0x0 DUP8 GAS CALL ISZERO DUP1 ISZERO PUSH2 0xF7F JUMPI RETURNDATASIZE PUSH1 0x0 DUP1 RETURNDATACOPY RETURNDATASIZE PUSH1 0x0 REVERT JUMPDEST POP POP POP POP PUSH1 0x40 MLOAD RETURNDATASIZE PUSH1 0x1F NOT PUSH1 0x1F DUP3 ADD AND DUP3 ADD DUP1 PUSH1 0x40 MSTORE POP DUP2 ADD SWAP1 PUSH2 0x79A SWAP2 SWAP1 PUSH2 0x14A3 JUMP JUMPDEST DUP1 MLOAD PUSH2 0xE36 SWAP1 PUSH1 0x6 SWAP1 PUSH1 0x20 DUP5 ADD SWAP1 PUSH2 0x1043 JUMP JUMPDEST PUSH1 0x40 DUP1 MLOAD PUSH1 0x2 DUP1 DUP3 MSTORE PUSH1 0x60 DUP1 DUP4 ADD DUP5 MSTORE SWAP3 PUSH1 0x0 SWAP3 SWAP2 SWAP1 PUSH1 0x20 DUP4 ADD SWAP1 DUP1 CALLDATASIZE DUP4 CALLDATACOPY ADD SWAP1 POP POP SWAP1 POP DUP4 DUP2 PUSH1 0x0 DUP2 MLOAD DUP2 LT PUSH2 0xFEF JUMPI PUSH2 0xFEF PUSH2 0x12A4 JUMP JUMPDEST PUSH1 0x20 MUL PUSH1 0x20 ADD ADD SWAP1 PUSH1 0x1 PUSH1 0x1 PUSH1 0xA0 SHL SUB AND SWAP1 DUP2 PUSH1 0x1 PUSH1 0x1 PUSH1 0xA0 SHL SUB AND DUP2 MSTORE POP POP DUP3 DUP2 PUSH1 0x1 DUP2 MLOAD DUP2 LT PUSH2 0x1023 JUMPI PUSH2 0x1023 PUSH2 0x12A4 JUMP JUMPDEST PUSH1 0x1 PUSH1 0x1 PUSH1 0xA0 SHL SUB SWAP1 SWAP3 AND PUSH1 0x20 SWAP3 DUP4 MUL SWAP2 SWAP1 SWAP2 ADD SWAP1 SWAP2 ADD MSTORE SWAP1 POP SWAP3 SWAP2 POP POP JUMP JUMPDEST DUP3 DUP1 SLOAD DUP3 DUP3 SSTORE SWAP1 PUSH1 0x0 MSTORE PUSH1 0x20 PUSH1 0x0 KECCAK256 SWAP1 DUP2 ADD SWAP3 DUP3 ISZERO PUSH2 0x107E JUMPI SWAP2 PUSH1 0x20 MUL DUP3 ADD JUMPDEST DUP3 DUP2 GT ISZERO PUSH2 0x107E JUMPI DUP3 MLOAD DUP3 SSTORE SWAP2 PUSH1 0x20 ADD SWAP2 SWAP1 PUSH1 0x1 ADD SWAP1 PUSH2 0x1063 JUMP JUMPDEST POP PUSH2 0x108A SWAP3 SWAP2 POP PUSH2 0x108E JUMP JUMPDEST POP SWAP1 JUMP JUMPDEST JUMPDEST DUP1 DUP3 GT ISZERO PUSH2 0x108A JUMPI PUSH1 0x0 DUP2 SSTORE PUSH1 0x1 ADD PUSH2 0x108F JUMP JUMPDEST PUSH1 0x1 PUSH1 0x1 PUSH1 0xA0 SHL SUB SWAP2 SWAP1 SWAP2 AND DUP2 MSTORE PUSH1 0x20 ADD SWAP1 JUMP JUMPDEST DUP1 ISZERO ISZERO DUP2 EQ PUSH2 0x713 JUMPI PUSH1 0x0 DUP1 REVERT JUMPDEST PUSH1 0x0 DUP1 PUSH1 0x40 DUP4 DUP6 SUB SLT ISZERO PUSH2 0x10D8 JUMPI PUSH1 0x0 DUP1 REVERT JUMPDEST DUP3 CALLDATALOAD PUSH2 0x10E3 DUP2 PUSH2 0x10B7 JUMP JUMPDEST SWAP5 PUSH1 0x20 SWAP4 SWAP1 SWAP4 ADD CALLDATALOAD SWAP4 POP POP POP JUMP JUMPDEST PUSH1 0x0 DUP2 MLOAD DUP1 DUP5 MSTORE PUSH1 0x20 DUP1 DUP6 ADD SWAP5 POP DUP1 DUP5 ADD PUSH1 0x0 JUMPDEST DUP4 DUP2 LT ISZERO PUSH2 0x112A JUMPI DUP2 MLOAD PUSH1 0x1 PUSH1 0x1 PUSH1 0xA0 SHL SUB AND DUP8 MSTORE SWAP6 DUP3 ADD SWAP6 SWAP1 DUP3 ADD SWAP1 PUSH1 0x1 ADD PUSH2 0x1105 JUMP JUMPDEST POP SWAP5 SWAP6 SWAP5 POP POP POP POP POP JUMP JUMPDEST PUSH1 0x1 PUSH1 0x1 PUSH1 0x60 SHL SUB DUP6 AND DUP2 MSTORE PUSH1 0x1 PUSH1 0x1 PUSH1 0x40 SHL SUB DUP5 AND PUSH1 0x20 DUP3 ADD MSTORE PUSH1 0x1 PUSH1 0x1 PUSH1 0xA0 SHL SUB DUP4 AND PUSH1 0x40 DUP3 ADD MSTORE PUSH1 0x80 PUSH1 0x60 DUP3 ADD DUP2 SWAP1 MSTORE PUSH1 0x0 SWAP1 PUSH2 0x1177 SWAP1 DUP4 ADD DUP5 PUSH2 0x10F1 JUMP JUMPDEST SWAP7 SWAP6 POP POP POP POP POP POP JUMP JUMPDEST PUSH4 0x4E487B71 PUSH1 0xE0 SHL PUSH1 0x0 MSTORE PUSH1 0x41 PUSH1 0x4 MSTORE PUSH1 0x24 PUSH1 0x0 REVERT JUMPDEST PUSH1 0x40 MLOAD PUSH1 0x1F DUP3 ADD PUSH1 0x1F NOT AND DUP2 ADD PUSH1 0x1 PUSH1 0x1 PUSH1 0x40 SHL SUB DUP2 GT DUP3 DUP3 LT OR ISZERO PUSH2 0x11BF JUMPI PUSH2 0x11BF PUSH2 0x1181 JUMP JUMPDEST PUSH1 0x40 MSTORE SWAP2 SWAP1 POP JUMP JUMPDEST PUSH1 0x0 PUSH1 0x1 PUSH1 0x1 PUSH1 0x40 SHL SUB DUP3 GT ISZERO PUSH2 0x11E0 JUMPI PUSH2 0x11E0 PUSH2 0x1181 JUMP JUMPDEST POP PUSH1 0x5 SHL PUSH1 0x20 ADD SWAP1 JUMP JUMPDEST PUSH1 0x0 DUP1 PUSH1 0x40 DUP4 DUP6 SUB SLT ISZERO PUSH2 0x11FD JUMPI PUSH1 0x0 DUP1 REVERT JUMPDEST DUP3 CALLDATALOAD SWAP2 POP PUSH1 0x20 DUP1 DUP5 ADD CALLDATALOAD PUSH1 0x1 PUSH1 0x1 PUSH1 0x40 SHL SUB DUP2 GT ISZERO PUSH2 0x121B JUMPI PUSH1 0x0 DUP1 REVERT JUMPDEST DUP5 ADD PUSH1 0x1F DUP2 ADD DUP7 SGT PUSH2 0x122C JUMPI PUSH1 0x0 DUP1 REVERT JUMPDEST DUP1 CALLDATALOAD PUSH2 0x123F PUSH2 0x123A DUP3 PUSH2 0x11C7 JUMP JUMPDEST PUSH2 0x1197 JUMP JUMPDEST DUP2 DUP2 MSTORE PUSH1 0x5 SWAP2 SWAP1 SWAP2 SHL DUP3 ADD DUP4 ADD SWAP1 DUP4 DUP2 ADD SWAP1 DUP9 DUP4 GT ISZERO PUSH2 0x125E JUMPI PUSH1 0x0 DUP1 REVERT JUMPDEST SWAP3 DUP5 ADD SWAP3 JUMPDEST DUP3 DUP5 LT ISZERO PUSH2 0x127C JUMPI DUP4 CALLDATALOAD DUP3 MSTORE SWAP3 DUP5 ADD SWAP3 SWAP1 DUP5 ADD SWAP1 PUSH2 0x1263 JUMP JUMPDEST DUP1 SWAP6 POP POP POP POP POP POP SWAP3 POP SWAP3 SWAP1 POP JUMP JUMPDEST PUSH1 0x0 PUSH1 0x20 DUP3 DUP5 SUB SLT ISZERO PUSH2 0x129D JUMPI PUSH1 0x0 DUP1 REVERT JUMPDEST POP CALLDATALOAD SWAP2 SWAP1 POP JUMP JUMPDEST PUSH4 0x4E487B71 PUSH1 0xE0 SHL PUSH1 0x0 MSTORE PUSH1 0x32 PUSH1 0x4 MSTORE PUSH1 0x24 PUSH1 0x0 REVERT JUMPDEST PUSH4 0x4E487B71 PUSH1 0xE0 SHL PUSH1 0x0 MSTORE PUSH1 0x12 PUSH1 0x4 MSTORE PUSH1 0x24 PUSH1 0x0 REVERT JUMPDEST PUSH1 0x0 DUP3 PUSH2 0x12DF JUMPI PUSH2 0x12DF PUSH2 0x12BA JUMP JUMPDEST POP MOD SWAP1 JUMP JUMPDEST PUSH4 0x4E487B71 PUSH1 0xE0 SHL PUSH1 0x0 MSTORE PUSH1 0x11 PUSH1 0x4 MSTORE PUSH1 0x24 PUSH1 0x0 REVERT JUMPDEST PUSH1 0x0 PUSH1 0x1 DUP3 ADD PUSH2 0x130C JUMPI PUSH2 0x130C PUSH2 0x12E4 JUMP JUMPDEST POP PUSH1 0x1 ADD SWAP1 JUMP JUMPDEST PUSH1 0x0 DUP2 PUSH1 0x0 NOT DIV DUP4 GT DUP3 ISZERO ISZERO AND ISZERO PUSH2 0x132D JUMPI PUSH2 0x132D PUSH2 0x12E4 JUMP JUMPDEST POP MUL SWAP1 JUMP JUMPDEST PUSH1 0x0 DUP3 PUSH2 0x1341 JUMPI PUSH2 0x1341 PUSH2 0x12BA JUMP JUMPDEST POP DIV SWAP1 JUMP JUMPDEST PUSH1 0x0 DUP3 NOT DUP3 GT ISZERO PUSH2 0x1359 JUMPI PUSH2 0x1359 PUSH2 0x12E4 JUMP JUMPDEST POP ADD SWAP1 JUMP JUMPDEST PUSH1 0x0 DUP3 DUP3 LT ISZERO PUSH2 0x1370 JUMPI PUSH2 0x1370 PUSH2 0x12E4 JUMP JUMPDEST POP SUB SWAP1 JUMP JUMPDEST PUSH1 0x1 PUSH1 0x1 PUSH1 0x40 SHL SUB SWAP2 SWAP1 SWAP2 AND DUP2 MSTORE PUSH1 0x20 ADD SWAP1 JUMP JUMPDEST DUP1 MLOAD PUSH1 0x1 PUSH1 0x1 PUSH1 0xA0 SHL SUB DUP2 AND DUP2 EQ PUSH2 0x13A0 JUMPI PUSH1 0x0 DUP1 REVERT JUMPDEST SWAP2 SWAP1 POP JUMP JUMPDEST PUSH1 0x0 DUP1 PUSH1 0x0 DUP1 PUSH1 0x80 DUP6 DUP8 SUB SLT ISZERO PUSH2 0x13BB JUMPI PUSH1 0x0 DUP1 REVERT JUMPDEST DUP5 MLOAD PUSH1 0x1 PUSH1 0x1 PUSH1 0x60 SHL SUB DUP2 AND DUP2 EQ PUSH2 0x13D2 JUMPI PUSH1 0x0 DUP1 REVERT JUMPDEST PUSH1 0x20 DUP7 DUP2 ADD MLOAD SWAP2 SWAP6 POP SWAP1 PUSH1 0x1 PUSH1 0x1 PUSH1 0x40 SHL SUB DUP1 DUP3 AND DUP3 EQ PUSH2 0x13F2 JUMPI PUSH1 0x0 DUP1 REVERT JUMPDEST DUP2 SWAP6 POP PUSH2 0x1401 PUSH1 0x40 DUP10 ADD PUSH2 0x1389 JUMP JUMPDEST SWAP5 POP PUSH1 0x60 DUP9 ADD MLOAD SWAP2 POP DUP1 DUP3 GT ISZERO PUSH2 0x1417 JUMPI PUSH1 0x0 DUP1 REVERT JUMPDEST POP DUP7 ADD PUSH1 0x1F DUP2 ADD DUP9 SGT PUSH2 0x1429 JUMPI PUSH1 0x0 DUP1 REVERT JUMPDEST DUP1 MLOAD PUSH2 0x1437 PUSH2 0x123A DUP3 PUSH2 0x11C7 JUMP JUMPDEST DUP2 DUP2 MSTORE PUSH1 0x5 SWAP2 SWAP1 SWAP2 SHL DUP3 ADD DUP4 ADD SWAP1 DUP4 DUP2 ADD SWAP1 DUP11 DUP4 GT ISZERO PUSH2 0x1456 JUMPI PUSH1 0x0 DUP1 REVERT JUMPDEST SWAP3 DUP5 ADD SWAP3 JUMPDEST DUP3 DUP5 LT ISZERO PUSH2 0x147B JUMPI PUSH2 0x146C DUP5 PUSH2 0x1389 JUMP JUMPDEST DUP3 MSTORE SWAP3 DUP5 ADD SWAP3 SWAP1 DUP5 ADD SWAP1 PUSH2 0x145B JUMP JUMPDEST SWAP8 SWAP11 SWAP7 SWAP10 POP SWAP5 SWAP8 POP POP POP POP POP POP JUMP JUMPDEST PUSH1 0x0 PUSH1 0x20 DUP3 DUP5 SUB SLT ISZERO PUSH2 0x149C JUMPI PUSH1 0x0 DUP1 REVERT JUMPDEST POP MLOAD SWAP2 SWAP1 POP JUMP JUMPDEST PUSH1 0x0 PUSH1 0x20 DUP3 DUP5 SUB SLT ISZERO PUSH2 0x14B5 JUMPI PUSH1 0x0 DUP1 REVERT JUMPDEST DUP2 MLOAD PUSH2 0x14C0 DUP2 PUSH2 0x10B7 JUMP JUMPDEST SWAP4 SWAP3 POP POP POP JUMP JUMPDEST PUSH1 0x0 JUMPDEST DUP4 DUP2 LT ISZERO PUSH2 0x14E2 JUMPI DUP2 DUP2 ADD MLOAD DUP4 DUP3 ADD MSTORE PUSH1 0x20 ADD PUSH2 0x14CA JUMP JUMPDEST DUP4 DUP2 GT ISZERO PUSH2 0x14F1 JUMPI PUSH1 0x0 DUP5 DUP5 ADD MSTORE JUMPDEST POP POP POP POP JUMP JUMPDEST PUSH1 0x0 DUP3 MLOAD PUSH2 0x1509 DUP2 DUP5 PUSH1 0x20 DUP8 ADD PUSH2 0x14C7 JUMP JUMPDEST SWAP2 SWAP1 SWAP2 ADD SWAP3 SWAP2 POP POP JUMP JUMPDEST PUSH1 0x0 PUSH1 0x20 DUP3 DUP5 SUB SLT ISZERO PUSH2 0x1525 JUMPI PUSH1 0x0 DUP1 REVERT JUMPDEST PUSH2 0x14C0 DUP3 PUSH2 0x1389 JUMP JUMPDEST DUP3 DUP2 MSTORE PUSH1 0x40 PUSH1 0x20 DUP3 ADD MSTORE PUSH1 0x0 PUSH2 0x1547 PUSH1 0x40 DUP4 ADD DUP5 PUSH2 0x10F1 JUMP JUMPDEST SWAP5 SWAP4 POP POP POP POP JUMP JUMPDEST PUSH1 0x0 PUSH1 0x20 DUP1 DUP4 DUP6 SUB SLT ISZERO PUSH2 0x1562 JUMPI PUSH1 0x0 DUP1 REVERT JUMPDEST DUP3 MLOAD PUSH1 0x1 PUSH1 0x1 PUSH1 0x40 SHL SUB DUP2 GT ISZERO PUSH2 0x1578 JUMPI PUSH1 0x0 DUP1 REVERT JUMPDEST DUP4 ADD PUSH1 0x1F DUP2 ADD DUP6 SGT PUSH2 0x1589 JUMPI PUSH1 0x0 DUP1 REVERT JUMPDEST DUP1 MLOAD PUSH2 0x1597 PUSH2 0x123A DUP3 PUSH2 0x11C7 JUMP JUMPDEST DUP2 DUP2 MSTORE PUSH1 0x5 SWAP2 SWAP1 SWAP2 SHL DUP3 ADD DUP4 ADD SWAP1 DUP4 DUP2 ADD SWAP1 DUP8 DUP4 GT ISZERO PUSH2 0x15B6 JUMPI PUSH1 0x0 DUP1 REVERT JUMPDEST SWAP3 DUP5 ADD SWAP3 JUMPDEST DUP3 DUP5 LT ISZERO PUSH2 0x15D4 JUMPI DUP4 MLOAD DUP3 MSTORE SWAP3 DUP5 ADD SWAP3 SWAP1 DUP5 ADD SWAP1 PUSH2 0x15BB JUMP JUMPDEST SWAP8 SWAP7 POP POP POP POP POP POP POP JUMP JUMPDEST DUP5 DUP2 MSTORE PUSH1 0x80 PUSH1 0x20 DUP3 ADD MSTORE PUSH1 0x0 PUSH2 0x15F8 PUSH1 0x80 DUP4 ADD DUP7 PUSH2 0x10F1 JUMP JUMPDEST PUSH1 0x1 PUSH1 0x1 PUSH1 0xA0 SHL SUB SWAP5 SWAP1 SWAP5 AND PUSH1 0x40 DUP4 ADD MSTORE POP PUSH1 0x60 ADD MSTORE SWAP3 SWAP2 POP POP JUMP JUMPDEST PUSH1 0x1 DUP1 PUSH1 0xA0 SHL SUB DUP5 AND DUP2 MSTORE DUP3 PUSH1 0x20 DUP3 ADD MSTORE PUSH1 0x60 PUSH1 0x40 DUP3 ADD MSTORE PUSH1 0x0 DUP3 MLOAD DUP1 PUSH1 0x60 DUP5 ADD MSTORE PUSH2 0x1647 DUP2 PUSH1 0x80 DUP6 ADD PUSH1 0x20 DUP8 ADD PUSH2 0x14C7 JUMP JUMPDEST PUSH1 0x1F ADD PUSH1 0x1F NOT AND SWAP2 SWAP1 SWAP2 ADD PUSH1 0x80 ADD SWAP5 SWAP4 POP POP POP POP JUMP INVALID LOG2 PUSH5 0x6970667358 0x22 SLT KECCAK256 SIGNEXTEND 0xE6 SWAP6 SWAP8 0x1E GASPRICE GT CHAINID DIV 0xED 0xE0 PUSH16 0xA62ED0965DC4DC0DA2E1CF5F648DD184 DUP1 GT PUSH16 0xE364736F6C634300080F003300000000 "
        },
        "methodIdentifiers": {
          "cancelSubscription()": "24e9edb0",
          "dexRouter()": "0758d924",
          "flipCoin(bool,uint256)": "0c997597",
          "fundAndRequestRandomWords()": "58ecb16b",
          "getLinkBalance()": "50c5f975",
          "getSubscriptionDetails()": "0d5de6df",
          "pendingRequestExists()": "a3ced7b9",
          "rawFulfillRandomWords(uint256,uint256[])": "1fe543e3",
          "requestRandomWords()": "e0c86289",
          "reserveBnbPercentageForHolders()": "52253d58",
          "reservedBnbForBuyLink()": "fb496fdb",
          "reservedBnbForBuyLinkPercentage()": "9233ab78",
          "reservedBnbHolders()": "6c8ceed5",
          "s_owner()": "e3978240",
          "s_randomWords(uint256)": "f6eaffc8",
          "s_requestId()": "e89e106a",
          "topUpSubscription()": "7aa51754",
          "usersFlips(uint256)": "a0f0a1e3",
          "usersFlipsCounter()": "21e71717",
          "withdrawBnb()": "1da0603a",
          "withdrawLink()": "8dc654a2",
          "wordsIndex()": "d627f363"
        }
      },
      "storageLayout": {
        "storage": [
          {
            "astId": 657,
            "contract": "contracts/CoinFlip.sol:CoinFlip",
            "label": "COORDINATOR",
            "offset": 0,
            "slot": "0",
            "type": "t_contract(VRFCoordinatorV2Interface)241"
          },
          {
            "astId": 660,
            "contract": "contracts/CoinFlip.sol:CoinFlip",
            "label": "LINKTOKEN",
            "offset": 0,
            "slot": "1",
            "type": "t_contract(LinkTokenInterface)152"
          },
          {
            "astId": 662,
            "contract": "contracts/CoinFlip.sol:CoinFlip",
            "label": "s_subscriptionId",
            "offset": 20,
            "slot": "1",
            "type": "t_uint64"
          },
          {
            "astId": 665,
            "contract": "contracts/CoinFlip.sol:CoinFlip",
            "label": "vrfCoordinator",
            "offset": 0,
            "slot": "2",
            "type": "t_address"
          },
          {
            "astId": 668,
            "contract": "contracts/CoinFlip.sol:CoinFlip",
            "label": "link_token_contract",
            "offset": 0,
            "slot": "3",
            "type": "t_address"
          },
          {
            "astId": 671,
            "contract": "contracts/CoinFlip.sol:CoinFlip",
            "label": "keyHash",
            "offset": 0,
            "slot": "4",
            "type": "t_bytes32"
          },
          {
            "astId": 674,
            "contract": "contracts/CoinFlip.sol:CoinFlip",
            "label": "callbackGasLimit",
            "offset": 0,
            "slot": "5",
            "type": "t_uint32"
          },
          {
            "astId": 677,
            "contract": "contracts/CoinFlip.sol:CoinFlip",
            "label": "requestConfirmations",
            "offset": 4,
            "slot": "5",
            "type": "t_uint16"
          },
          {
            "astId": 680,
            "contract": "contracts/CoinFlip.sol:CoinFlip",
            "label": "numWords",
            "offset": 6,
            "slot": "5",
            "type": "t_uint32"
          },
          {
            "astId": 683,
            "contract": "contracts/CoinFlip.sol:CoinFlip",
            "label": "s_randomWords",
            "offset": 0,
            "slot": "6",
            "type": "t_array(t_uint256)dyn_storage"
          },
          {
            "astId": 685,
            "contract": "contracts/CoinFlip.sol:CoinFlip",
            "label": "s_requestId",
            "offset": 0,
            "slot": "7",
            "type": "t_uint256"
          },
          {
            "astId": 687,
            "contract": "contracts/CoinFlip.sol:CoinFlip",
            "label": "s_owner",
            "offset": 0,
            "slot": "8",
            "type": "t_address"
          },
          {
            "astId": 690,
            "contract": "contracts/CoinFlip.sol:CoinFlip",
            "label": "wordsIndex",
            "offset": 0,
            "slot": "9",
            "type": "t_uint256"
          },
          {
            "astId": 695,
            "contract": "contracts/CoinFlip.sol:CoinFlip",
            "label": "usersFlips",
            "offset": 0,
            "slot": "10",
            "type": "t_mapping(t_uint256,t_struct(Flip)652_storage)"
          },
          {
            "astId": 697,
            "contract": "contracts/CoinFlip.sol:CoinFlip",
            "label": "usersFlipsCounter",
            "offset": 0,
            "slot": "11",
            "type": "t_uint256"
          },
          {
            "astId": 700,
            "contract": "contracts/CoinFlip.sol:CoinFlip",
            "label": "reservedBnbForBuyLink",
            "offset": 0,
            "slot": "12",
            "type": "t_uint256"
          },
          {
            "astId": 703,
            "contract": "contracts/CoinFlip.sol:CoinFlip",
            "label": "reservedBnbHolders",
            "offset": 0,
            "slot": "13",
            "type": "t_uint256"
          },
          {
            "astId": 706,
            "contract": "contracts/CoinFlip.sol:CoinFlip",
            "label": "reservedBnbForBuyLinkPercentage",
            "offset": 0,
            "slot": "14",
            "type": "t_uint256"
          },
          {
            "astId": 709,
            "contract": "contracts/CoinFlip.sol:CoinFlip",
            "label": "reserveBnbPercentageForHolders",
            "offset": 0,
            "slot": "15",
            "type": "t_uint256"
          },
          {
            "astId": 712,
            "contract": "contracts/CoinFlip.sol:CoinFlip",
            "label": "dexRouter",
            "offset": 0,
            "slot": "16",
            "type": "t_contract(IUniswapV2Router02)637"
          }
        ],
        "types": {
          "t_address": {
            "encoding": "inplace",
            "label": "address",
            "numberOfBytes": "20"
          },
          "t_array(t_uint256)dyn_storage": {
            "base": "t_uint256",
            "encoding": "dynamic_array",
            "label": "uint256[]",
            "numberOfBytes": "32"
          },
          "t_bool": {
            "encoding": "inplace",
            "label": "bool",
            "numberOfBytes": "1"
          },
          "t_bytes32": {
            "encoding": "inplace",
            "label": "bytes32",
            "numberOfBytes": "32"
          },
          "t_contract(IUniswapV2Router02)637": {
            "encoding": "inplace",
            "label": "contract IUniswapV2Router02",
            "numberOfBytes": "20"
          },
          "t_contract(LinkTokenInterface)152": {
            "encoding": "inplace",
            "label": "contract LinkTokenInterface",
            "numberOfBytes": "20"
          },
          "t_contract(VRFCoordinatorV2Interface)241": {
            "encoding": "inplace",
            "label": "contract VRFCoordinatorV2Interface",
            "numberOfBytes": "20"
          },
          "t_mapping(t_uint256,t_struct(Flip)652_storage)": {
            "encoding": "mapping",
            "key": "t_uint256",
            "label": "mapping(uint256 => struct Flip)",
            "numberOfBytes": "32",
            "value": "t_struct(Flip)652_storage"
          },
          "t_struct(Flip)652_storage": {
            "encoding": "inplace",
            "label": "struct Flip",
            "members": [
              {
                "astId": 645,
                "contract": "contracts/CoinFlip.sol:CoinFlip",
                "label": "user",
                "offset": 0,
                "slot": "0",
                "type": "t_address"
              },
              {
                "astId": 647,
                "contract": "contracts/CoinFlip.sol:CoinFlip",
                "label": "timestamp",
                "offset": 0,
                "slot": "1",
                "type": "t_uint256"
              },
              {
                "astId": 649,
                "contract": "contracts/CoinFlip.sol:CoinFlip",
                "label": "flipNumber",
                "offset": 0,
                "slot": "2",
                "type": "t_uint256"
              },
              {
                "astId": 651,
                "contract": "contracts/CoinFlip.sol:CoinFlip",
                "label": "win",
                "offset": 0,
                "slot": "3",
                "type": "t_bool"
              }
            ],
            "numberOfBytes": "128"
          },
          "t_uint16": {
            "encoding": "inplace",
            "label": "uint16",
            "numberOfBytes": "2"
          },
          "t_uint256": {
            "encoding": "inplace",
            "label": "uint256",
            "numberOfBytes": "32"
          },
          "t_uint32": {
            "encoding": "inplace",
            "label": "uint32",
            "numberOfBytes": "4"
          },
          "t_uint64": {
            "encoding": "inplace",
            "label": "uint64",
            "numberOfBytes": "8"
          }
        }
      }
    }
  }
}