{
  "contracts/VRFv2Consumer.sol": {
    "VRFv2Consumer": {
      "abi": [
        {
          "inputs": [],
          "stateMutability": "nonpayable",
          "type": "constructor"
        },
        {
          "inputs": [
            {
              "internalType": "address",
              "name": "have",
              "type": "address"
            },
            {
              "internalType": "address",
              "name": "want",
              "type": "address"
            }
          ],
          "name": "OnlyCoordinatorCanFulfill",
          "type": "error"
        },
        {
          "inputs": [
            {
              "internalType": "address",
              "name": "consumerAddress",
              "type": "address"
            }
          ],
          "name": "addConsumer",
          "outputs": [],
          "stateMutability": "nonpayable",
          "type": "function"
        },
        {
          "inputs": [
            {
              "internalType": "address",
              "name": "receivingWallet",
              "type": "address"
            }
          ],
          "name": "cancelSubscription",
          "outputs": [],
          "stateMutability": "nonpayable",
          "type": "function"
        },
        {
          "inputs": [
            {
              "internalType": "uint256",
              "name": "amount",
              "type": "uint256"
            }
          ],
          "name": "fundAndRequestRandomWords",
          "outputs": [],
          "stateMutability": "nonpayable",
          "type": "function"
        },
        {
          "inputs": [
            {
              "internalType": "uint256",
              "name": "requestId",
              "type": "uint256"
            },
            {
              "internalType": "uint256[]",
              "name": "randomWords",
              "type": "uint256[]"
            }
          ],
          "name": "rawFulfillRandomWords",
          "outputs": [],
          "stateMutability": "nonpayable",
          "type": "function"
        },
        {
          "inputs": [
            {
              "internalType": "address",
              "name": "consumerAddress",
              "type": "address"
            }
          ],
          "name": "removeConsumer",
          "outputs": [],
          "stateMutability": "nonpayable",
          "type": "function"
        },
        {
          "inputs": [],
          "name": "requestRandomWords",
          "outputs": [],
          "stateMutability": "nonpayable",
          "type": "function"
        },
        {
          "inputs": [
            {
              "internalType": "uint256",
              "name": "",
              "type": "uint256"
            }
          ],
          "name": "s_randomWords",
          "outputs": [
            {
              "internalType": "uint256",
              "name": "",
              "type": "uint256"
            }
          ],
          "stateMutability": "view",
          "type": "function"
        },
        {
          "inputs": [],
          "name": "s_requestId",
          "outputs": [
            {
              "internalType": "uint256",
              "name": "",
              "type": "uint256"
            }
          ],
          "stateMutability": "view",
          "type": "function"
        },
        {
          "inputs": [
            {
              "internalType": "uint256",
              "name": "amount",
              "type": "uint256"
            }
          ],
          "name": "topUpSubscription",
          "outputs": [],
          "stateMutability": "nonpayable",
          "type": "function"
        },
        {
          "inputs": [
            {
              "internalType": "uint256",
              "name": "amount",
              "type": "uint256"
            },
            {
              "internalType": "address",
              "name": "to",
              "type": "address"
            }
          ],
          "name": "withdraw",
          "outputs": [],
          "stateMutability": "nonpayable",
          "type": "function"
        }
      ],
      "evm": {
        "bytecode": {
          "linkReferences": {},
          "object": "60a0604052600280546001600160a01b0319908116736a2aad07396b36fe02a22b33cf443582f682c82f17909155600380549091167384b9b910527ad5c03a9ca831909e21e236ea7b061790557fd4bb89654db74673a187bd804519e65e3f71a52bc55f11da7601a13dcf5053146004556005805466020003000186a06001600160501b031990911617905534801561009757600080fd5b506002546001600160a01b039081166080819052600080546001600160a01b03199081169092179055600354600180548316919093161790915560088054909116331790556100e46100e9565b61023b565b6008546001600160a01b0316331461010057600080fd5b60008054906101000a90046001600160a01b03166001600160a01b031663a21a23e46040518163ffffffff1660e01b81526004016020604051808303816000875af1158015610153573d6000803e3d6000fd5b505050506040513d601f19601f82011682018060405250810190610177919061020b565b60018054600160a01b600160e01b031916600160a01b6001600160401b0393841681029190911791829055600054604051631cd0704360e21b81529190920490921660048301523060248301526001600160a01b031690637341c10c90604401600060405180830381600087803b1580156101f157600080fd5b505af1158015610205573d6000803e3d6000fd5b50505050565b60006020828403121561021d57600080fd5b81516001600160401b038116811461023457600080fd5b9392505050565b608051610a5b61025d600039600081816102da015261031c0152610a5b6000f3fe608060405234801561001057600080fd5b506004361061008d5760003560e01c8062f714ce146100925780630e27e3df146100a7578063112940f9146100ba5780631fe543e3146100cd5780636fd700bb146100e057806386850e93146100f357806393d81d5814610106578063e0c8628914610119578063e89e106a14610121578063f6eaffc81461013c575b600080fd5b6100a56100a03660046107c9565b61014f565b005b6100a56100b53660046107f5565b6101e2565b6100a56100c83660046107f5565b610273565b6100a56100db36600461082d565b6102cf565b6100a56100ee3660046108f6565b61035b565b6100a56101013660046108f6565b6104d3565b6100a56101143660046107f5565b61059a565b6100a561063e565b61012a60075481565b60405190815260200160405180910390f35b61012a61014a3660046108f6565b610704565b6008546001600160a01b0316331461016657600080fd5b60015460405163a9059cbb60e01b81526001600160a01b038381166004830152602482018590529091169063a9059cbb906044016020604051808303816000875af11580156101b9573d6000803e3d6000fd5b505050506040513d601f19601f820116820180604052508101906101dd919061090f565b505050565b6008546001600160a01b031633146101f957600080fd5b600054600154604051639f87fad760e01b81526001600160a01b0390921691639f87fad79161023e91600160a01b9091046001600160401b0316908590600401610931565b600060405180830381600087803b15801561025857600080fd5b505af115801561026c573d6000803e3d6000fd5b5050505050565b6008546001600160a01b0316331461028a57600080fd5b600054600154604051631cd0704360e21b81526001600160a01b0390921691637341c10c9161023e91600160a01b9091046001600160401b0316908590600401610931565b336001600160a01b037f0000000000000000000000000000000000000000000000000000000000000000161461034d5760405163073e64fd60e21b81523360048201526001600160a01b037f000000000000000000000000000000000000000000000000000000000000000016602482015260440160405180910390fd5b6103578282610725565b5050565b6008546001600160a01b0316331461037257600080fd5b6001546000546040516001600160a01b0380841693634000aea093919091169185916103b291600160a01b9091046001600160401b031690602001610953565b6040516020818303038152906040526040518463ffffffff1660e01b81526004016103df93929190610967565b6020604051808303816000875af11580156103fe573d6000803e3d6000fd5b505050506040513d601f19601f82011682018060405250810190610422919061090f565b50600054600480546001546005546040516305d3b1d360e41b81526001600160a01b0390951694635d3b1d309461048a9493600160a01b90046001600160401b031692600160201b810461ffff169263ffffffff80831693600160301b9093041691016109d3565b6020604051808303816000875af11580156104a9573d6000803e3d6000fd5b505050506040513d601f19601f820116820180604052508101906104cd9190610a0c565b60075550565b6008546001600160a01b031633146104ea57600080fd5b6001546000546040516001600160a01b0380841693634000aea0939190911691859161052a91600160a01b9091046001600160401b031690602001610953565b6040516020818303038152906040526040518463ffffffff1660e01b815260040161055793929190610967565b6020604051808303816000875af1158015610576573d6000803e3d6000fd5b505050506040513d601f19601f82011682018060405250810190610357919061090f565b6008546001600160a01b031633146105b157600080fd5b600054600154604051630d7ae1d360e41b81526001600160a01b039092169163d7ae1d30916105f691600160a01b9091046001600160401b0316908590600401610931565b600060405180830381600087803b15801561061057600080fd5b505af1158015610624573d6000803e3d6000fd5b505060018054600160a01b600160e01b0319169055505050565b6008546001600160a01b0316331461065557600080fd5b600054600480546001546005546040516305d3b1d360e41b81526001600160a01b0390951694635d3b1d30946106bc9493600160a01b90046001600160401b031692600160201b810461ffff169263ffffffff80831693600160301b9093041691016109d3565b6020604051808303816000875af11580156106db573d6000803e3d6000fd5b505050506040513d601f19601f820116820180604052508101906106ff9190610a0c565b600755565b6006818154811061071457600080fd5b600091825260209091200154905081565b80516006805482825560008290526101dd927ff652222313e28459528d920b65115c16c04f3efc82aaedc97be59f3f377c0d3f91820191602086018215610788579160200282015b8281111561078857825182559160200191906001019061076d565b50610794929150610798565b5090565b5b808211156107945760008155600101610799565b80356001600160a01b03811681146107c457600080fd5b919050565b600080604083850312156107dc57600080fd5b823591506107ec602084016107ad565b90509250929050565b60006020828403121561080757600080fd5b610810826107ad565b9392505050565b634e487b7160e01b600052604160045260246000fd5b6000806040838503121561084057600080fd5b823591506020808401356001600160401b038082111561085f57600080fd5b818601915086601f83011261087357600080fd5b81358181111561088557610885610817565b8060051b604051601f19603f830116810181811085821117156108aa576108aa610817565b6040529182528482019250838101850191898311156108c857600080fd5b938501935b828510156108e6578435845293850193928501926108cd565b8096505050505050509250929050565b60006020828403121561090857600080fd5b5035919050565b60006020828403121561092157600080fd5b8151801515811461081057600080fd5b6001600160401b039290921682526001600160a01b0316602082015260400190565b6001600160401b0391909116815260200190565b60018060a01b038416815260006020848184015260606040840152835180606085015260005b818110156109a95785810183015185820160800152820161098d565b818111156109bb576000608083870101525b50601f01601f19169290920160800195945050505050565b9485526001600160401b0393909316602085015261ffff91909116604084015263ffffffff908116606084015216608082015260a00190565b600060208284031215610a1e57600080fd5b505191905056fea26469706673582212206a31e74dfe22f8b5d60cc0dee80b9d4f4fa103b7a4d3fde41749bf393d1521b964736f6c634300080f0033",
          "opcodes": "PUSH1 0xA0 PUSH1 0x40 MSTORE PUSH1 0x2 DUP1 SLOAD PUSH1 0x1 PUSH1 0x1 PUSH1 0xA0 SHL SUB NOT SWAP1 DUP2 AND PUSH20 0x6A2AAD07396B36FE02A22B33CF443582F682C82F OR SWAP1 SWAP2 SSTORE PUSH1 0x3 DUP1 SLOAD SWAP1 SWAP2 AND PUSH20 0x84B9B910527AD5C03A9CA831909E21E236EA7B06 OR SWAP1 SSTORE PUSH32 0xD4BB89654DB74673A187BD804519E65E3F71A52BC55F11DA7601A13DCF505314 PUSH1 0x4 SSTORE PUSH1 0x5 DUP1 SLOAD PUSH7 0x20003000186A0 PUSH1 0x1 PUSH1 0x1 PUSH1 0x50 SHL SUB NOT SWAP1 SWAP2 AND OR SWAP1 SSTORE CALLVALUE DUP1 ISZERO PUSH2 0x97 JUMPI PUSH1 0x0 DUP1 REVERT JUMPDEST POP PUSH1 0x2 SLOAD PUSH1 0x1 PUSH1 0x1 PUSH1 0xA0 SHL SUB SWAP1 DUP2 AND PUSH1 0x80 DUP2 SWAP1 MSTORE PUSH1 0x0 DUP1 SLOAD PUSH1 0x1 PUSH1 0x1 PUSH1 0xA0 SHL SUB NOT SWAP1 DUP2 AND SWAP1 SWAP3 OR SWAP1 SSTORE PUSH1 0x3 SLOAD PUSH1 0x1 DUP1 SLOAD DUP4 AND SWAP2 SWAP1 SWAP4 AND OR SWAP1 SWAP2 SSTORE PUSH1 0x8 DUP1 SLOAD SWAP1 SWAP2 AND CALLER OR SWAP1 SSTORE PUSH2 0xE4 PUSH2 0xE9 JUMP JUMPDEST PUSH2 0x23B JUMP JUMPDEST PUSH1 0x8 SLOAD PUSH1 0x1 PUSH1 0x1 PUSH1 0xA0 SHL SUB AND CALLER EQ PUSH2 0x100 JUMPI PUSH1 0x0 DUP1 REVERT JUMPDEST PUSH1 0x0 DUP1 SLOAD SWAP1 PUSH2 0x100 EXP SWAP1 DIV PUSH1 0x1 PUSH1 0x1 PUSH1 0xA0 SHL SUB AND PUSH1 0x1 PUSH1 0x1 PUSH1 0xA0 SHL SUB AND PUSH4 0xA21A23E4 PUSH1 0x40 MLOAD DUP2 PUSH4 0xFFFFFFFF AND PUSH1 0xE0 SHL DUP2 MSTORE PUSH1 0x4 ADD PUSH1 0x20 PUSH1 0x40 MLOAD DUP1 DUP4 SUB DUP2 PUSH1 0x0 DUP8 GAS CALL ISZERO DUP1 ISZERO PUSH2 0x153 JUMPI RETURNDATASIZE PUSH1 0x0 DUP1 RETURNDATACOPY RETURNDATASIZE PUSH1 0x0 REVERT JUMPDEST POP POP POP POP PUSH1 0x40 MLOAD RETURNDATASIZE PUSH1 0x1F NOT PUSH1 0x1F DUP3 ADD AND DUP3 ADD DUP1 PUSH1 0x40 MSTORE POP DUP2 ADD SWAP1 PUSH2 0x177 SWAP2 SWAP1 PUSH2 0x20B JUMP JUMPDEST PUSH1 0x1 DUP1 SLOAD PUSH1 0x1 PUSH1 0xA0 SHL PUSH1 0x1 PUSH1 0xE0 SHL SUB NOT AND PUSH1 0x1 PUSH1 0xA0 SHL PUSH1 0x1 PUSH1 0x1 PUSH1 0x40 SHL SUB SWAP4 DUP5 AND DUP2 MUL SWAP2 SWAP1 SWAP2 OR SWAP2 DUP3 SWAP1 SSTORE PUSH1 0x0 SLOAD PUSH1 0x40 MLOAD PUSH4 0x1CD07043 PUSH1 0xE2 SHL DUP2 MSTORE SWAP2 SWAP1 SWAP3 DIV SWAP1 SWAP3 AND PUSH1 0x4 DUP4 ADD MSTORE ADDRESS PUSH1 0x24 DUP4 ADD MSTORE PUSH1 0x1 PUSH1 0x1 PUSH1 0xA0 SHL SUB AND SWAP1 PUSH4 0x7341C10C SWAP1 PUSH1 0x44 ADD PUSH1 0x0 PUSH1 0x40 MLOAD DUP1 DUP4 SUB DUP2 PUSH1 0x0 DUP8 DUP1 EXTCODESIZE ISZERO DUP1 ISZERO PUSH2 0x1F1 JUMPI PUSH1 0x0 DUP1 REVERT JUMPDEST POP GAS CALL ISZERO DUP1 ISZERO PUSH2 0x205 JUMPI RETURNDATASIZE PUSH1 0x0 DUP1 RETURNDATACOPY RETURNDATASIZE PUSH1 0x0 REVERT JUMPDEST POP POP POP POP JUMP JUMPDEST PUSH1 0x0 PUSH1 0x20 DUP3 DUP5 SUB SLT ISZERO PUSH2 0x21D JUMPI PUSH1 0x0 DUP1 REVERT JUMPDEST DUP2 MLOAD PUSH1 0x1 PUSH1 0x1 PUSH1 0x40 SHL SUB DUP2 AND DUP2 EQ PUSH2 0x234 JUMPI PUSH1 0x0 DUP1 REVERT JUMPDEST SWAP4 SWAP3 POP POP POP JUMP JUMPDEST PUSH1 0x80 MLOAD PUSH2 0xA5B PUSH2 0x25D PUSH1 0x0 CODECOPY PUSH1 0x0 DUP2 DUP2 PUSH2 0x2DA ADD MSTORE PUSH2 0x31C ADD MSTORE PUSH2 0xA5B PUSH1 0x0 RETURN INVALID PUSH1 0x80 PUSH1 0x40 MSTORE CALLVALUE DUP1 ISZERO PUSH2 0x10 JUMPI PUSH1 0x0 DUP1 REVERT JUMPDEST POP PUSH1 0x4 CALLDATASIZE LT PUSH2 0x8D JUMPI PUSH1 0x0 CALLDATALOAD PUSH1 0xE0 SHR DUP1 PUSH3 0xF714CE EQ PUSH2 0x92 JUMPI DUP1 PUSH4 0xE27E3DF EQ PUSH2 0xA7 JUMPI DUP1 PUSH4 0x112940F9 EQ PUSH2 0xBA JUMPI DUP1 PUSH4 0x1FE543E3 EQ PUSH2 0xCD JUMPI DUP1 PUSH4 0x6FD700BB EQ PUSH2 0xE0 JUMPI DUP1 PUSH4 0x86850E93 EQ PUSH2 0xF3 JUMPI DUP1 PUSH4 0x93D81D58 EQ PUSH2 0x106 JUMPI DUP1 PUSH4 0xE0C86289 EQ PUSH2 0x119 JUMPI DUP1 PUSH4 0xE89E106A EQ PUSH2 0x121 JUMPI DUP1 PUSH4 0xF6EAFFC8 EQ PUSH2 0x13C JUMPI JUMPDEST PUSH1 0x0 DUP1 REVERT JUMPDEST PUSH2 0xA5 PUSH2 0xA0 CALLDATASIZE PUSH1 0x4 PUSH2 0x7C9 JUMP JUMPDEST PUSH2 0x14F JUMP JUMPDEST STOP JUMPDEST PUSH2 0xA5 PUSH2 0xB5 CALLDATASIZE PUSH1 0x4 PUSH2 0x7F5 JUMP JUMPDEST PUSH2 0x1E2 JUMP JUMPDEST PUSH2 0xA5 PUSH2 0xC8 CALLDATASIZE PUSH1 0x4 PUSH2 0x7F5 JUMP JUMPDEST PUSH2 0x273 JUMP JUMPDEST PUSH2 0xA5 PUSH2 0xDB CALLDATASIZE PUSH1 0x4 PUSH2 0x82D JUMP JUMPDEST PUSH2 0x2CF JUMP JUMPDEST PUSH2 0xA5 PUSH2 0xEE CALLDATASIZE PUSH1 0x4 PUSH2 0x8F6 JUMP JUMPDEST PUSH2 0x35B JUMP JUMPDEST PUSH2 0xA5 PUSH2 0x101 CALLDATASIZE PUSH1 0x4 PUSH2 0x8F6 JUMP JUMPDEST PUSH2 0x4D3 JUMP JUMPDEST PUSH2 0xA5 PUSH2 0x114 CALLDATASIZE PUSH1 0x4 PUSH2 0x7F5 JUMP JUMPDEST PUSH2 0x59A JUMP JUMPDEST PUSH2 0xA5 PUSH2 0x63E JUMP JUMPDEST PUSH2 0x12A PUSH1 0x7 SLOAD DUP2 JUMP JUMPDEST PUSH1 0x40 MLOAD SWAP1 DUP2 MSTORE PUSH1 0x20 ADD PUSH1 0x40 MLOAD DUP1 SWAP2 SUB SWAP1 RETURN JUMPDEST PUSH2 0x12A PUSH2 0x14A CALLDATASIZE PUSH1 0x4 PUSH2 0x8F6 JUMP JUMPDEST PUSH2 0x704 JUMP JUMPDEST PUSH1 0x8 SLOAD PUSH1 0x1 PUSH1 0x1 PUSH1 0xA0 SHL SUB AND CALLER EQ PUSH2 0x166 JUMPI PUSH1 0x0 DUP1 REVERT JUMPDEST PUSH1 0x1 SLOAD PUSH1 0x40 MLOAD PUSH4 0xA9059CBB PUSH1 0xE0 SHL DUP2 MSTORE PUSH1 0x1 PUSH1 0x1 PUSH1 0xA0 SHL SUB DUP4 DUP2 AND PUSH1 0x4 DUP4 ADD MSTORE PUSH1 0x24 DUP3 ADD DUP6 SWAP1 MSTORE SWAP1 SWAP2 AND SWAP1 PUSH4 0xA9059CBB SWAP1 PUSH1 0x44 ADD PUSH1 0x20 PUSH1 0x40 MLOAD DUP1 DUP4 SUB DUP2 PUSH1 0x0 DUP8 GAS CALL ISZERO DUP1 ISZERO PUSH2 0x1B9 JUMPI RETURNDATASIZE PUSH1 0x0 DUP1 RETURNDATACOPY RETURNDATASIZE PUSH1 0x0 REVERT JUMPDEST POP POP POP POP PUSH1 0x40 MLOAD RETURNDATASIZE PUSH1 0x1F NOT PUSH1 0x1F DUP3 ADD AND DUP3 ADD DUP1 PUSH1 0x40 MSTORE POP DUP2 ADD SWAP1 PUSH2 0x1DD SWAP2 SWAP1 PUSH2 0x90F JUMP JUMPDEST POP POP POP JUMP JUMPDEST PUSH1 0x8 SLOAD PUSH1 0x1 PUSH1 0x1 PUSH1 0xA0 SHL SUB AND CALLER EQ PUSH2 0x1F9 JUMPI PUSH1 0x0 DUP1 REVERT JUMPDEST PUSH1 0x0 SLOAD PUSH1 0x1 SLOAD PUSH1 0x40 MLOAD PUSH4 0x9F87FAD7 PUSH1 0xE0 SHL DUP2 MSTORE PUSH1 0x1 PUSH1 0x1 PUSH1 0xA0 SHL SUB SWAP1 SWAP3 AND SWAP2 PUSH4 0x9F87FAD7 SWAP2 PUSH2 0x23E SWAP2 PUSH1 0x1 PUSH1 0xA0 SHL SWAP1 SWAP2 DIV PUSH1 0x1 PUSH1 0x1 PUSH1 0x40 SHL SUB AND SWAP1 DUP6 SWAP1 PUSH1 0x4 ADD PUSH2 0x931 JUMP JUMPDEST PUSH1 0x0 PUSH1 0x40 MLOAD DUP1 DUP4 SUB DUP2 PUSH1 0x0 DUP8 DUP1 EXTCODESIZE ISZERO DUP1 ISZERO PUSH2 0x258 JUMPI PUSH1 0x0 DUP1 REVERT JUMPDEST POP GAS CALL ISZERO DUP1 ISZERO PUSH2 0x26C JUMPI RETURNDATASIZE PUSH1 0x0 DUP1 RETURNDATACOPY RETURNDATASIZE PUSH1 0x0 REVERT JUMPDEST POP POP POP POP POP JUMP JUMPDEST PUSH1 0x8 SLOAD PUSH1 0x1 PUSH1 0x1 PUSH1 0xA0 SHL SUB AND CALLER EQ PUSH2 0x28A JUMPI PUSH1 0x0 DUP1 REVERT JUMPDEST PUSH1 0x0 SLOAD PUSH1 0x1 SLOAD PUSH1 0x40 MLOAD PUSH4 0x1CD07043 PUSH1 0xE2 SHL DUP2 MSTORE PUSH1 0x1 PUSH1 0x1 PUSH1 0xA0 SHL SUB SWAP1 SWAP3 AND SWAP2 PUSH4 0x7341C10C SWAP2 PUSH2 0x23E SWAP2 PUSH1 0x1 PUSH1 0xA0 SHL SWAP1 SWAP2 DIV PUSH1 0x1 PUSH1 0x1 PUSH1 0x40 SHL SUB AND SWAP1 DUP6 SWAP1 PUSH1 0x4 ADD PUSH2 0x931 JUMP JUMPDEST CALLER PUSH1 0x1 PUSH1 0x1 PUSH1 0xA0 SHL SUB PUSH32 0x0 AND EQ PUSH2 0x34D JUMPI PUSH1 0x40 MLOAD PUSH4 0x73E64FD PUSH1 0xE2 SHL DUP2 MSTORE CALLER PUSH1 0x4 DUP3 ADD MSTORE PUSH1 0x1 PUSH1 0x1 PUSH1 0xA0 SHL SUB PUSH32 0x0 AND PUSH1 0x24 DUP3 ADD MSTORE PUSH1 0x44 ADD PUSH1 0x40 MLOAD DUP1 SWAP2 SUB SWAP1 REVERT JUMPDEST PUSH2 0x357 DUP3 DUP3 PUSH2 0x725 JUMP JUMPDEST POP POP JUMP JUMPDEST PUSH1 0x8 SLOAD PUSH1 0x1 PUSH1 0x1 PUSH1 0xA0 SHL SUB AND CALLER EQ PUSH2 0x372 JUMPI PUSH1 0x0 DUP1 REVERT JUMPDEST PUSH1 0x1 SLOAD PUSH1 0x0 SLOAD PUSH1 0x40 MLOAD PUSH1 0x1 PUSH1 0x1 PUSH1 0xA0 SHL SUB DUP1 DUP5 AND SWAP4 PUSH4 0x4000AEA0 SWAP4 SWAP2 SWAP1 SWAP2 AND SWAP2 DUP6 SWAP2 PUSH2 0x3B2 SWAP2 PUSH1 0x1 PUSH1 0xA0 SHL SWAP1 SWAP2 DIV PUSH1 0x1 PUSH1 0x1 PUSH1 0x40 SHL SUB AND SWAP1 PUSH1 0x20 ADD PUSH2 0x953 JUMP JUMPDEST PUSH1 0x40 MLOAD PUSH1 0x20 DUP2 DUP4 SUB SUB DUP2 MSTORE SWAP1 PUSH1 0x40 MSTORE PUSH1 0x40 MLOAD DUP5 PUSH4 0xFFFFFFFF AND PUSH1 0xE0 SHL DUP2 MSTORE PUSH1 0x4 ADD PUSH2 0x3DF SWAP4 SWAP3 SWAP2 SWAP1 PUSH2 0x967 JUMP JUMPDEST PUSH1 0x20 PUSH1 0x40 MLOAD DUP1 DUP4 SUB DUP2 PUSH1 0x0 DUP8 GAS CALL ISZERO DUP1 ISZERO PUSH2 0x3FE JUMPI RETURNDATASIZE PUSH1 0x0 DUP1 RETURNDATACOPY RETURNDATASIZE PUSH1 0x0 REVERT JUMPDEST POP POP POP POP PUSH1 0x40 MLOAD RETURNDATASIZE PUSH1 0x1F NOT PUSH1 0x1F DUP3 ADD AND DUP3 ADD DUP1 PUSH1 0x40 MSTORE POP DUP2 ADD SWAP1 PUSH2 0x422 SWAP2 SWAP1 PUSH2 0x90F JUMP JUMPDEST POP PUSH1 0x0 SLOAD PUSH1 0x4 DUP1 SLOAD PUSH1 0x1 SLOAD PUSH1 0x5 SLOAD PUSH1 0x40 MLOAD PUSH4 0x5D3B1D3 PUSH1 0xE4 SHL DUP2 MSTORE PUSH1 0x1 PUSH1 0x1 PUSH1 0xA0 SHL SUB SWAP1 SWAP6 AND SWAP5 PUSH4 0x5D3B1D30 SWAP5 PUSH2 0x48A SWAP5 SWAP4 PUSH1 0x1 PUSH1 0xA0 SHL SWAP1 DIV PUSH1 0x1 PUSH1 0x1 PUSH1 0x40 SHL SUB AND SWAP3 PUSH1 0x1 PUSH1 0x20 SHL DUP2 DIV PUSH2 0xFFFF AND SWAP3 PUSH4 0xFFFFFFFF DUP1 DUP4 AND SWAP4 PUSH1 0x1 PUSH1 0x30 SHL SWAP1 SWAP4 DIV AND SWAP2 ADD PUSH2 0x9D3 JUMP JUMPDEST PUSH1 0x20 PUSH1 0x40 MLOAD DUP1 DUP4 SUB DUP2 PUSH1 0x0 DUP8 GAS CALL ISZERO DUP1 ISZERO PUSH2 0x4A9 JUMPI RETURNDATASIZE PUSH1 0x0 DUP1 RETURNDATACOPY RETURNDATASIZE PUSH1 0x0 REVERT JUMPDEST POP POP POP POP PUSH1 0x40 MLOAD RETURNDATASIZE PUSH1 0x1F NOT PUSH1 0x1F DUP3 ADD AND DUP3 ADD DUP1 PUSH1 0x40 MSTORE POP DUP2 ADD SWAP1 PUSH2 0x4CD SWAP2 SWAP1 PUSH2 0xA0C JUMP JUMPDEST PUSH1 0x7 SSTORE POP JUMP JUMPDEST PUSH1 0x8 SLOAD PUSH1 0x1 PUSH1 0x1 PUSH1 0xA0 SHL SUB AND CALLER EQ PUSH2 0x4EA JUMPI PUSH1 0x0 DUP1 REVERT JUMPDEST PUSH1 0x1 SLOAD PUSH1 0x0 SLOAD PUSH1 0x40 MLOAD PUSH1 0x1 PUSH1 0x1 PUSH1 0xA0 SHL SUB DUP1 DUP5 AND SWAP4 PUSH4 0x4000AEA0 SWAP4 SWAP2 SWAP1 SWAP2 AND SWAP2 DUP6 SWAP2 PUSH2 0x52A SWAP2 PUSH1 0x1 PUSH1 0xA0 SHL SWAP1 SWAP2 DIV PUSH1 0x1 PUSH1 0x1 PUSH1 0x40 SHL SUB AND SWAP1 PUSH1 0x20 ADD PUSH2 0x953 JUMP JUMPDEST PUSH1 0x40 MLOAD PUSH1 0x20 DUP2 DUP4 SUB SUB DUP2 MSTORE SWAP1 PUSH1 0x40 MSTORE PUSH1 0x40 MLOAD DUP5 PUSH4 0xFFFFFFFF AND PUSH1 0xE0 SHL DUP2 MSTORE PUSH1 0x4 ADD PUSH2 0x557 SWAP4 SWAP3 SWAP2 SWAP1 PUSH2 0x967 JUMP JUMPDEST PUSH1 0x20 PUSH1 0x40 MLOAD DUP1 DUP4 SUB DUP2 PUSH1 0x0 DUP8 GAS CALL ISZERO DUP1 ISZERO PUSH2 0x576 JUMPI RETURNDATASIZE PUSH1 0x0 DUP1 RETURNDATACOPY RETURNDATASIZE PUSH1 0x0 REVERT JUMPDEST POP POP POP POP PUSH1 0x40 MLOAD RETURNDATASIZE PUSH1 0x1F NOT PUSH1 0x1F DUP3 ADD AND DUP3 ADD DUP1 PUSH1 0x40 MSTORE POP DUP2 ADD SWAP1 PUSH2 0x357 SWAP2 SWAP1 PUSH2 0x90F JUMP JUMPDEST PUSH1 0x8 SLOAD PUSH1 0x1 PUSH1 0x1 PUSH1 0xA0 SHL SUB AND CALLER EQ PUSH2 0x5B1 JUMPI PUSH1 0x0 DUP1 REVERT JUMPDEST PUSH1 0x0 SLOAD PUSH1 0x1 SLOAD PUSH1 0x40 MLOAD PUSH4 0xD7AE1D3 PUSH1 0xE4 SHL DUP2 MSTORE PUSH1 0x1 PUSH1 0x1 PUSH1 0xA0 SHL SUB SWAP1 SWAP3 AND SWAP2 PUSH4 0xD7AE1D30 SWAP2 PUSH2 0x5F6 SWAP2 PUSH1 0x1 PUSH1 0xA0 SHL SWAP1 SWAP2 DIV PUSH1 0x1 PUSH1 0x1 PUSH1 0x40 SHL SUB AND SWAP1 DUP6 SWAP1 PUSH1 0x4 ADD PUSH2 0x931 JUMP JUMPDEST PUSH1 0x0 PUSH1 0x40 MLOAD DUP1 DUP4 SUB DUP2 PUSH1 0x0 DUP8 DUP1 EXTCODESIZE ISZERO DUP1 ISZERO PUSH2 0x610 JUMPI PUSH1 0x0 DUP1 REVERT JUMPDEST POP GAS CALL ISZERO DUP1 ISZERO PUSH2 0x624 JUMPI RETURNDATASIZE PUSH1 0x0 DUP1 RETURNDATACOPY RETURNDATASIZE PUSH1 0x0 REVERT JUMPDEST POP POP PUSH1 0x1 DUP1 SLOAD PUSH1 0x1 PUSH1 0xA0 SHL PUSH1 0x1 PUSH1 0xE0 SHL SUB NOT AND SWAP1 SSTORE POP POP POP JUMP JUMPDEST PUSH1 0x8 SLOAD PUSH1 0x1 PUSH1 0x1 PUSH1 0xA0 SHL SUB AND CALLER EQ PUSH2 0x655 JUMPI PUSH1 0x0 DUP1 REVERT JUMPDEST PUSH1 0x0 SLOAD PUSH1 0x4 DUP1 SLOAD PUSH1 0x1 SLOAD PUSH1 0x5 SLOAD PUSH1 0x40 MLOAD PUSH4 0x5D3B1D3 PUSH1 0xE4 SHL DUP2 MSTORE PUSH1 0x1 PUSH1 0x1 PUSH1 0xA0 SHL SUB SWAP1 SWAP6 AND SWAP5 PUSH4 0x5D3B1D30 SWAP5 PUSH2 0x6BC SWAP5 SWAP4 PUSH1 0x1 PUSH1 0xA0 SHL SWAP1 DIV PUSH1 0x1 PUSH1 0x1 PUSH1 0x40 SHL SUB AND SWAP3 PUSH1 0x1 PUSH1 0x20 SHL DUP2 DIV PUSH2 0xFFFF AND SWAP3 PUSH4 0xFFFFFFFF DUP1 DUP4 AND SWAP4 PUSH1 0x1 PUSH1 0x30 SHL SWAP1 SWAP4 DIV AND SWAP2 ADD PUSH2 0x9D3 JUMP JUMPDEST PUSH1 0x20 PUSH1 0x40 MLOAD DUP1 DUP4 SUB DUP2 PUSH1 0x0 DUP8 GAS CALL ISZERO DUP1 ISZERO PUSH2 0x6DB JUMPI RETURNDATASIZE PUSH1 0x0 DUP1 RETURNDATACOPY RETURNDATASIZE PUSH1 0x0 REVERT JUMPDEST POP POP POP POP PUSH1 0x40 MLOAD RETURNDATASIZE PUSH1 0x1F NOT PUSH1 0x1F DUP3 ADD AND DUP3 ADD DUP1 PUSH1 0x40 MSTORE POP DUP2 ADD SWAP1 PUSH2 0x6FF SWAP2 SWAP1 PUSH2 0xA0C JUMP JUMPDEST PUSH1 0x7 SSTORE JUMP JUMPDEST PUSH1 0x6 DUP2 DUP2 SLOAD DUP2 LT PUSH2 0x714 JUMPI PUSH1 0x0 DUP1 REVERT JUMPDEST PUSH1 0x0 SWAP2 DUP3 MSTORE PUSH1 0x20 SWAP1 SWAP2 KECCAK256 ADD SLOAD SWAP1 POP DUP2 JUMP JUMPDEST DUP1 MLOAD PUSH1 0x6 DUP1 SLOAD DUP3 DUP3 SSTORE PUSH1 0x0 DUP3 SWAP1 MSTORE PUSH2 0x1DD SWAP3 PUSH32 0xF652222313E28459528D920B65115C16C04F3EFC82AAEDC97BE59F3F377C0D3F SWAP2 DUP3 ADD SWAP2 PUSH1 0x20 DUP7 ADD DUP3 ISZERO PUSH2 0x788 JUMPI SWAP2 PUSH1 0x20 MUL DUP3 ADD JUMPDEST DUP3 DUP2 GT ISZERO PUSH2 0x788 JUMPI DUP3 MLOAD DUP3 SSTORE SWAP2 PUSH1 0x20 ADD SWAP2 SWAP1 PUSH1 0x1 ADD SWAP1 PUSH2 0x76D JUMP JUMPDEST POP PUSH2 0x794 SWAP3 SWAP2 POP PUSH2 0x798 JUMP JUMPDEST POP SWAP1 JUMP JUMPDEST JUMPDEST DUP1 DUP3 GT ISZERO PUSH2 0x794 JUMPI PUSH1 0x0 DUP2 SSTORE PUSH1 0x1 ADD PUSH2 0x799 JUMP JUMPDEST DUP1 CALLDATALOAD PUSH1 0x1 PUSH1 0x1 PUSH1 0xA0 SHL SUB DUP2 AND DUP2 EQ PUSH2 0x7C4 JUMPI PUSH1 0x0 DUP1 REVERT JUMPDEST SWAP2 SWAP1 POP JUMP JUMPDEST PUSH1 0x0 DUP1 PUSH1 0x40 DUP4 DUP6 SUB SLT ISZERO PUSH2 0x7DC JUMPI PUSH1 0x0 DUP1 REVERT JUMPDEST DUP3 CALLDATALOAD SWAP2 POP PUSH2 0x7EC PUSH1 0x20 DUP5 ADD PUSH2 0x7AD JUMP JUMPDEST SWAP1 POP SWAP3 POP SWAP3 SWAP1 POP JUMP JUMPDEST PUSH1 0x0 PUSH1 0x20 DUP3 DUP5 SUB SLT ISZERO PUSH2 0x807 JUMPI PUSH1 0x0 DUP1 REVERT JUMPDEST PUSH2 0x810 DUP3 PUSH2 0x7AD JUMP JUMPDEST SWAP4 SWAP3 POP POP POP JUMP JUMPDEST PUSH4 0x4E487B71 PUSH1 0xE0 SHL PUSH1 0x0 MSTORE PUSH1 0x41 PUSH1 0x4 MSTORE PUSH1 0x24 PUSH1 0x0 REVERT JUMPDEST PUSH1 0x0 DUP1 PUSH1 0x40 DUP4 DUP6 SUB SLT ISZERO PUSH2 0x840 JUMPI PUSH1 0x0 DUP1 REVERT JUMPDEST DUP3 CALLDATALOAD SWAP2 POP PUSH1 0x20 DUP1 DUP5 ADD CALLDATALOAD PUSH1 0x1 PUSH1 0x1 PUSH1 0x40 SHL SUB DUP1 DUP3 GT ISZERO PUSH2 0x85F JUMPI PUSH1 0x0 DUP1 REVERT JUMPDEST DUP2 DUP7 ADD SWAP2 POP DUP7 PUSH1 0x1F DUP4 ADD SLT PUSH2 0x873 JUMPI PUSH1 0x0 DUP1 REVERT JUMPDEST DUP2 CALLDATALOAD DUP2 DUP2 GT ISZERO PUSH2 0x885 JUMPI PUSH2 0x885 PUSH2 0x817 JUMP JUMPDEST DUP1 PUSH1 0x5 SHL PUSH1 0x40 MLOAD PUSH1 0x1F NOT PUSH1 0x3F DUP4 ADD AND DUP2 ADD DUP2 DUP2 LT DUP6 DUP3 GT OR ISZERO PUSH2 0x8AA JUMPI PUSH2 0x8AA PUSH2 0x817 JUMP JUMPDEST PUSH1 0x40 MSTORE SWAP2 DUP3 MSTORE DUP5 DUP3 ADD SWAP3 POP DUP4 DUP2 ADD DUP6 ADD SWAP2 DUP10 DUP4 GT ISZERO PUSH2 0x8C8 JUMPI PUSH1 0x0 DUP1 REVERT JUMPDEST SWAP4 DUP6 ADD SWAP4 JUMPDEST DUP3 DUP6 LT ISZERO PUSH2 0x8E6 JUMPI DUP5 CALLDATALOAD DUP5 MSTORE SWAP4 DUP6 ADD SWAP4 SWAP3 DUP6 ADD SWAP3 PUSH2 0x8CD JUMP JUMPDEST DUP1 SWAP7 POP POP POP POP POP POP POP SWAP3 POP SWAP3 SWAP1 POP JUMP JUMPDEST PUSH1 0x0 PUSH1 0x20 DUP3 DUP5 SUB SLT ISZERO PUSH2 0x908 JUMPI PUSH1 0x0 DUP1 REVERT JUMPDEST POP CALLDATALOAD SWAP2 SWAP1 POP JUMP JUMPDEST PUSH1 0x0 PUSH1 0x20 DUP3 DUP5 SUB SLT ISZERO PUSH2 0x921 JUMPI PUSH1 0x0 DUP1 REVERT JUMPDEST DUP2 MLOAD DUP1 ISZERO ISZERO DUP2 EQ PUSH2 0x810 JUMPI PUSH1 0x0 DUP1 REVERT JUMPDEST PUSH1 0x1 PUSH1 0x1 PUSH1 0x40 SHL SUB SWAP3 SWAP1 SWAP3 AND DUP3 MSTORE PUSH1 0x1 PUSH1 0x1 PUSH1 0xA0 SHL SUB AND PUSH1 0x20 DUP3 ADD MSTORE PUSH1 0x40 ADD SWAP1 JUMP JUMPDEST PUSH1 0x1 PUSH1 0x1 PUSH1 0x40 SHL SUB SWAP2 SWAP1 SWAP2 AND DUP2 MSTORE PUSH1 0x20 ADD SWAP1 JUMP JUMPDEST PUSH1 0x1 DUP1 PUSH1 0xA0 SHL SUB DUP5 AND DUP2 MSTORE PUSH1 0x0 PUSH1 0x20 DUP5 DUP2 DUP5 ADD MSTORE PUSH1 0x60 PUSH1 0x40 DUP5 ADD MSTORE DUP4 MLOAD DUP1 PUSH1 0x60 DUP6 ADD MSTORE PUSH1 0x0 JUMPDEST DUP2 DUP2 LT ISZERO PUSH2 0x9A9 JUMPI DUP6 DUP2 ADD DUP4 ADD MLOAD DUP6 DUP3 ADD PUSH1 0x80 ADD MSTORE DUP3 ADD PUSH2 0x98D JUMP JUMPDEST DUP2 DUP2 GT ISZERO PUSH2 0x9BB JUMPI PUSH1 0x0 PUSH1 0x80 DUP4 DUP8 ADD ADD MSTORE JUMPDEST POP PUSH1 0x1F ADD PUSH1 0x1F NOT AND SWAP3 SWAP1 SWAP3 ADD PUSH1 0x80 ADD SWAP6 SWAP5 POP POP POP POP POP JUMP JUMPDEST SWAP5 DUP6 MSTORE PUSH1 0x1 PUSH1 0x1 PUSH1 0x40 SHL SUB SWAP4 SWAP1 SWAP4 AND PUSH1 0x20 DUP6 ADD MSTORE PUSH2 0xFFFF SWAP2 SWAP1 SWAP2 AND PUSH1 0x40 DUP5 ADD MSTORE PUSH4 0xFFFFFFFF SWAP1 DUP2 AND PUSH1 0x60 DUP5 ADD MSTORE AND PUSH1 0x80 DUP3 ADD MSTORE PUSH1 0xA0 ADD SWAP1 JUMP JUMPDEST PUSH1 0x0 PUSH1 0x20 DUP3 DUP5 SUB SLT ISZERO PUSH2 0xA1E JUMPI PUSH1 0x0 DUP1 REVERT JUMPDEST POP MLOAD SWAP2 SWAP1 POP JUMP INVALID LOG2 PUSH5 0x6970667358 0x22 SLT KECCAK256 PUSH11 0x31E74DFE22F8B5D60CC0DE 0xE8 SIGNEXTEND SWAP14 0x4F 0x4F LOG1 SUB 0xB7 LOG4 0xD3 REVERT 0xE4 OR 0x49 0xBF CODECOPY RETURNDATASIZE ISZERO 0x21 0xB9 PUSH5 0x736F6C6343 STOP ADDMOD 0xF STOP CALLER "
        },
        "methodIdentifiers": {
          "addConsumer(address)": "112940f9",
          "cancelSubscription(address)": "93d81d58",
          "fundAndRequestRandomWords(uint256)": "6fd700bb",
          "rawFulfillRandomWords(uint256,uint256[])": "1fe543e3",
          "removeConsumer(address)": "0e27e3df",
          "requestRandomWords()": "e0c86289",
          "s_randomWords(uint256)": "f6eaffc8",
          "s_requestId()": "e89e106a",
          "topUpSubscription(uint256)": "86850e93",
          "withdraw(uint256,address)": "00f714ce"
        }
      },
      "storageLayout": {
        "storage": [
          {
            "astId": 1297,
            "contract": "contracts/VRFv2Consumer.sol:VRFv2Consumer",
            "label": "COORDINATOR",
            "offset": 0,
            "slot": "0",
            "type": "t_contract(VRFCoordinatorV2Interface)241"
          },
          {
            "astId": 1300,
            "contract": "contracts/VRFv2Consumer.sol:VRFv2Consumer",
            "label": "LINKTOKEN",
            "offset": 0,
            "slot": "1",
            "type": "t_contract(LinkTokenInterface)152"
          },
          {
            "astId": 1302,
            "contract": "contracts/VRFv2Consumer.sol:VRFv2Consumer",
            "label": "s_subscriptionId",
            "offset": 20,
            "slot": "1",
            "type": "t_uint64"
          },
          {
            "astId": 1305,
            "contract": "contracts/VRFv2Consumer.sol:VRFv2Consumer",
            "label": "vrfCoordinator",
            "offset": 0,
            "slot": "2",
            "type": "t_address"
          },
          {
            "astId": 1308,
            "contract": "contracts/VRFv2Consumer.sol:VRFv2Consumer",
            "label": "link_token_contract",
            "offset": 0,
            "slot": "3",
            "type": "t_address"
          },
          {
            "astId": 1311,
            "contract": "contracts/VRFv2Consumer.sol:VRFv2Consumer",
            "label": "keyHash",
            "offset": 0,
            "slot": "4",
            "type": "t_bytes32"
          },
          {
            "astId": 1314,
            "contract": "contracts/VRFv2Consumer.sol:VRFv2Consumer",
            "label": "callbackGasLimit",
            "offset": 0,
            "slot": "5",
            "type": "t_uint32"
          },
          {
            "astId": 1317,
            "contract": "contracts/VRFv2Consumer.sol:VRFv2Consumer",
            "label": "requestConfirmations",
            "offset": 4,
            "slot": "5",
            "type": "t_uint16"
          },
          {
            "astId": 1320,
            "contract": "contracts/VRFv2Consumer.sol:VRFv2Consumer",
            "label": "numWords",
            "offset": 6,
            "slot": "5",
            "type": "t_uint32"
          },
          {
            "astId": 1323,
            "contract": "contracts/VRFv2Consumer.sol:VRFv2Consumer",
            "label": "s_randomWords",
            "offset": 0,
            "slot": "6",
            "type": "t_array(t_uint256)dyn_storage"
          },
          {
            "astId": 1325,
            "contract": "contracts/VRFv2Consumer.sol:VRFv2Consumer",
            "label": "s_requestId",
            "offset": 0,
            "slot": "7",
            "type": "t_uint256"
          },
          {
            "astId": 1327,
            "contract": "contracts/VRFv2Consumer.sol:VRFv2Consumer",
            "label": "s_owner",
            "offset": 0,
            "slot": "8",
            "type": "t_address"
          }
        ],
        "types": {
          "t_address": {
            "encoding": "inplace",
            "label": "address",
            "numberOfBytes": "20"
          },
          "t_array(t_uint256)dyn_storage": {
            "base": "t_uint256",
            "encoding": "dynamic_array",
            "label": "uint256[]",
            "numberOfBytes": "32"
          },
          "t_bytes32": {
            "encoding": "inplace",
            "label": "bytes32",
            "numberOfBytes": "32"
          },
          "t_contract(LinkTokenInterface)152": {
            "encoding": "inplace",
            "label": "contract LinkTokenInterface",
            "numberOfBytes": "20"
          },
          "t_contract(VRFCoordinatorV2Interface)241": {
            "encoding": "inplace",
            "label": "contract VRFCoordinatorV2Interface",
            "numberOfBytes": "20"
          },
          "t_uint16": {
            "encoding": "inplace",
            "label": "uint16",
            "numberOfBytes": "2"
          },
          "t_uint256": {
            "encoding": "inplace",
            "label": "uint256",
            "numberOfBytes": "32"
          },
          "t_uint32": {
            "encoding": "inplace",
            "label": "uint32",
            "numberOfBytes": "4"
          },
          "t_uint64": {
            "encoding": "inplace",
            "label": "uint64",
            "numberOfBytes": "8"
          }
        }
      }
    }
  }
}