{
  "contracts/CoinFlip.sol": {
    "CoinFlip": {
      "abi": [
        {
          "inputs": [
            {
              "internalType": "address",
              "name": "tykheLuckyOracleAddress",
              "type": "address"
            }
          ],
          "stateMutability": "nonpayable",
          "type": "constructor"
        },
        {
          "stateMutability": "payable",
          "type": "fallback"
        },
        {
          "inputs": [
            {
              "internalType": "bool",
              "name": "bet",
              "type": "bool"
            },
            {
              "internalType": "uint256",
              "name": "mode",
              "type": "uint256"
            }
          ],
          "name": "flipCoin",
          "outputs": [],
          "stateMutability": "payable",
          "type": "function"
        },
        {
          "inputs": [],
          "name": "getLastFlips",
          "outputs": [
            {
              "components": [
                {
                  "internalType": "address",
                  "name": "user",
                  "type": "address"
                },
                {
                  "internalType": "uint256",
                  "name": "timestamp",
                  "type": "uint256"
                },
                {
                  "internalType": "uint256",
                  "name": "flipNumber",
                  "type": "uint256"
                },
                {
                  "internalType": "bool",
                  "name": "flipResult",
                  "type": "bool"
                }
              ],
              "internalType": "struct Flip[]",
              "name": "",
              "type": "tuple[]"
            }
          ],
          "stateMutability": "view",
          "type": "function"
        },
        {
          "inputs": [
            {
              "internalType": "uint256",
              "name": "",
              "type": "uint256"
            }
          ],
          "name": "usersFlips",
          "outputs": [
            {
              "internalType": "address",
              "name": "user",
              "type": "address"
            },
            {
              "internalType": "uint256",
              "name": "timestamp",
              "type": "uint256"
            },
            {
              "internalType": "uint256",
              "name": "flipNumber",
              "type": "uint256"
            },
            {
              "internalType": "bool",
              "name": "flipResult",
              "type": "bool"
            }
          ],
          "stateMutability": "view",
          "type": "function"
        },
        {
          "stateMutability": "payable",
          "type": "receive"
        }
      ],
      "evm": {
        "bytecode": {
          "linkReferences": {},
          "object": "608060405234801561001057600080fd5b506040516106da3803806106da83398101604081905261002f91610059565b6000600255600380546001600160a01b0319166001600160a01b0392909216919091179055610089565b60006020828403121561006b57600080fd5b81516001600160a01b038116811461008257600080fd5b9392505050565b610642806100986000396000f3fe6080604052600436106100355760003560e01c80630c9975971461003e578063a0f0a1e314610051578063b97229b9146100d457005b3661003c57005b005b61003c61004c366004610486565b6100f6565b34801561005d57600080fd5b506100a361006c3660046104b7565b600160208190526000918252604090912080549181015460028201546003909201546001600160a01b039093169290919060ff1684565b604080516001600160a01b039095168552602085019390935291830152151560608201526080015b60405180910390f35b3480156100e057600080fd5b506100e9610380565b6040516100cb91906104d0565b66b1a2bc2ec500006000829003610115575066b1a2bc2ec500006101c4565b8160010361012c575067016345785d8a00006101c4565b8160020361014357506703782dace9d900006101c4565b8160030361015a57506706f05b59d3b200006101c4565b816004036101715750670de0b6b3a76400006101c4565b816005036101885750671bc16d674ec800006101c4565b60405162461bcd60e51b815260206004820152600c60248201526b696e76616c6964206d6f646560a01b60448201526064015b60405180910390fd5b803410156102015760405162461bcd60e51b815260206004820152600a602482015269131bddc8185b5bdd5b9d60b21b60448201526064016101bb565b600354604080516376b783c960e11b815290516000926001600160a01b03169163ed6f07929160048083019260209291908290030181865afa15801561024b573d6000803e3d6000fd5b505050506040513d601f19601f8201168201806040525081019061026f919061053f565b90506000841561028c57610284600283610558565b15905061029c565b610297600283610558565b151590505b60408051608081018252338152426020820152908101839052811515606082015260028054600191906000906102d3908490610590565b909155505060028054600090815260016020818152604092839020855181546001600160a01b0319166001600160a01b039091161781559085015191810191909155908301519181019190915560608201516003909101805460ff1916911515919091179055811561037857336108fc61034e3460026105a8565b6040518115909202916000818181858888f19350505050158015610376573d6000803e3d6000fd5b505b505050505050565b606060006002546001600160401b0381111561039e5761039e6105c7565b6040519080825280602002602001820160405280156103f057816020015b6040805160808101825260008082526020808301829052928201819052606082015282526000199092019101816103bc5790505b50905060005b60025481101561048057600081815260016020818152604092839020835160808101855281546001600160a01b03168152928101549183019190915260028101549282019290925260039091015460ff16151560608201528251839083908110610462576104626105dd565b60200260200101819052508080610478906105f3565b9150506103f6565b50919050565b6000806040838503121561049957600080fd5b823580151581146104a957600080fd5b946020939093013593505050565b6000602082840312156104c957600080fd5b5035919050565b602080825282518282018190526000919060409081850190868401855b8281101561053257815180516001600160a01b0316855286810151878601528581015186860152606090810151151590850152608090930192908501906001016104ed565b5091979650505050505050565b60006020828403121561055157600080fd5b5051919050565b60008261057557634e487b7160e01b600052601260045260246000fd5b500690565b634e487b7160e01b600052601160045260246000fd5b600082198211156105a3576105a361057a565b500190565b60008160001904831182151516156105c2576105c261057a565b500290565b634e487b7160e01b600052604160045260246000fd5b634e487b7160e01b600052603260045260246000fd5b6000600182016106055761060561057a565b506001019056fea2646970667358221220bd13f8c0bd9a7f733b5e6cf3cc0d9995f1787d1d51103d9e933225dd4491686664736f6c634300080f0033",
          "opcodes": "PUSH1 0x80 PUSH1 0x40 MSTORE CALLVALUE DUP1 ISZERO PUSH2 0x10 JUMPI PUSH1 0x0 DUP1 REVERT JUMPDEST POP PUSH1 0x40 MLOAD PUSH2 0x6DA CODESIZE SUB DUP1 PUSH2 0x6DA DUP4 CODECOPY DUP2 ADD PUSH1 0x40 DUP2 SWAP1 MSTORE PUSH2 0x2F SWAP2 PUSH2 0x59 JUMP JUMPDEST PUSH1 0x0 PUSH1 0x2 SSTORE PUSH1 0x3 DUP1 SLOAD PUSH1 0x1 PUSH1 0x1 PUSH1 0xA0 SHL SUB NOT AND PUSH1 0x1 PUSH1 0x1 PUSH1 0xA0 SHL SUB SWAP3 SWAP1 SWAP3 AND SWAP2 SWAP1 SWAP2 OR SWAP1 SSTORE PUSH2 0x89 JUMP JUMPDEST PUSH1 0x0 PUSH1 0x20 DUP3 DUP5 SUB SLT ISZERO PUSH2 0x6B JUMPI PUSH1 0x0 DUP1 REVERT JUMPDEST DUP2 MLOAD PUSH1 0x1 PUSH1 0x1 PUSH1 0xA0 SHL SUB DUP2 AND DUP2 EQ PUSH2 0x82 JUMPI PUSH1 0x0 DUP1 REVERT JUMPDEST SWAP4 SWAP3 POP POP POP JUMP JUMPDEST PUSH2 0x642 DUP1 PUSH2 0x98 PUSH1 0x0 CODECOPY PUSH1 0x0 RETURN INVALID PUSH1 0x80 PUSH1 0x40 MSTORE PUSH1 0x4 CALLDATASIZE LT PUSH2 0x35 JUMPI PUSH1 0x0 CALLDATALOAD PUSH1 0xE0 SHR DUP1 PUSH4 0xC997597 EQ PUSH2 0x3E JUMPI DUP1 PUSH4 0xA0F0A1E3 EQ PUSH2 0x51 JUMPI DUP1 PUSH4 0xB97229B9 EQ PUSH2 0xD4 JUMPI STOP JUMPDEST CALLDATASIZE PUSH2 0x3C JUMPI STOP JUMPDEST STOP JUMPDEST PUSH2 0x3C PUSH2 0x4C CALLDATASIZE PUSH1 0x4 PUSH2 0x486 JUMP JUMPDEST PUSH2 0xF6 JUMP JUMPDEST CALLVALUE DUP1 ISZERO PUSH2 0x5D JUMPI PUSH1 0x0 DUP1 REVERT JUMPDEST POP PUSH2 0xA3 PUSH2 0x6C CALLDATASIZE PUSH1 0x4 PUSH2 0x4B7 JUMP JUMPDEST PUSH1 0x1 PUSH1 0x20 DUP2 SWAP1 MSTORE PUSH1 0x0 SWAP2 DUP3 MSTORE PUSH1 0x40 SWAP1 SWAP2 KECCAK256 DUP1 SLOAD SWAP2 DUP2 ADD SLOAD PUSH1 0x2 DUP3 ADD SLOAD PUSH1 0x3 SWAP1 SWAP3 ADD SLOAD PUSH1 0x1 PUSH1 0x1 PUSH1 0xA0 SHL SUB SWAP1 SWAP4 AND SWAP3 SWAP1 SWAP2 SWAP1 PUSH1 0xFF AND DUP5 JUMP JUMPDEST PUSH1 0x40 DUP1 MLOAD PUSH1 0x1 PUSH1 0x1 PUSH1 0xA0 SHL SUB SWAP1 SWAP6 AND DUP6 MSTORE PUSH1 0x20 DUP6 ADD SWAP4 SWAP1 SWAP4 MSTORE SWAP2 DUP4 ADD MSTORE ISZERO ISZERO PUSH1 0x60 DUP3 ADD MSTORE PUSH1 0x80 ADD JUMPDEST PUSH1 0x40 MLOAD DUP1 SWAP2 SUB SWAP1 RETURN JUMPDEST CALLVALUE DUP1 ISZERO PUSH2 0xE0 JUMPI PUSH1 0x0 DUP1 REVERT JUMPDEST POP PUSH2 0xE9 PUSH2 0x380 JUMP JUMPDEST PUSH1 0x40 MLOAD PUSH2 0xCB SWAP2 SWAP1 PUSH2 0x4D0 JUMP JUMPDEST PUSH7 0xB1A2BC2EC50000 PUSH1 0x0 DUP3 SWAP1 SUB PUSH2 0x115 JUMPI POP PUSH7 0xB1A2BC2EC50000 PUSH2 0x1C4 JUMP JUMPDEST DUP2 PUSH1 0x1 SUB PUSH2 0x12C JUMPI POP PUSH8 0x16345785D8A0000 PUSH2 0x1C4 JUMP JUMPDEST DUP2 PUSH1 0x2 SUB PUSH2 0x143 JUMPI POP PUSH8 0x3782DACE9D90000 PUSH2 0x1C4 JUMP JUMPDEST DUP2 PUSH1 0x3 SUB PUSH2 0x15A JUMPI POP PUSH8 0x6F05B59D3B20000 PUSH2 0x1C4 JUMP JUMPDEST DUP2 PUSH1 0x4 SUB PUSH2 0x171 JUMPI POP PUSH8 0xDE0B6B3A7640000 PUSH2 0x1C4 JUMP JUMPDEST DUP2 PUSH1 0x5 SUB PUSH2 0x188 JUMPI POP PUSH8 0x1BC16D674EC80000 PUSH2 0x1C4 JUMP JUMPDEST PUSH1 0x40 MLOAD PUSH3 0x461BCD PUSH1 0xE5 SHL DUP2 MSTORE PUSH1 0x20 PUSH1 0x4 DUP3 ADD MSTORE PUSH1 0xC PUSH1 0x24 DUP3 ADD MSTORE PUSH12 0x696E76616C6964206D6F6465 PUSH1 0xA0 SHL PUSH1 0x44 DUP3 ADD MSTORE PUSH1 0x64 ADD JUMPDEST PUSH1 0x40 MLOAD DUP1 SWAP2 SUB SWAP1 REVERT JUMPDEST DUP1 CALLVALUE LT ISZERO PUSH2 0x201 JUMPI PUSH1 0x40 MLOAD PUSH3 0x461BCD PUSH1 0xE5 SHL DUP2 MSTORE PUSH1 0x20 PUSH1 0x4 DUP3 ADD MSTORE PUSH1 0xA PUSH1 0x24 DUP3 ADD MSTORE PUSH10 0x131BDDC8185B5BDD5B9D PUSH1 0xB2 SHL PUSH1 0x44 DUP3 ADD MSTORE PUSH1 0x64 ADD PUSH2 0x1BB JUMP JUMPDEST PUSH1 0x3 SLOAD PUSH1 0x40 DUP1 MLOAD PUSH4 0x76B783C9 PUSH1 0xE1 SHL DUP2 MSTORE SWAP1 MLOAD PUSH1 0x0 SWAP3 PUSH1 0x1 PUSH1 0x1 PUSH1 0xA0 SHL SUB AND SWAP2 PUSH4 0xED6F0792 SWAP2 PUSH1 0x4 DUP1 DUP4 ADD SWAP3 PUSH1 0x20 SWAP3 SWAP2 SWAP1 DUP3 SWAP1 SUB ADD DUP2 DUP7 GAS STATICCALL ISZERO DUP1 ISZERO PUSH2 0x24B JUMPI RETURNDATASIZE PUSH1 0x0 DUP1 RETURNDATACOPY RETURNDATASIZE PUSH1 0x0 REVERT JUMPDEST POP POP POP POP PUSH1 0x40 MLOAD RETURNDATASIZE PUSH1 0x1F NOT PUSH1 0x1F DUP3 ADD AND DUP3 ADD DUP1 PUSH1 0x40 MSTORE POP DUP2 ADD SWAP1 PUSH2 0x26F SWAP2 SWAP1 PUSH2 0x53F JUMP JUMPDEST SWAP1 POP PUSH1 0x0 DUP5 ISZERO PUSH2 0x28C JUMPI PUSH2 0x284 PUSH1 0x2 DUP4 PUSH2 0x558 JUMP JUMPDEST ISZERO SWAP1 POP PUSH2 0x29C JUMP JUMPDEST PUSH2 0x297 PUSH1 0x2 DUP4 PUSH2 0x558 JUMP JUMPDEST ISZERO ISZERO SWAP1 POP JUMPDEST PUSH1 0x40 DUP1 MLOAD PUSH1 0x80 DUP2 ADD DUP3 MSTORE CALLER DUP2 MSTORE TIMESTAMP PUSH1 0x20 DUP3 ADD MSTORE SWAP1 DUP2 ADD DUP4 SWAP1 MSTORE DUP2 ISZERO ISZERO PUSH1 0x60 DUP3 ADD MSTORE PUSH1 0x2 DUP1 SLOAD PUSH1 0x1 SWAP2 SWAP1 PUSH1 0x0 SWAP1 PUSH2 0x2D3 SWAP1 DUP5 SWAP1 PUSH2 0x590 JUMP JUMPDEST SWAP1 SWAP2 SSTORE POP POP PUSH1 0x2 DUP1 SLOAD PUSH1 0x0 SWAP1 DUP2 MSTORE PUSH1 0x1 PUSH1 0x20 DUP2 DUP2 MSTORE PUSH1 0x40 SWAP3 DUP4 SWAP1 KECCAK256 DUP6 MLOAD DUP2 SLOAD PUSH1 0x1 PUSH1 0x1 PUSH1 0xA0 SHL SUB NOT AND PUSH1 0x1 PUSH1 0x1 PUSH1 0xA0 SHL SUB SWAP1 SWAP2 AND OR DUP2 SSTORE SWAP1 DUP6 ADD MLOAD SWAP2 DUP2 ADD SWAP2 SWAP1 SWAP2 SSTORE SWAP1 DUP4 ADD MLOAD SWAP2 DUP2 ADD SWAP2 SWAP1 SWAP2 SSTORE PUSH1 0x60 DUP3 ADD MLOAD PUSH1 0x3 SWAP1 SWAP2 ADD DUP1 SLOAD PUSH1 0xFF NOT AND SWAP2 ISZERO ISZERO SWAP2 SWAP1 SWAP2 OR SWAP1 SSTORE DUP2 ISZERO PUSH2 0x378 JUMPI CALLER PUSH2 0x8FC PUSH2 0x34E CALLVALUE PUSH1 0x2 PUSH2 0x5A8 JUMP JUMPDEST PUSH1 0x40 MLOAD DUP2 ISZERO SWAP1 SWAP3 MUL SWAP2 PUSH1 0x0 DUP2 DUP2 DUP2 DUP6 DUP9 DUP9 CALL SWAP4 POP POP POP POP ISZERO DUP1 ISZERO PUSH2 0x376 JUMPI RETURNDATASIZE PUSH1 0x0 DUP1 RETURNDATACOPY RETURNDATASIZE PUSH1 0x0 REVERT JUMPDEST POP JUMPDEST POP POP POP POP POP POP JUMP JUMPDEST PUSH1 0x60 PUSH1 0x0 PUSH1 0x2 SLOAD PUSH1 0x1 PUSH1 0x1 PUSH1 0x40 SHL SUB DUP2 GT ISZERO PUSH2 0x39E JUMPI PUSH2 0x39E PUSH2 0x5C7 JUMP JUMPDEST PUSH1 0x40 MLOAD SWAP1 DUP1 DUP3 MSTORE DUP1 PUSH1 0x20 MUL PUSH1 0x20 ADD DUP3 ADD PUSH1 0x40 MSTORE DUP1 ISZERO PUSH2 0x3F0 JUMPI DUP2 PUSH1 0x20 ADD JUMPDEST PUSH1 0x40 DUP1 MLOAD PUSH1 0x80 DUP2 ADD DUP3 MSTORE PUSH1 0x0 DUP1 DUP3 MSTORE PUSH1 0x20 DUP1 DUP4 ADD DUP3 SWAP1 MSTORE SWAP3 DUP3 ADD DUP2 SWAP1 MSTORE PUSH1 0x60 DUP3 ADD MSTORE DUP3 MSTORE PUSH1 0x0 NOT SWAP1 SWAP3 ADD SWAP2 ADD DUP2 PUSH2 0x3BC JUMPI SWAP1 POP JUMPDEST POP SWAP1 POP PUSH1 0x0 JUMPDEST PUSH1 0x2 SLOAD DUP2 LT ISZERO PUSH2 0x480 JUMPI PUSH1 0x0 DUP2 DUP2 MSTORE PUSH1 0x1 PUSH1 0x20 DUP2 DUP2 MSTORE PUSH1 0x40 SWAP3 DUP4 SWAP1 KECCAK256 DUP4 MLOAD PUSH1 0x80 DUP2 ADD DUP6 MSTORE DUP2 SLOAD PUSH1 0x1 PUSH1 0x1 PUSH1 0xA0 SHL SUB AND DUP2 MSTORE SWAP3 DUP2 ADD SLOAD SWAP2 DUP4 ADD SWAP2 SWAP1 SWAP2 MSTORE PUSH1 0x2 DUP2 ADD SLOAD SWAP3 DUP3 ADD SWAP3 SWAP1 SWAP3 MSTORE PUSH1 0x3 SWAP1 SWAP2 ADD SLOAD PUSH1 0xFF AND ISZERO ISZERO PUSH1 0x60 DUP3 ADD MSTORE DUP3 MLOAD DUP4 SWAP1 DUP4 SWAP1 DUP2 LT PUSH2 0x462 JUMPI PUSH2 0x462 PUSH2 0x5DD JUMP JUMPDEST PUSH1 0x20 MUL PUSH1 0x20 ADD ADD DUP2 SWAP1 MSTORE POP DUP1 DUP1 PUSH2 0x478 SWAP1 PUSH2 0x5F3 JUMP JUMPDEST SWAP2 POP POP PUSH2 0x3F6 JUMP JUMPDEST POP SWAP2 SWAP1 POP JUMP JUMPDEST PUSH1 0x0 DUP1 PUSH1 0x40 DUP4 DUP6 SUB SLT ISZERO PUSH2 0x499 JUMPI PUSH1 0x0 DUP1 REVERT JUMPDEST DUP3 CALLDATALOAD DUP1 ISZERO ISZERO DUP2 EQ PUSH2 0x4A9 JUMPI PUSH1 0x0 DUP1 REVERT JUMPDEST SWAP5 PUSH1 0x20 SWAP4 SWAP1 SWAP4 ADD CALLDATALOAD SWAP4 POP POP POP JUMP JUMPDEST PUSH1 0x0 PUSH1 0x20 DUP3 DUP5 SUB SLT ISZERO PUSH2 0x4C9 JUMPI PUSH1 0x0 DUP1 REVERT JUMPDEST POP CALLDATALOAD SWAP2 SWAP1 POP JUMP JUMPDEST PUSH1 0x20 DUP1 DUP3 MSTORE DUP3 MLOAD DUP3 DUP3 ADD DUP2 SWAP1 MSTORE PUSH1 0x0 SWAP2 SWAP1 PUSH1 0x40 SWAP1 DUP2 DUP6 ADD SWAP1 DUP7 DUP5 ADD DUP6 JUMPDEST DUP3 DUP2 LT ISZERO PUSH2 0x532 JUMPI DUP2 MLOAD DUP1 MLOAD PUSH1 0x1 PUSH1 0x1 PUSH1 0xA0 SHL SUB AND DUP6 MSTORE DUP7 DUP2 ADD MLOAD DUP8 DUP7 ADD MSTORE DUP6 DUP2 ADD MLOAD DUP7 DUP7 ADD MSTORE PUSH1 0x60 SWAP1 DUP2 ADD MLOAD ISZERO ISZERO SWAP1 DUP6 ADD MSTORE PUSH1 0x80 SWAP1 SWAP4 ADD SWAP3 SWAP1 DUP6 ADD SWAP1 PUSH1 0x1 ADD PUSH2 0x4ED JUMP JUMPDEST POP SWAP2 SWAP8 SWAP7 POP POP POP POP POP POP POP JUMP JUMPDEST PUSH1 0x0 PUSH1 0x20 DUP3 DUP5 SUB SLT ISZERO PUSH2 0x551 JUMPI PUSH1 0x0 DUP1 REVERT JUMPDEST POP MLOAD SWAP2 SWAP1 POP JUMP JUMPDEST PUSH1 0x0 DUP3 PUSH2 0x575 JUMPI PUSH4 0x4E487B71 PUSH1 0xE0 SHL PUSH1 0x0 MSTORE PUSH1 0x12 PUSH1 0x4 MSTORE PUSH1 0x24 PUSH1 0x0 REVERT JUMPDEST POP MOD SWAP1 JUMP JUMPDEST PUSH4 0x4E487B71 PUSH1 0xE0 SHL PUSH1 0x0 MSTORE PUSH1 0x11 PUSH1 0x4 MSTORE PUSH1 0x24 PUSH1 0x0 REVERT JUMPDEST PUSH1 0x0 DUP3 NOT DUP3 GT ISZERO PUSH2 0x5A3 JUMPI PUSH2 0x5A3 PUSH2 0x57A JUMP JUMPDEST POP ADD SWAP1 JUMP JUMPDEST PUSH1 0x0 DUP2 PUSH1 0x0 NOT DIV DUP4 GT DUP3 ISZERO ISZERO AND ISZERO PUSH2 0x5C2 JUMPI PUSH2 0x5C2 PUSH2 0x57A JUMP JUMPDEST POP MUL SWAP1 JUMP JUMPDEST PUSH4 0x4E487B71 PUSH1 0xE0 SHL PUSH1 0x0 MSTORE PUSH1 0x41 PUSH1 0x4 MSTORE PUSH1 0x24 PUSH1 0x0 REVERT JUMPDEST PUSH4 0x4E487B71 PUSH1 0xE0 SHL PUSH1 0x0 MSTORE PUSH1 0x32 PUSH1 0x4 MSTORE PUSH1 0x24 PUSH1 0x0 REVERT JUMPDEST PUSH1 0x0 PUSH1 0x1 DUP3 ADD PUSH2 0x605 JUMPI PUSH2 0x605 PUSH2 0x57A JUMP JUMPDEST POP PUSH1 0x1 ADD SWAP1 JUMP INVALID LOG2 PUSH5 0x6970667358 0x22 SLT KECCAK256 0xBD SGT 0xF8 0xC0 0xBD SWAP11 PUSH32 0x733B5E6CF3CC0D9995F1787D1D51103D9E933225DD4491686664736F6C634300 ADDMOD 0xF STOP CALLER "
        },
        "methodIdentifiers": {
          "flipCoin(bool,uint256)": "0c997597",
          "getLastFlips()": "b97229b9",
          "usersFlips(uint256)": "a0f0a1e3"
        }
      },
      "storageLayout": {
        "storage": [
          {
            "astId": 257,
            "contract": "contracts/CoinFlip.sol:CoinFlip",
            "label": "s_owner",
            "offset": 0,
            "slot": "0",
            "type": "t_address"
          },
          {
            "astId": 262,
            "contract": "contracts/CoinFlip.sol:CoinFlip",
            "label": "usersFlips",
            "offset": 0,
            "slot": "1",
            "type": "t_mapping(t_uint256,t_struct(Flip)255_storage)"
          },
          {
            "astId": 264,
            "contract": "contracts/CoinFlip.sol:CoinFlip",
            "label": "usersFlipsCounter",
            "offset": 0,
            "slot": "2",
            "type": "t_uint256"
          },
          {
            "astId": 267,
            "contract": "contracts/CoinFlip.sol:CoinFlip",
            "label": "tykheLuckyOracle",
            "offset": 0,
            "slot": "3",
            "type": "t_contract(ITykheLuckyOracle)498"
          }
        ],
        "types": {
          "t_address": {
            "encoding": "inplace",
            "label": "address",
            "numberOfBytes": "20"
          },
          "t_bool": {
            "encoding": "inplace",
            "label": "bool",
            "numberOfBytes": "1"
          },
          "t_contract(ITykheLuckyOracle)498": {
            "encoding": "inplace",
            "label": "contract ITykheLuckyOracle",
            "numberOfBytes": "20"
          },
          "t_mapping(t_uint256,t_struct(Flip)255_storage)": {
            "encoding": "mapping",
            "key": "t_uint256",
            "label": "mapping(uint256 => struct Flip)",
            "numberOfBytes": "32",
            "value": "t_struct(Flip)255_storage"
          },
          "t_struct(Flip)255_storage": {
            "encoding": "inplace",
            "label": "struct Flip",
            "members": [
              {
                "astId": 248,
                "contract": "contracts/CoinFlip.sol:CoinFlip",
                "label": "user",
                "offset": 0,
                "slot": "0",
                "type": "t_address"
              },
              {
                "astId": 250,
                "contract": "contracts/CoinFlip.sol:CoinFlip",
                "label": "timestamp",
                "offset": 0,
                "slot": "1",
                "type": "t_uint256"
              },
              {
                "astId": 252,
                "contract": "contracts/CoinFlip.sol:CoinFlip",
                "label": "flipNumber",
                "offset": 0,
                "slot": "2",
                "type": "t_uint256"
              },
              {
                "astId": 254,
                "contract": "contracts/CoinFlip.sol:CoinFlip",
                "label": "flipResult",
                "offset": 0,
                "slot": "3",
                "type": "t_bool"
              }
            ],
            "numberOfBytes": "128"
          },
          "t_uint256": {
            "encoding": "inplace",
            "label": "uint256",
            "numberOfBytes": "32"
          }
        }
      }
    }
  }
}