{
  "_format": "hh-sol-artifact-1",
  "contractName": "CoinFlip",
  "sourceName": "contracts/CoinFlip.sol",
  "abi": [
    {
      "inputs": [
        {
          "internalType": "uint64",
          "name": "subscriptionId",
          "type": "uint64"
        }
      ],
      "stateMutability": "nonpayable",
      "type": "constructor"
    },
    {
      "inputs": [
        {
          "internalType": "address",
          "name": "have",
          "type": "address"
        },
        {
          "internalType": "address",
          "name": "want",
          "type": "address"
        }
      ],
      "name": "OnlyCoordinatorCanFulfill",
      "type": "error"
    },
    {
      "stateMutability": "payable",
      "type": "fallback"
    },
    {
      "inputs": [
        {
          "internalType": "bool",
          "name": "bet",
          "type": "bool"
        },
        {
          "internalType": "uint256",
          "name": "mode",
          "type": "uint256"
        }
      ],
      "name": "flipCoin",
      "outputs": [],
      "stateMutability": "payable",
      "type": "function"
    },
    {
      "inputs": [],
      "name": "getLastFlips",
      "outputs": [
        {
          "components": [
            {
              "internalType": "address",
              "name": "user",
              "type": "address"
            },
            {
              "internalType": "uint256",
              "name": "timestamp",
              "type": "uint256"
            },
            {
              "internalType": "uint256",
              "name": "flipNumber",
              "type": "uint256"
            },
            {
              "internalType": "bool",
              "name": "flipResult",
              "type": "bool"
            }
          ],
          "internalType": "struct Flip[]",
          "name": "",
          "type": "tuple[]"
        }
      ],
      "stateMutability": "view",
      "type": "function"
    },
    {
      "inputs": [
        {
          "internalType": "uint256",
          "name": "requestId",
          "type": "uint256"
        },
        {
          "internalType": "uint256[]",
          "name": "randomWords",
          "type": "uint256[]"
        }
      ],
      "name": "rawFulfillRandomWords",
      "outputs": [],
      "stateMutability": "nonpayable",
      "type": "function"
    },
    {
      "inputs": [],
      "name": "requestRandomWords",
      "outputs": [],
      "stateMutability": "nonpayable",
      "type": "function"
    },
    {
      "inputs": [
        {
          "internalType": "uint256",
          "name": "",
          "type": "uint256"
        }
      ],
      "name": "s_randomWords",
      "outputs": [
        {
          "internalType": "uint256",
          "name": "",
          "type": "uint256"
        }
      ],
      "stateMutability": "view",
      "type": "function"
    },
    {
      "inputs": [],
      "name": "s_requestId",
      "outputs": [
        {
          "internalType": "uint256",
          "name": "",
          "type": "uint256"
        }
      ],
      "stateMutability": "view",
      "type": "function"
    },
    {
      "inputs": [
        {
          "internalType": "uint256",
          "name": "",
          "type": "uint256"
        }
      ],
      "name": "usersFlips",
      "outputs": [
        {
          "internalType": "address",
          "name": "user",
          "type": "address"
        },
        {
          "internalType": "uint256",
          "name": "timestamp",
          "type": "uint256"
        },
        {
          "internalType": "uint256",
          "name": "flipNumber",
          "type": "uint256"
        },
        {
          "internalType": "bool",
          "name": "flipResult",
          "type": "bool"
        }
      ],
      "stateMutability": "view",
      "type": "function"
    },
    {
      "stateMutability": "payable",
      "type": "receive"
    }
  ],
  "bytecode": "0x60a0604052600180546001600160a01b031916736a2aad07396b36fe02a22b33cf443582f682c82f1790557fd4bb89654db74673a187bd804519e65e3f71a52bc55f11da7601a13dcf5053146002556003805466020003000186a06001600160501b031990911617905534801561007557600080fd5b50604051610a8a380380610a8a833981016040819052610094916100e9565b6001546001600160a01b0316608081905260008054600680546001600160a01b031916331790556001600160401b03909316600160a01b026001600160e01b0319909316909117919091178155600855610119565b6000602082840312156100fb57600080fd5b81516001600160401b038116811461011257600080fd5b9392505050565b60805161094f61013b600039600081816103db015261041d015261094f6000f3fe6080604052600436106100615760003560e01c80630c9975971461006a5780631fe543e31461007d578063a0f0a1e31461009d578063b97229b91461011d578063e0c862891461013f578063e89e106a14610154578063f6eaffc81461017857005b3661006857005b005b6100686100783660046106ca565b610198565b34801561008957600080fd5b50610068610098366004610711565b6103d0565b3480156100a957600080fd5b506100ec6100b83660046107da565b60076020526000908152604090208054600182015460028301546003909301546001600160a01b0390921692909160ff1684565b604080516001600160a01b039095168552602085019390935291830152151560608201526080015b60405180910390f35b34801561012957600080fd5b50610132610458565b60405161011491906107f3565b34801561014b57600080fd5b5061006861055f565b34801561016057600080fd5b5061016a60055481565b604051908152602001610114565b34801561018457600080fd5b5061016a6101933660046107da565b610631565b66b1a2bc2ec5000060008290036101b7575066b1a2bc2ec50000610266565b816001036101ce575067016345785d8a0000610266565b816002036101e557506703782dace9d90000610266565b816003036101fc57506706f05b59d3b20000610266565b816004036102135750670de0b6b3a7640000610266565b8160050361022a5750671bc16d674ec80000610266565b60405162461bcd60e51b815260206004820152600c60248201526b696e76616c6964206d6f646560a01b60448201526064015b60405180910390fd5b803410156102a35760405162461bcd60e51b815260206004820152600a602482015269131bddc8185b5bdd5b9d60b21b604482015260640161025d565b600060046000815481106102b9576102b9610862565b90600052602060002001549050600084156102e1576102d9600283610878565b1590506102f1565b6102ec600283610878565b151590505b60408051608081018252338152426020820152908101839052811515606082015260088054600191906000906103289084906108b0565b9091555050600854600090815260076020908152604091829020835181546001600160a01b0319166001600160a01b0390911617815590830151600182015590820151600282015560608201516003909101805460ff191691151591909117905581156103c857336108fc61039e3460026108c8565b6040518115909202916000818181858888f193505050501580156103c6573d6000803e3d6000fd5b505b505050505050565b336001600160a01b037f0000000000000000000000000000000000000000000000000000000000000000161461044a5760405163073e64fd60e21b81523360048201526001600160a01b037f000000000000000000000000000000000000000000000000000000000000000016602482015260440161025d565b6104548282610652565b5050565b606060006008546001600160401b03811115610476576104766106fb565b6040519080825280602002602001820160405280156104c857816020015b6040805160808101825260008082526020808301829052928201819052606082015282526000199092019101816104945790505b50905060005b60085481101561055957600081815260076020908152604091829020825160808101845281546001600160a01b0316815260018201549281019290925260028101549282019290925260039091015460ff1615156060820152825183908390811061053b5761053b610862565b60200260200101819052508080610551906108e7565b9150506104ce565b50919050565b6006546001600160a01b0316331461057657600080fd5b6000546002546003546040516305d3b1d360e41b81526004810192909252600160a01b83046001600160401b03166024830152600160201b810461ffff16604483015263ffffffff8082166064840152600160301b9091041660848201526001600160a01b0390911690635d3b1d309060a4016020604051808303816000875af1158015610608573d6000803e3d6000fd5b505050506040513d601f19601f8201168201806040525081019061062c9190610900565b600555565b6004818154811061064157600080fd5b600091825260209091200154905081565b805161066590600490602084019061066a565b505050565b8280548282559060005260206000209081019282156106a5579160200282015b828111156106a557825182559160200191906001019061068a565b506106b19291506106b5565b5090565b5b808211156106b157600081556001016106b6565b600080604083850312156106dd57600080fd5b823580151581146106ed57600080fd5b946020939093013593505050565b634e487b7160e01b600052604160045260246000fd5b6000806040838503121561072457600080fd5b823591506020808401356001600160401b038082111561074357600080fd5b818601915086601f83011261075757600080fd5b813581811115610769576107696106fb565b8060051b604051601f19603f8301168101818110858211171561078e5761078e6106fb565b6040529182528482019250838101850191898311156107ac57600080fd5b938501935b828510156107ca578435845293850193928501926107b1565b8096505050505050509250929050565b6000602082840312156107ec57600080fd5b5035919050565b602080825282518282018190526000919060409081850190868401855b8281101561085557815180516001600160a01b031685528681015187860152858101518686015260609081015115159085015260809093019290850190600101610810565b5091979650505050505050565b634e487b7160e01b600052603260045260246000fd5b60008261089557634e487b7160e01b600052601260045260246000fd5b500690565b634e487b7160e01b600052601160045260246000fd5b600082198211156108c3576108c361089a565b500190565b60008160001904831182151516156108e2576108e261089a565b500290565b6000600182016108f9576108f961089a565b5060010190565b60006020828403121561091257600080fd5b505191905056fea264697066735822122015660f8cec5adf54af5232df7ac6d9d443edb237f0fe8e16506e369e9ef0d7a164736f6c634300080f0033",
  "linkReferences": {},
  "deployedLinkReferences": {}
}