{
  "_format": "hh-sol-artifact-1",
  "contractName": "CoinFlip",
  "sourceName": "contracts/CoinFlip.sol",
  "abi": [
    {
      "inputs": [],
      "stateMutability": "nonpayable",
      "type": "constructor"
    },
    {
      "inputs": [
        {
          "internalType": "address",
          "name": "have",
          "type": "address"
        },
        {
          "internalType": "address",
          "name": "want",
          "type": "address"
        }
      ],
      "name": "OnlyCoordinatorCanFulfill",
      "type": "error"
    },
    {
      "stateMutability": "payable",
      "type": "fallback"
    },
    {
      "inputs": [],
      "name": "buyLinkThreshold",
      "outputs": [
        {
          "internalType": "uint256",
          "name": "",
          "type": "uint256"
        }
      ],
      "stateMutability": "view",
      "type": "function"
    },
    {
      "inputs": [],
      "name": "cancelSubscription",
      "outputs": [],
      "stateMutability": "nonpayable",
      "type": "function"
    },
    {
      "inputs": [],
      "name": "dexRouter",
      "outputs": [
        {
          "internalType": "contract IUniswapV2Router02",
          "name": "",
          "type": "address"
        }
      ],
      "stateMutability": "view",
      "type": "function"
    },
    {
      "inputs": [],
      "name": "distributeBnbHoldersThreshold",
      "outputs": [
        {
          "internalType": "uint256",
          "name": "",
          "type": "uint256"
        }
      ],
      "stateMutability": "view",
      "type": "function"
    },
    {
      "inputs": [
        {
          "internalType": "bool",
          "name": "bet",
          "type": "bool"
        },
        {
          "internalType": "uint256",
          "name": "mode",
          "type": "uint256"
        }
      ],
      "name": "flipCoin",
      "outputs": [],
      "stateMutability": "payable",
      "type": "function"
    },
    {
      "inputs": [],
      "name": "fundAndRequestRandomWords",
      "outputs": [],
      "stateMutability": "nonpayable",
      "type": "function"
    },
    {
      "inputs": [],
      "name": "getLinkBalance",
      "outputs": [
        {
          "internalType": "uint256",
          "name": "balance",
          "type": "uint256"
        }
      ],
      "stateMutability": "view",
      "type": "function"
    },
    {
      "inputs": [],
      "name": "getSubscriptionDetails",
      "outputs": [
        {
          "internalType": "uint96",
          "name": "balance",
          "type": "uint96"
        },
        {
          "internalType": "uint64",
          "name": "reqCount",
          "type": "uint64"
        },
        {
          "internalType": "address",
          "name": "owner",
          "type": "address"
        },
        {
          "internalType": "address[]",
          "name": "consumers",
          "type": "address[]"
        }
      ],
      "stateMutability": "view",
      "type": "function"
    },
    {
      "inputs": [],
      "name": "pendingRequestExists",
      "outputs": [
        {
          "internalType": "bool",
          "name": "",
          "type": "bool"
        }
      ],
      "stateMutability": "view",
      "type": "function"
    },
    {
      "inputs": [
        {
          "internalType": "uint256",
          "name": "requestId",
          "type": "uint256"
        },
        {
          "internalType": "uint256[]",
          "name": "randomWords",
          "type": "uint256[]"
        }
      ],
      "name": "rawFulfillRandomWords",
      "outputs": [],
      "stateMutability": "nonpayable",
      "type": "function"
    },
    {
      "inputs": [],
      "name": "requestRandomWords",
      "outputs": [],
      "stateMutability": "nonpayable",
      "type": "function"
    },
    {
      "inputs": [],
      "name": "reserveBnbPercentageForHolders",
      "outputs": [
        {
          "internalType": "uint256",
          "name": "",
          "type": "uint256"
        }
      ],
      "stateMutability": "view",
      "type": "function"
    },
    {
      "inputs": [],
      "name": "reservedBnbForBuyLink",
      "outputs": [
        {
          "internalType": "uint256",
          "name": "",
          "type": "uint256"
        }
      ],
      "stateMutability": "view",
      "type": "function"
    },
    {
      "inputs": [],
      "name": "reservedBnbForBuyLinkPercentage",
      "outputs": [
        {
          "internalType": "uint256",
          "name": "",
          "type": "uint256"
        }
      ],
      "stateMutability": "view",
      "type": "function"
    },
    {
      "inputs": [],
      "name": "reservedBnbHolders",
      "outputs": [
        {
          "internalType": "uint256",
          "name": "",
          "type": "uint256"
        }
      ],
      "stateMutability": "view",
      "type": "function"
    },
    {
      "inputs": [],
      "name": "s_owner",
      "outputs": [
        {
          "internalType": "address",
          "name": "",
          "type": "address"
        }
      ],
      "stateMutability": "view",
      "type": "function"
    },
    {
      "inputs": [
        {
          "internalType": "uint256",
          "name": "",
          "type": "uint256"
        }
      ],
      "name": "s_randomWords",
      "outputs": [
        {
          "internalType": "uint256",
          "name": "",
          "type": "uint256"
        }
      ],
      "stateMutability": "view",
      "type": "function"
    },
    {
      "inputs": [],
      "name": "s_requestId",
      "outputs": [
        {
          "internalType": "uint256",
          "name": "",
          "type": "uint256"
        }
      ],
      "stateMutability": "view",
      "type": "function"
    },
    {
      "inputs": [],
      "name": "topUpSubscription",
      "outputs": [],
      "stateMutability": "nonpayable",
      "type": "function"
    },
    {
      "inputs": [
        {
          "internalType": "uint256",
          "name": "",
          "type": "uint256"
        }
      ],
      "name": "usersFlips",
      "outputs": [
        {
          "internalType": "address",
          "name": "user",
          "type": "address"
        },
        {
          "internalType": "uint256",
          "name": "timestamp",
          "type": "uint256"
        },
        {
          "internalType": "uint256",
          "name": "flipNumber",
          "type": "uint256"
        },
        {
          "internalType": "bool",
          "name": "win",
          "type": "bool"
        }
      ],
      "stateMutability": "view",
      "type": "function"
    },
    {
      "inputs": [],
      "name": "usersFlipsCounter",
      "outputs": [
        {
          "internalType": "uint256",
          "name": "",
          "type": "uint256"
        }
      ],
      "stateMutability": "view",
      "type": "function"
    },
    {
      "inputs": [],
      "name": "withdrawBnb",
      "outputs": [],
      "stateMutability": "nonpayable",
      "type": "function"
    },
    {
      "inputs": [],
      "name": "withdrawLink",
      "outputs": [],
      "stateMutability": "nonpayable",
      "type": "function"
    },
    {
      "inputs": [],
      "name": "wordsIndex",
      "outputs": [
        {
          "internalType": "uint256",
          "name": "",
          "type": "uint256"
        }
      ],
      "stateMutability": "view",
      "type": "function"
    },
    {
      "stateMutability": "payable",
      "type": "receive"
    }
  ],
  "bytecode": "0x60a0604052600280546001600160a01b0319908116736a2aad07396b36fe02a22b33cf443582f682c82f17909155600380549091167384b9b910527ad5c03a9ca831909e21e236ea7b061781557fd4bb89654db74673a187bd804519e65e3f71a52bc55f11da7601a13dcf5053146004556005805466030003000186a06001600160501b031990911617905560006009819055600c819055600d55600a600e55600f5567016345785d8a00006010819055601155348015620000c057600080fd5b506002546001600160a01b039081166080819052600080546001600160a01b03199081169092179055600354600180548316919093161790915560088054909116331790556200010f62000140565b6000600b55601280546001600160a01b031916739ac64cc6e4415144c455bd8e4837fea55603e5c31790556200029a565b6008546001600160a01b031633146200015857600080fd5b60008054906101000a90046001600160a01b03166001600160a01b031663a21a23e46040518163ffffffff1660e01b81526004016020604051808303816000875af1158015620001ac573d6000803e3d6000fd5b505050506040513d601f19601f82011682018060405250810190620001d2919062000268565b60018054600160a01b600160e01b031916600160a01b6001600160401b0393841681029190911791829055600054604051631cd0704360e21b81529190920490921660048301523060248301526001600160a01b031690637341c10c90604401600060405180830381600087803b1580156200024d57600080fd5b505af115801562000262573d6000803e3d6000fd5b50505050565b6000602082840312156200027b57600080fd5b81516001600160401b03811681146200029357600080fd5b9392505050565b6080516116ab620002bd6000396000818161074b015261078d01526116ab6000f3fe60806040526004361061011c5760003560e01c80630758d924146101255780630c9975971461015b5780630d5de6df1461016e5780631da0603a146101935780631fe543e3146101a857806321e71717146101c857806324e9edb0146101ec578063331492ed14610201578063412b07e51461021757806350c5f9751461022d57806352253d581461024257806358ecb16b146102585780636c8ceed51461026d5780637aa51754146102835780638dc654a2146102985780639233ab78146102ad578063a0f0a1e3146102c3578063a3ced7b91461033e578063d627f36314610363578063e0c8628914610379578063e39782401461038e578063e89e106a146103ae578063f6eaffc8146103c4578063fb496fdb146103e457005b3661012357005b005b34801561013157600080fd5b50601254610145906001600160a01b031681565b60405161015291906110d2565b60405180910390f35b6101236101693660046110f4565b6103fa565b34801561017a57600080fd5b50610183610628565b6040516101529493929190611164565b34801561019f57600080fd5b506101236106c6565b3480156101b457600080fd5b506101236101c3366004611219565b610740565b3480156101d457600080fd5b506101de600b5481565b604051908152602001610152565b3480156101f857600080fd5b506101236107c8565b34801561020d57600080fd5b506101de60105481565b34801561022357600080fd5b506101de60115481565b34801561023957600080fd5b506101de61086f565b34801561024e57600080fd5b506101de600f5481565b34801561026457600080fd5b506101236108e6565b34801561027957600080fd5b506101de600d5481565b34801561028f57600080fd5b506101236109c3565b3480156102a457600080fd5b506101236109e4565b3480156102b957600080fd5b506101de600e5481565b3480156102cf57600080fd5b506103126102de3660046112ba565b600a6020526000908152604090208054600182015460028301546003909301546001600160a01b0390921692909160ff1684565b604080516001600160a01b03909516855260208501939093529183015215156060820152608001610152565b34801561034a57600080fd5b50610353610ae8565b6040519015158152602001610152565b34801561036f57600080fd5b506101de60095481565b34801561038557600080fd5b50610123610baf565b34801561039a57600080fd5b50600854610145906001600160a01b031681565b3480156103ba57600080fd5b506101de60075481565b3480156103d057600080fd5b506101de6103df3660046112ba565b610bc6565b3480156103f057600080fd5b506101de600c5481565b600061040582610be7565b9050803410156104495760405162461bcd60e51b815260206004820152600a602482015269131bddc8185b5bdd5b9d60b21b60448201526064015b60405180910390fd5b6000600660095481548110610460576104606112d3565b9060005260206000200154905060008415610488576104806002836112ff565b159050610498565b6104936002836112ff565b151590505b6040805160808101825233815242602080830191825282840186815285151560608501908152600b546000908152600a909352948220845181546001600160a01b0319166001600160a01b039091161781559251600184015551600283015592516003909101805460ff191691151591909117905560098054919261051c83611329565b9091555050600b805490600061053183611329565b919050555060095460020361054d57600060095561054d610905565b60006064600e543461055f9190611342565b6105699190611361565b905060006064600f543461057d9190611342565b6105879190611361565b905081600c600082825461059b9190611375565b9250508190555080600d60008282546105b49190611375565b9091555050601154600c54106105df576105cc610caf565b6105d4610e6a565b6000600c819055600d555b831561061e57336108fc6105f4346002611342565b6040518115909202916000818181858888f1935050505015801561061c573d6000803e3d6000fd5b505b5050505050505050565b6000805460015460405163523e3b4b60e11b8152839283926060926001600160a01b039092169163a47c76969161067391600160a01b9091046001600160401b03169060040161138d565b600060405180830381865afa158015610690573d6000803e3d6000fd5b505050506040513d6000823e601f3d908101601f191682016040526106b891908101906113bd565b935093509350935090919293565b6008546001600160a01b031633146106dd57600080fd5b6008546040516000916001600160a01b03169047908381818185875af1925050503d806000811461072a576040519150601f19603f3d011682016040523d82523d6000602084013e61072f565b606091505b505090508061073d57600080fd5b50565b336001600160a01b037f000000000000000000000000000000000000000000000000000000000000000016146107ba5760405163073e64fd60e21b81523360048201526001600160a01b037f0000000000000000000000000000000000000000000000000000000000000000166024820152604401610440565b6107c48282610fd2565b5050565b6008546001600160a01b031633146107df57600080fd5b600054600154600854604051630d7ae1d360e41b8152600160a01b9092046001600160401b031660048301526001600160a01b0390811660248301529091169063d7ae1d3090604401600060405180830381600087803b15801561084257600080fd5b505af1158015610856573d6000803e3d6000fd5b505060018054600160a01b600160e01b03191690555050565b6001546040516370a0823160e01b81526000916001600160a01b0316906370a08231906108a09030906004016110d2565b602060405180830381865afa1580156108bd573d6000803e3d6000fd5b505050506040513d601f19601f820116820180604052508101906108e191906114a2565b905090565b6008546001600160a01b031633146108fd57600080fd5b610905610e6a565b600054600480546001546005546040516305d3b1d360e41b815293840192909252600160a01b90046001600160401b03166024830152600160201b810461ffff16604483015263ffffffff8082166064840152600160301b9091041660848201526001600160a01b0390911690635d3b1d309060a4016020604051808303816000875af115801561099a573d6000803e3d6000fd5b505050506040513d601f19601f820116820180604052508101906109be91906114a2565b600755565b6008546001600160a01b031633146109da57600080fd5b6109e2610e6a565b565b6008546001600160a01b031633146109fb57600080fd5b6001546008546040516370a0823160e01b81526001600160a01b039283169263a9059cbb92169083906370a0823190610a389030906004016110d2565b602060405180830381865afa158015610a55573d6000803e3d6000fd5b505050506040513d601f19601f82011682018060405250810190610a7991906114a2565b6040516001600160e01b031960e085901b1681526001600160a01b03909216600483015260248201526044016020604051808303816000875af1158015610ac4573d6000803e3d6000fd5b505050506040513d601f19601f8201168201806040525081019061073d91906114bb565b6000805460015460405183926001600160a01b031691610b1c91600160a01b9091046001600160401b03169060240161138d565b60408051601f198184030181529181526020820180516001600160e01b0316633a0ab5f560e21b17905251610b51919061150f565b600060405180830381855afa9150503d8060008114610b8c576040519150601f19603f3d011682016040523d82523d6000602084013e610b91565b606091505b5091505080806020019051810190610ba991906114bb565b91505090565b6008546001600160a01b0316331461090557600080fd5b60068181548110610bd657600080fd5b600091825260209091200154905081565b600080828103610bff575066b1a2bc2ec50000610ca9565b82600103610c16575067016345785d8a0000610ca9565b82600203610c2d57506703782dace9d90000610ca9565b82600303610c4457506706f05b59d3b20000610ca9565b82600403610c5b5750670de0b6b3a7640000610ca9565b82600503610c725750671bc16d674ec80000610ca9565b60405162461bcd60e51b815260206004820152600c60248201526b696e76616c6964206d6f646560a01b6044820152606401610440565b92915050565b6000610d3c601260009054906101000a90046001600160a01b03166001600160a01b031663ad5c46486040518163ffffffff1660e01b8152600401602060405180830381865afa158015610d07573d6000803e3d6000fd5b505050506040513d601f19601f82011682018060405250810190610d2b919061152b565b6003546001600160a01b0316610fe5565b601254600c5460405163d06ca61f60e01b81529293506000926001600160a01b039092169163d06ca61f91610d75918690600401611546565b600060405180830381865afa158015610d92573d6000803e3d6000fd5b505050506040513d6000823e601f3d908101601f19168201604052610dba9190810190611567565b600181518110610dcc57610dcc6112d3565b6020908102919091010151601254600c549192506001600160a01b031690637ff36ab590838530610dff426103e8611375565b6040518663ffffffff1660e01b8152600401610e1e94939291906115f7565b60006040518083038185885af1158015610e3c573d6000803e3d6000fd5b50505050506040513d6000823e601f3d908101601f19168201604052610e659190810190611567565b505050565b6001546040516370a0823160e01b81526000916001600160a01b0316906370a0823190610e9b9030906004016110d2565b602060405180830381865afa158015610eb8573d6000803e3d6000fd5b505050506040513d601f19601f82011682018060405250810190610edc91906114a2565b905060008111610f225760405162461bcd60e51b81526020600482015260116024820152705a65726f206c696e6b2062616c616e636560781b6044820152606401610440565b6001546000546040516001600160a01b0380841693634000aea09391909116918591610f6291600160a01b9091046001600160401b03169060200161138d565b6040516020818303038152906040526040518463ffffffff1660e01b8152600401610f8f9392919061162c565b6020604051808303816000875af1158015610fae573d6000803e3d6000fd5b505050506040513d601f19601f820116820180604052508101906107c491906114bb565b8051610e65906006906020840190611072565b60408051600280825260608083018452926000929190602083019080368337019050509050838160008151811061101e5761101e6112d3565b60200260200101906001600160a01b031690816001600160a01b0316815250508281600181518110611052576110526112d3565b6001600160a01b0390921660209283029190910190910152905092915050565b8280548282559060005260206000209081019282156110ad579160200282015b828111156110ad578251825591602001919060010190611092565b506110b99291506110bd565b5090565b5b808211156110b957600081556001016110be565b6001600160a01b0391909116815260200190565b801515811461073d57600080fd5b6000806040838503121561110757600080fd5b8235611112816110e6565b946020939093013593505050565b600081518084526020808501945080840160005b838110156111595781516001600160a01b031687529582019590820190600101611134565b509495945050505050565b6001600160601b03851681526001600160401b03841660208201526001600160a01b03831660408201526080606082018190526000906111a690830184611120565b9695505050505050565b634e487b7160e01b600052604160045260246000fd5b604051601f8201601f191681016001600160401b03811182821017156111ee576111ee6111b0565b604052919050565b60006001600160401b0382111561120f5761120f6111b0565b5060051b60200190565b6000806040838503121561122c57600080fd5b823591506020808401356001600160401b0381111561124a57600080fd5b8401601f8101861361125b57600080fd5b803561126e611269826111f6565b6111c6565b81815260059190911b8201830190838101908883111561128d57600080fd5b928401925b828410156112ab57833582529284019290840190611292565b80955050505050509250929050565b6000602082840312156112cc57600080fd5b5035919050565b634e487b7160e01b600052603260045260246000fd5b634e487b7160e01b600052601260045260246000fd5b60008261130e5761130e6112e9565b500690565b634e487b7160e01b600052601160045260246000fd5b60006001820161133b5761133b611313565b5060010190565b600081600019048311821515161561135c5761135c611313565b500290565b600082611370576113706112e9565b500490565b6000821982111561138857611388611313565b500190565b6001600160401b0391909116815260200190565b80516001600160a01b03811681146113b857600080fd5b919050565b600080600080608085870312156113d357600080fd5b84516001600160601b03811681146113ea57600080fd5b602086810151919550906001600160401b03808216821461140a57600080fd5b819550611419604089016113a1565b9450606088015191508082111561142f57600080fd5b508601601f8101881361144157600080fd5b805161144f611269826111f6565b81815260059190911b8201830190838101908a83111561146e57600080fd5b928401925b8284101561149357611484846113a1565b82529284019290840190611473565b979a9699509497505050505050565b6000602082840312156114b457600080fd5b5051919050565b6000602082840312156114cd57600080fd5b81516114d8816110e6565b9392505050565b60005b838110156114fa5781810151838201526020016114e2565b83811115611509576000848401525b50505050565b600082516115218184602087016114df565b9190910192915050565b60006020828403121561153d57600080fd5b6114d8826113a1565b82815260406020820152600061155f6040830184611120565b949350505050565b6000602080838503121561157a57600080fd5b82516001600160401b0381111561159057600080fd5b8301601f810185136115a157600080fd5b80516115af611269826111f6565b81815260059190911b820183019083810190878311156115ce57600080fd5b928401925b828410156115ec578351825292840192908401906115d3565b979650505050505050565b8481526080602082015260006116106080830186611120565b6001600160a01b03949094166040830152506060015292915050565b60018060a01b0384168152826020820152606060408201526000825180606084015261165f8160808501602087016114df565b601f01601f19169190910160800194935050505056fea264697066735822122076c9ea7b08509a9f94cc9137dbfeca7b2a8f38bd91112ea6efe3251ec7797ac564736f6c634300080f0033",
  "linkReferences": {},
  "deployedLinkReferences": {}
}