{
  "_format": "hh-sol-artifact-1",
  "contractName": "CoinFlip",
  "sourceName": "contracts/CoinFlip.sol",
  "abi": [
    {
      "inputs": [],
      "stateMutability": "nonpayable",
      "type": "constructor"
    },
    {
      "inputs": [
        {
          "internalType": "address",
          "name": "have",
          "type": "address"
        },
        {
          "internalType": "address",
          "name": "want",
          "type": "address"
        }
      ],
      "name": "OnlyCoordinatorCanFulfill",
      "type": "error"
    },
    {
      "stateMutability": "payable",
      "type": "fallback"
    },
    {
      "inputs": [],
      "name": "cancelSubscription",
      "outputs": [],
      "stateMutability": "nonpayable",
      "type": "function"
    },
    {
      "inputs": [],
      "name": "dexRouter",
      "outputs": [
        {
          "internalType": "contract IUniswapV2Router02",
          "name": "",
          "type": "address"
        }
      ],
      "stateMutability": "view",
      "type": "function"
    },
    {
      "inputs": [
        {
          "internalType": "bool",
          "name": "bet",
          "type": "bool"
        },
        {
          "internalType": "uint256",
          "name": "mode",
          "type": "uint256"
        }
      ],
      "name": "flipCoin",
      "outputs": [],
      "stateMutability": "payable",
      "type": "function"
    },
    {
      "inputs": [],
      "name": "fundAndRequestRandomWords",
      "outputs": [],
      "stateMutability": "nonpayable",
      "type": "function"
    },
    {
      "inputs": [],
      "name": "getLinkBalance",
      "outputs": [
        {
          "internalType": "uint256",
          "name": "balance",
          "type": "uint256"
        }
      ],
      "stateMutability": "view",
      "type": "function"
    },
    {
      "inputs": [],
      "name": "getSubscriptionDetails",
      "outputs": [
        {
          "internalType": "uint96",
          "name": "balance",
          "type": "uint96"
        },
        {
          "internalType": "uint64",
          "name": "reqCount",
          "type": "uint64"
        },
        {
          "internalType": "address",
          "name": "owner",
          "type": "address"
        },
        {
          "internalType": "address[]",
          "name": "consumers",
          "type": "address[]"
        }
      ],
      "stateMutability": "view",
      "type": "function"
    },
    {
      "inputs": [],
      "name": "pendingRequestExists",
      "outputs": [
        {
          "internalType": "bool",
          "name": "",
          "type": "bool"
        }
      ],
      "stateMutability": "view",
      "type": "function"
    },
    {
      "inputs": [
        {
          "internalType": "uint256",
          "name": "requestId",
          "type": "uint256"
        },
        {
          "internalType": "uint256[]",
          "name": "randomWords",
          "type": "uint256[]"
        }
      ],
      "name": "rawFulfillRandomWords",
      "outputs": [],
      "stateMutability": "nonpayable",
      "type": "function"
    },
    {
      "inputs": [],
      "name": "requestRandomWords",
      "outputs": [],
      "stateMutability": "nonpayable",
      "type": "function"
    },
    {
      "inputs": [],
      "name": "reserveBnbPercentageForHolders",
      "outputs": [
        {
          "internalType": "uint256",
          "name": "",
          "type": "uint256"
        }
      ],
      "stateMutability": "view",
      "type": "function"
    },
    {
      "inputs": [],
      "name": "reservedBnbForBuyLink",
      "outputs": [
        {
          "internalType": "uint256",
          "name": "",
          "type": "uint256"
        }
      ],
      "stateMutability": "view",
      "type": "function"
    },
    {
      "inputs": [],
      "name": "reservedBnbForBuyLinkPercentage",
      "outputs": [
        {
          "internalType": "uint256",
          "name": "",
          "type": "uint256"
        }
      ],
      "stateMutability": "view",
      "type": "function"
    },
    {
      "inputs": [],
      "name": "reservedBnbHolders",
      "outputs": [
        {
          "internalType": "uint256",
          "name": "",
          "type": "uint256"
        }
      ],
      "stateMutability": "view",
      "type": "function"
    },
    {
      "inputs": [],
      "name": "s_owner",
      "outputs": [
        {
          "internalType": "address",
          "name": "",
          "type": "address"
        }
      ],
      "stateMutability": "view",
      "type": "function"
    },
    {
      "inputs": [
        {
          "internalType": "uint256",
          "name": "",
          "type": "uint256"
        }
      ],
      "name": "s_randomWords",
      "outputs": [
        {
          "internalType": "uint256",
          "name": "",
          "type": "uint256"
        }
      ],
      "stateMutability": "view",
      "type": "function"
    },
    {
      "inputs": [],
      "name": "s_requestId",
      "outputs": [
        {
          "internalType": "uint256",
          "name": "",
          "type": "uint256"
        }
      ],
      "stateMutability": "view",
      "type": "function"
    },
    {
      "inputs": [],
      "name": "topUpSubscription",
      "outputs": [],
      "stateMutability": "nonpayable",
      "type": "function"
    },
    {
      "inputs": [
        {
          "internalType": "uint256",
          "name": "",
          "type": "uint256"
        }
      ],
      "name": "usersFlips",
      "outputs": [
        {
          "internalType": "address",
          "name": "user",
          "type": "address"
        },
        {
          "internalType": "uint256",
          "name": "timestamp",
          "type": "uint256"
        },
        {
          "internalType": "uint256",
          "name": "flipNumber",
          "type": "uint256"
        },
        {
          "internalType": "bool",
          "name": "win",
          "type": "bool"
        }
      ],
      "stateMutability": "view",
      "type": "function"
    },
    {
      "inputs": [],
      "name": "usersFlipsCounter",
      "outputs": [
        {
          "internalType": "uint256",
          "name": "",
          "type": "uint256"
        }
      ],
      "stateMutability": "view",
      "type": "function"
    },
    {
      "inputs": [],
      "name": "withdrawBnb",
      "outputs": [],
      "stateMutability": "nonpayable",
      "type": "function"
    },
    {
      "inputs": [],
      "name": "withdrawLink",
      "outputs": [],
      "stateMutability": "nonpayable",
      "type": "function"
    },
    {
      "inputs": [],
      "name": "wordsIndex",
      "outputs": [
        {
          "internalType": "uint256",
          "name": "",
          "type": "uint256"
        }
      ],
      "stateMutability": "view",
      "type": "function"
    },
    {
      "stateMutability": "payable",
      "type": "receive"
    }
  ],
  "bytecode": "0x60a0604052600280546001600160a01b0319908116736a2aad07396b36fe02a22b33cf443582f682c82f17909155600380549091167384b9b910527ad5c03a9ca831909e21e236ea7b061781557fd4bb89654db74673a187bd804519e65e3f71a52bc55f11da7601a13dcf5053146004556005805466020003000186a06001600160501b031990911617905560006009819055600c819055600d55600a600e55600f55348015620000af57600080fd5b506002546001600160a01b039081166080819052600080546001600160a01b0319908116909217905560035460018054831691909316179091556008805490911633179055620000fe6200012f565b6000600b55601080546001600160a01b031916739ac64cc6e4415144c455bd8e4837fea55603e5c317905562000289565b6008546001600160a01b031633146200014757600080fd5b60008054906101000a90046001600160a01b03166001600160a01b031663a21a23e46040518163ffffffff1660e01b81526004016020604051808303816000875af11580156200019b573d6000803e3d6000fd5b505050506040513d601f19601f82011682018060405250810190620001c1919062000257565b60018054600160a01b600160e01b031916600160a01b6001600160401b0393841681029190911791829055600054604051631cd0704360e21b81529190920490921660048301523060248301526001600160a01b031690637341c10c90604401600060405180830381600087803b1580156200023c57600080fd5b505af115801562000251573d6000803e3d6000fd5b50505050565b6000602082840312156200026a57600080fd5b81516001600160401b03811681146200028257600080fd5b9392505050565b608051611693620002ac60003960008181610721015261076301526116936000f3fe6080604052600436106101065760003560e01c80630758d9241461010f5780630c997597146101455780630d5de6df146101585780631da0603a1461017d5780631fe543e31461019257806321e71717146101b257806324e9edb0146101d657806350c5f975146101eb57806352253d581461020057806358ecb16b146102165780636c8ceed51461022b5780637aa51754146102415780638dc654a2146102565780639233ab781461026b578063a0f0a1e314610281578063a3ced7b9146102fc578063d627f36314610321578063e0c8628914610337578063e39782401461034c578063e89e106a1461036c578063f6eaffc814610382578063fb496fdb146103a257005b3661010d57005b005b34801561011b57600080fd5b5060105461012f906001600160a01b031681565b60405161013c91906110a3565b60405180910390f35b61010d6101533660046110c5565b6103b8565b34801561016457600080fd5b5061016d6105fe565b60405161013c9493929190611135565b34801561018957600080fd5b5061010d61069c565b34801561019e57600080fd5b5061010d6101ad3660046111ea565b610716565b3480156101be57600080fd5b506101c8600b5481565b60405190815260200161013c565b3480156101e257600080fd5b5061010d61079e565b3480156101f757600080fd5b506101c8610845565b34801561020c57600080fd5b506101c8600f5481565b34801561022257600080fd5b5061010d6108bc565b34801561023757600080fd5b506101c8600d5481565b34801561024d57600080fd5b5061010d610999565b34801561026257600080fd5b5061010d6109ba565b34801561027757600080fd5b506101c8600e5481565b34801561028d57600080fd5b506102d061029c36600461128b565b600a6020526000908152604090208054600182015460028301546003909301546001600160a01b0390921692909160ff1684565b604080516001600160a01b0390951685526020850193909352918301521515606082015260800161013c565b34801561030857600080fd5b50610311610abe565b604051901515815260200161013c565b34801561032d57600080fd5b506101c860095481565b34801561034357600080fd5b5061010d610b85565b34801561035857600080fd5b5060085461012f906001600160a01b031681565b34801561037857600080fd5b506101c860075481565b34801561038e57600080fd5b506101c861039d36600461128b565b610b9c565b3480156103ae57600080fd5b506101c8600c5481565b60006103c382610bbd565b9050803410156104075760405162461bcd60e51b815260206004820152600a602482015269131bddc8185b5bdd5b9d60b21b60448201526064015b60405180910390fd5b600060066009548154811061041e5761041e6112a4565b90600052602060002001549050600084156104465761043e6002836112d0565b159050610456565b6104516002836112d0565b151590505b6040805160808101825233815242602080830191825282840186815285151560608501908152600b546000908152600a909352948220845181546001600160a01b0319166001600160a01b039091161781559251600184015551600283015592516003909101805460ff19169115159190911790556009805491926104da836112fa565b9091555050600b80549060006104ef836112fa565b919050555060095460020361050b57600060095561050b6108db565b60006064600e543461051d9190611313565b6105279190611332565b905060006064600f543461053b9190611313565b6105459190611332565b905081600c60008282546105599190611346565b9250508190555080600d60008282546105729190611346565b90915550506703782dace9d90000600c541061059857610590610c85565b610598610e3b565b83156105f457600081836105ad346002611313565b6105b7919061135e565b6105c1919061135e565b604051909150339082156108fc029083906000818181858888f193505050501580156105f1573d6000803e3d6000fd5b50505b5050505050505050565b6000805460015460405163523e3b4b60e11b8152839283926060926001600160a01b039092169163a47c76969161064991600160a01b9091046001600160401b031690600401611375565b600060405180830381865afa158015610666573d6000803e3d6000fd5b505050506040513d6000823e601f3d908101601f1916820160405261068e91908101906113a5565b935093509350935090919293565b6008546001600160a01b031633146106b357600080fd5b6008546040516000916001600160a01b03169047908381818185875af1925050503d8060008114610700576040519150601f19603f3d011682016040523d82523d6000602084013e610705565b606091505b505090508061071357600080fd5b50565b336001600160a01b037f000000000000000000000000000000000000000000000000000000000000000016146107905760405163073e64fd60e21b81523360048201526001600160a01b037f00000000000000000000000000000000000000000000000000000000000000001660248201526044016103fe565b61079a8282610fa3565b5050565b6008546001600160a01b031633146107b557600080fd5b600054600154600854604051630d7ae1d360e41b8152600160a01b9092046001600160401b031660048301526001600160a01b0390811660248301529091169063d7ae1d3090604401600060405180830381600087803b15801561081857600080fd5b505af115801561082c573d6000803e3d6000fd5b505060018054600160a01b600160e01b03191690555050565b6001546040516370a0823160e01b81526000916001600160a01b0316906370a08231906108769030906004016110a3565b602060405180830381865afa158015610893573d6000803e3d6000fd5b505050506040513d601f19601f820116820180604052508101906108b7919061148a565b905090565b6008546001600160a01b031633146108d357600080fd5b6108db610e3b565b600054600480546001546005546040516305d3b1d360e41b815293840192909252600160a01b90046001600160401b03166024830152600160201b810461ffff16604483015263ffffffff8082166064840152600160301b9091041660848201526001600160a01b0390911690635d3b1d309060a4016020604051808303816000875af1158015610970573d6000803e3d6000fd5b505050506040513d601f19601f82011682018060405250810190610994919061148a565b600755565b6008546001600160a01b031633146109b057600080fd5b6109b8610e3b565b565b6008546001600160a01b031633146109d157600080fd5b6001546008546040516370a0823160e01b81526001600160a01b039283169263a9059cbb92169083906370a0823190610a0e9030906004016110a3565b602060405180830381865afa158015610a2b573d6000803e3d6000fd5b505050506040513d601f19601f82011682018060405250810190610a4f919061148a565b6040516001600160e01b031960e085901b1681526001600160a01b03909216600483015260248201526044016020604051808303816000875af1158015610a9a573d6000803e3d6000fd5b505050506040513d601f19601f8201168201806040525081019061071391906114a3565b6000805460015460405183926001600160a01b031691610af291600160a01b9091046001600160401b031690602401611375565b60408051601f198184030181529181526020820180516001600160e01b0316633a0ab5f560e21b17905251610b2791906114f7565b600060405180830381855afa9150503d8060008114610b62576040519150601f19603f3d011682016040523d82523d6000602084013e610b67565b606091505b5091505080806020019051810190610b7f91906114a3565b91505090565b6008546001600160a01b031633146108db57600080fd5b60068181548110610bac57600080fd5b600091825260209091200154905081565b600080828103610bd5575066b1a2bc2ec50000610c7f565b82600103610bec575067016345785d8a0000610c7f565b82600203610c0357506703782dace9d90000610c7f565b82600303610c1a57506706f05b59d3b20000610c7f565b82600403610c315750670de0b6b3a7640000610c7f565b82600503610c485750671bc16d674ec80000610c7f565b60405162461bcd60e51b815260206004820152600c60248201526b696e76616c6964206d6f646560a01b60448201526064016103fe565b92915050565b6000610d12601060009054906101000a90046001600160a01b03166001600160a01b031663ad5c46486040518163ffffffff1660e01b8152600401602060405180830381865afa158015610cdd573d6000803e3d6000fd5b505050506040513d601f19601f82011682018060405250810190610d019190611513565b6003546001600160a01b0316610fb6565b60105460405163d06ca61f60e01b81529192506000916001600160a01b039091169063d06ca61f90610d4a903490869060040161152e565b600060405180830381865afa158015610d67573d6000803e3d6000fd5b505050506040513d6000823e601f3d908101601f19168201604052610d8f919081019061154f565b600181518110610da157610da16112a4565b60209081029190910101516010549091506001600160a01b0316637ff36ab534838530610dd0426103e8611346565b6040518663ffffffff1660e01b8152600401610def94939291906115df565b60006040518083038185885af1158015610e0d573d6000803e3d6000fd5b50505050506040513d6000823e601f3d908101601f19168201604052610e36919081019061154f565b505050565b6001546040516370a0823160e01b81526000916001600160a01b0316906370a0823190610e6c9030906004016110a3565b602060405180830381865afa158015610e89573d6000803e3d6000fd5b505050506040513d601f19601f82011682018060405250810190610ead919061148a565b905060008111610ef35760405162461bcd60e51b81526020600482015260116024820152705a65726f206c696e6b2062616c616e636560781b60448201526064016103fe565b6001546000546040516001600160a01b0380841693634000aea09391909116918591610f3391600160a01b9091046001600160401b031690602001611375565b6040516020818303038152906040526040518463ffffffff1660e01b8152600401610f6093929190611614565b6020604051808303816000875af1158015610f7f573d6000803e3d6000fd5b505050506040513d601f19601f8201168201806040525081019061079a91906114a3565b8051610e36906006906020840190611043565b604080516002808252606080830184529260009291906020830190803683370190505090508381600081518110610fef57610fef6112a4565b60200260200101906001600160a01b031690816001600160a01b0316815250508281600181518110611023576110236112a4565b6001600160a01b0390921660209283029190910190910152905092915050565b82805482825590600052602060002090810192821561107e579160200282015b8281111561107e578251825591602001919060010190611063565b5061108a92915061108e565b5090565b5b8082111561108a576000815560010161108f565b6001600160a01b0391909116815260200190565b801515811461071357600080fd5b600080604083850312156110d857600080fd5b82356110e3816110b7565b946020939093013593505050565b600081518084526020808501945080840160005b8381101561112a5781516001600160a01b031687529582019590820190600101611105565b509495945050505050565b6001600160601b03851681526001600160401b03841660208201526001600160a01b0383166040820152608060608201819052600090611177908301846110f1565b9695505050505050565b634e487b7160e01b600052604160045260246000fd5b604051601f8201601f191681016001600160401b03811182821017156111bf576111bf611181565b604052919050565b60006001600160401b038211156111e0576111e0611181565b5060051b60200190565b600080604083850312156111fd57600080fd5b823591506020808401356001600160401b0381111561121b57600080fd5b8401601f8101861361122c57600080fd5b803561123f61123a826111c7565b611197565b81815260059190911b8201830190838101908883111561125e57600080fd5b928401925b8284101561127c57833582529284019290840190611263565b80955050505050509250929050565b60006020828403121561129d57600080fd5b5035919050565b634e487b7160e01b600052603260045260246000fd5b634e487b7160e01b600052601260045260246000fd5b6000826112df576112df6112ba565b500690565b634e487b7160e01b600052601160045260246000fd5b60006001820161130c5761130c6112e4565b5060010190565b600081600019048311821515161561132d5761132d6112e4565b500290565b600082611341576113416112ba565b500490565b60008219821115611359576113596112e4565b500190565b600082821015611370576113706112e4565b500390565b6001600160401b0391909116815260200190565b80516001600160a01b03811681146113a057600080fd5b919050565b600080600080608085870312156113bb57600080fd5b84516001600160601b03811681146113d257600080fd5b602086810151919550906001600160401b0380821682146113f257600080fd5b81955061140160408901611389565b9450606088015191508082111561141757600080fd5b508601601f8101881361142957600080fd5b805161143761123a826111c7565b81815260059190911b8201830190838101908a83111561145657600080fd5b928401925b8284101561147b5761146c84611389565b8252928401929084019061145b565b979a9699509497505050505050565b60006020828403121561149c57600080fd5b5051919050565b6000602082840312156114b557600080fd5b81516114c0816110b7565b9392505050565b60005b838110156114e25781810151838201526020016114ca565b838111156114f1576000848401525b50505050565b600082516115098184602087016114c7565b9190910192915050565b60006020828403121561152557600080fd5b6114c082611389565b82815260406020820152600061154760408301846110f1565b949350505050565b6000602080838503121561156257600080fd5b82516001600160401b0381111561157857600080fd5b8301601f8101851361158957600080fd5b805161159761123a826111c7565b81815260059190911b820183019083810190878311156115b657600080fd5b928401925b828410156115d4578351825292840192908401906115bb565b979650505050505050565b8481526080602082015260006115f860808301866110f1565b6001600160a01b03949094166040830152506060015292915050565b60018060a01b038416815282602082015260606040820152600082518060608401526116478160808501602087016114c7565b601f01601f19169190910160800194935050505056fea26469706673582212200be695971e3a114604ede06fa62ed0965dc4dc0da2e1cf5f648dd18480116fe364736f6c634300080f0033",
  "linkReferences": {},
  "deployedLinkReferences": {}
}