{
    "contractName": "CoinFlip",
    "abi": [
        {
            "inputs": [],
            "stateMutability": "nonpayable",
            "type": "constructor"
        },
        {
            "inputs": [
                {
                    "internalType": "address",
                    "name": "have",
                    "type": "address"
                },
                {
                    "internalType": "address",
                    "name": "want",
                    "type": "address"
                }
            ],
            "name": "OnlyCoordinatorCanFulfill",
            "type": "error"
        },
        {
            "stateMutability": "payable",
            "type": "fallback"
        },
        {
            "inputs": [
                {
                    "internalType": "address",
                    "name": "consumerAddress",
                    "type": "address"
                }
            ],
            "name": "addConsumer",
            "outputs": [],
            "stateMutability": "nonpayable",
            "type": "function"
        },
        {
            "inputs": [
                {
                    "internalType": "address",
                    "name": "receivingWallet",
                    "type": "address"
                }
            ],
            "name": "cancelSubscription",
            "outputs": [],
            "stateMutability": "nonpayable",
            "type": "function"
        },
        {
            "inputs": [
                {
                    "internalType": "bool",
                    "name": "bet",
                    "type": "bool"
                },
                {
                    "internalType": "uint256",
                    "name": "mode",
                    "type": "uint256"
                }
            ],
            "name": "flipCoin",
            "outputs": [],
            "stateMutability": "payable",
            "type": "function"
        },
        {
            "inputs": [],
            "name": "fundAndRequestRandomWords",
            "outputs": [],
            "stateMutability": "nonpayable",
            "type": "function"
        },
        {
            "inputs": [],
            "name": "fundVRF",
            "outputs": [],
            "stateMutability": "nonpayable",
            "type": "function"
        },
        {
            "inputs": [],
            "name": "getLastFlips",
            "outputs": [
                {
                    "components": [
                        {
                            "internalType": "address",
                            "name": "user",
                            "type": "address"
                        },
                        {
                            "internalType": "uint256",
                            "name": "timestamp",
                            "type": "uint256"
                        },
                        {
                            "internalType": "uint256",
                            "name": "flipNumber",
                            "type": "uint256"
                        },
                        {
                            "internalType": "bool",
                            "name": "flipResult",
                            "type": "bool"
                        }
                    ],
                    "internalType": "struct Flip[]",
                    "name": "",
                    "type": "tuple[]"
                }
            ],
            "stateMutability": "view",
            "type": "function"
        },
        {
            "inputs": [],
            "name": "getLinkBalance",
            "outputs": [
                {
                    "internalType": "uint256",
                    "name": "balance",
                    "type": "uint256"
                }
            ],
            "stateMutability": "view",
            "type": "function"
        },
        {
            "inputs": [],
            "name": "getSubscriptionDetails",
            "outputs": [
                {
                    "internalType": "uint96",
                    "name": "balance",
                    "type": "uint96"
                },
                {
                    "internalType": "uint64",
                    "name": "reqCount",
                    "type": "uint64"
                },
                {
                    "internalType": "address",
                    "name": "owner",
                    "type": "address"
                },
                {
                    "internalType": "address[]",
                    "name": "consumers",
                    "type": "address[]"
                }
            ],
            "stateMutability": "view",
            "type": "function"
        },
        {
            "inputs": [],
            "name": "pendingRequestExists",
            "outputs": [
                {
                    "internalType": "bool",
                    "name": "",
                    "type": "bool"
                }
            ],
            "stateMutability": "view",
            "type": "function"
        },
        {
            "inputs": [
                {
                    "internalType": "uint256",
                    "name": "requestId",
                    "type": "uint256"
                },
                {
                    "internalType": "uint256[]",
                    "name": "randomWords",
                    "type": "uint256[]"
                }
            ],
            "name": "rawFulfillRandomWords",
            "outputs": [],
            "stateMutability": "nonpayable",
            "type": "function"
        },
        {
            "inputs": [
                {
                    "internalType": "address",
                    "name": "consumerAddress",
                    "type": "address"
                }
            ],
            "name": "removeConsumer",
            "outputs": [],
            "stateMutability": "nonpayable",
            "type": "function"
        },
        {
            "inputs": [],
            "name": "requestRandomWords",
            "outputs": [],
            "stateMutability": "nonpayable",
            "type": "function"
        },
        {
            "inputs": [
                {
                    "internalType": "uint256",
                    "name": "",
                    "type": "uint256"
                }
            ],
            "name": "s_randomWords",
            "outputs": [
                {
                    "internalType": "uint256",
                    "name": "",
                    "type": "uint256"
                }
            ],
            "stateMutability": "view",
            "type": "function"
        },
        {
            "inputs": [],
            "name": "s_requestId",
            "outputs": [
                {
                    "internalType": "uint256",
                    "name": "",
                    "type": "uint256"
                }
            ],
            "stateMutability": "view",
            "type": "function"
        },
        {
            "inputs": [
                {
                    "internalType": "uint256",
                    "name": "amount",
                    "type": "uint256"
                }
            ],
            "name": "topUpSubscription",
            "outputs": [],
            "stateMutability": "nonpayable",
            "type": "function"
        },
        {
            "inputs": [
                {
                    "internalType": "uint256",
                    "name": "",
                    "type": "uint256"
                }
            ],
            "name": "usersFlips",
            "outputs": [
                {
                    "internalType": "address",
                    "name": "user",
                    "type": "address"
                },
                {
                    "internalType": "uint256",
                    "name": "timestamp",
                    "type": "uint256"
                },
                {
                    "internalType": "uint256",
                    "name": "flipNumber",
                    "type": "uint256"
                },
                {
                    "internalType": "bool",
                    "name": "flipResult",
                    "type": "bool"
                }
            ],
            "stateMutability": "view",
            "type": "function"
        },
        {
            "inputs": [
                {
                    "internalType": "uint256",
                    "name": "amount",
                    "type": "uint256"
                },
                {
                    "internalType": "address",
                    "name": "to",
                    "type": "address"
                }
            ],
            "name": "withdraw",
            "outputs": [],
            "stateMutability": "nonpayable",
            "type": "function"
        },
        {
            "stateMutability": "payable",
            "type": "receive"
        }
    ],
    "bytecode": "60a0604052600280546001600160a01b0319908116736a2aad07396b36fe02a22b33cf443582f682c82f17909155600380549091167384b9b910527ad5c03a9ca831909e21e236ea7b061790557fd4bb89654db74673a187bd804519e65e3f71a52bc55f11da7601a13dcf5053146004556005805466020003000186a06001600160501b03199091161790553480156200009857600080fd5b506002546001600160a01b039081166080819052600080546001600160a01b0319908116909217905560035460018054831691909316179091556008805490911633179055620000e7620000f2565b6000600a556200024c565b6008546001600160a01b031633146200010a57600080fd5b60008054906101000a90046001600160a01b03166001600160a01b031663a21a23e46040518163ffffffff1660e01b81526004016020604051808303816000875af11580156200015e573d6000803e3d6000fd5b505050506040513d601f19601f820116820180604052508101906200018491906200021a565b60018054600160a01b600160e01b031916600160a01b6001600160401b0393841681029190911791829055600054604051631cd0704360e21b81529190920490921660048301523060248301526001600160a01b031690637341c10c90604401600060405180830381600087803b158015620001ff57600080fd5b505af115801562000214573d6000803e3d6000fd5b50505050565b6000602082840312156200022d57600080fd5b81516001600160401b03811681146200024557600080fd5b9392505050565b60805161154d6200026f600039600081816107bb01526107fd015261154d6000f3fe6080604052600436106100f55760003560e01c806358ecb16b1161008f578063a3ced7b911610061578063a3ced7b9146102c7578063b97229b9146102ec578063e0c862891461030e578063e89e106a14610323578063f6eaffc81461033957005b806358ecb16b146101f757806386850e931461020c57806393d81d581461022c578063a0f0a1e31461024c57005b8063112940f9116100c8578063112940f91461017f5780631fe543e31461019f57806350c5f975146101bf57806353811c37146101e257005b8062f714ce146100fe5780630c9975971461011e5780630d5de6df146101315780630e27e3df1461015f57005b366100fc57005b005b34801561010a57600080fd5b506100fc61011936600461102d565b610359565b6100fc61012c36600461106b565b6103ec565b34801561013d57600080fd5b50610146610624565b6040516101569493929190611097565b60405180910390f35b34801561016b57600080fd5b506100fc61017a366004611116565b6106bb565b34801561018b57600080fd5b506100fc61019a366004611116565b61074e565b3480156101ab57600080fd5b506100fc6101ba3660046111a3565b6107b0565b3480156101cb57600080fd5b506101d4610838565b604051908152602001610156565b3480156101ee57600080fd5b506100fc6108aa565b34801561020357600080fd5b506100fc6109cb565b34801561021857600080fd5b506100fc610227366004611244565b610bad565b34801561023857600080fd5b506100fc610247366004611116565b610c6a565b34801561025857600080fd5b5061029b610267366004611244565b60096020526000908152604090208054600182015460028301546003909301546001600160a01b0390921692909160ff1684565b604080516001600160a01b03909516855260208501939093529183015215156060820152608001610156565b3480156102d357600080fd5b506102dc610d10565b6040519015158152602001610156565b3480156102f857600080fd5b50610301610dd2565b604051610156919061125d565b34801561031a57600080fd5b506100fc610ed9565b34801561032f57600080fd5b506101d460075481565b34801561034557600080fd5b506101d4610354366004611244565b610f6f565b6008546001600160a01b0316331461037057600080fd5b60015460405163a9059cbb60e01b81526001600160a01b038381166004830152602482018590529091169063a9059cbb906044016020604051808303816000875af11580156103c3573d6000803e3d6000fd5b505050506040513d601f19601f820116820180604052508101906103e791906112cc565b505050565b66b1a2bc2ec50000600082900361040b575066b1a2bc2ec500006104ba565b81600103610422575067016345785d8a00006104ba565b8160020361043957506703782dace9d900006104ba565b8160030361045057506706f05b59d3b200006104ba565b816004036104675750670de0b6b3a76400006104ba565b8160050361047e5750671bc16d674ec800006104ba565b60405162461bcd60e51b815260206004820152600c60248201526b696e76616c6964206d6f646560a01b60448201526064015b60405180910390fd5b803410156104f75760405162461bcd60e51b815260206004820152600a602482015269131bddc8185b5bdd5b9d60b21b60448201526064016104b1565b6000600660008154811061050d5761050d6112e9565b90600052602060002001549050600084156105355761052d6002836112ff565b159050610545565b6105406002836112ff565b151590505b604080516080810182523381524260208201529081018390528115156060820152600a80546001919060009061057c908490611337565b9091555050600a54600090815260096020908152604091829020835181546001600160a01b0319166001600160a01b0390911617815590830151600182015590820151600282015560608201516003909101805460ff1916911515919091179055811561061c57336108fc6105f2346002611350565b6040518115909202916000818181858888f1935050505015801561061a573d6000803e3d6000fd5b505b505050505050565b6000805460015460405163523e3b4b60e11b8152600160a01b9091046001600160401b03166004820152829182916060916001600160a01b03169063a47c769690602401600060405180830381865afa158015610685573d6000803e3d6000fd5b505050506040513d6000823e601f3d908101601f191682016040526106ad919081019061136f565b935093509350935090919293565b6008546001600160a01b031633146106d257600080fd5b600054600154604051639f87fad760e01b8152600160a01b9091046001600160401b031660048201526001600160a01b03838116602483015290911690639f87fad7906044015b600060405180830381600087803b15801561073357600080fd5b505af1158015610747573d6000803e3d6000fd5b5050505050565b6008546001600160a01b0316331461076557600080fd5b600054600154604051631cd0704360e21b8152600160a01b9091046001600160401b031660048201526001600160a01b03838116602483015290911690637341c10c90604401610719565b336001600160a01b037f0000000000000000000000000000000000000000000000000000000000000000161461082a5760405163073e64fd60e21b81523360048201526001600160a01b037f00000000000000000000000000000000000000000000000000000000000000001660248201526044016104b1565b6108348282610f90565b5050565b6001546040516370a0823160e01b81523060048201526000916001600160a01b0316906370a0823190602401602060405180830381865afa158015610881573d6000803e3d6000fd5b505050506040513d601f19601f820116820180604052508101906108a5919061145c565b905090565b6008546001600160a01b031633146108c157600080fd5b6001546000546040516370a0823160e01b81523060048201526001600160a01b0392831692634000aea092169083906370a0823190602401602060405180830381865afa158015610916573d6000803e3d6000fd5b505050506040513d601f19601f8201168201806040525081019061093a919061145c565b60015460408051600160a01b9092046001600160401b03166020830152016040516020818303038152906040526040518463ffffffff1660e01b815260040161098593929190611499565b6020604051808303816000875af11580156109a4573d6000803e3d6000fd5b505050506040513d601f19601f820116820180604052508101906109c891906112cc565b50565b6008546001600160a01b031633146109e257600080fd5b6001546000546040516370a0823160e01b81523060048201526001600160a01b0392831692634000aea092169083906370a0823190602401602060405180830381865afa158015610a37573d6000803e3d6000fd5b505050506040513d601f19601f82011682018060405250810190610a5b919061145c565b60015460408051600160a01b9092046001600160401b03166020830152016040516020818303038152906040526040518463ffffffff1660e01b8152600401610aa693929190611499565b6020604051808303816000875af1158015610ac5573d6000803e3d6000fd5b505050506040513d601f19601f82011682018060405250810190610ae991906112cc565b50600054600480546001546005546040516305d3b1d360e41b815293840192909252600160a01b90046001600160401b03166024830152640100000000810461ffff16604483015263ffffffff808216606484015266010000000000009091041660848201526001600160a01b0390911690635d3b1d309060a4015b6020604051808303816000875af1158015610b84573d6000803e3d6000fd5b505050506040513d601f19601f82011682018060405250810190610ba8919061145c565b600755565b6008546001600160a01b03163314610bc457600080fd5b60015460005460408051600160a01b84046001600160401b031660208201526001600160a01b0393841693634000aea09316918591016040516020818303038152906040526040518463ffffffff1660e01b8152600401610c2793929190611499565b6020604051808303816000875af1158015610c46573d6000803e3d6000fd5b505050506040513d601f19601f8201168201806040525081019061083491906112cc565b6008546001600160a01b03163314610c8157600080fd5b600054600154604051630d7ae1d360e41b8152600160a01b9091046001600160401b031660048201526001600160a01b0383811660248301529091169063d7ae1d3090604401600060405180830381600087803b158015610ce157600080fd5b505af1158015610cf5573d6000803e3d6000fd5b50506001805467ffffffffffffffff60a01b19169055505050565b60008054600154604051600160a01b9091046001600160401b0316602482015282916001600160a01b03169060440160408051601f198184030181529181526020820180516001600160e01b0316633a0ab5f560e21b17905251610d7491906114e2565b600060405180830381855afa9150503d8060008114610daf576040519150601f19603f3d011682016040523d82523d6000602084013e610db4565b606091505b5091505080806020019051810190610dcc91906112cc565b91505090565b60606000600a546001600160401b03811115610df057610df061113a565b604051908082528060200260200182016040528015610e4257816020015b604080516080810182526000808252602080830182905292820181905260608201528252600019909201910181610e0e5790505b50905060005b600a54811015610ed357600081815260096020908152604091829020825160808101845281546001600160a01b0316815260018201549281019290925260028101549282019290925260039091015460ff16151560608201528251839083908110610eb557610eb56112e9565b60200260200101819052508080610ecb906114fe565b915050610e48565b50919050565b6008546001600160a01b03163314610ef057600080fd5b600054600480546001546005546040516305d3b1d360e41b815293840192909252600160a01b90046001600160401b03166024830152640100000000810461ffff16604483015263ffffffff808216606484015266010000000000009091041660848201526001600160a01b0390911690635d3b1d309060a401610b65565b60068181548110610f7f57600080fd5b600091825260209091200154905081565b80516006805482825560008290526103e7927ff652222313e28459528d920b65115c16c04f3efc82aaedc97be59f3f377c0d3f91820191602086018215610ff3579160200282015b82811115610ff3578251825591602001919060010190610fd8565b50610fff929150611003565b5090565b5b80821115610fff5760008155600101611004565b6001600160a01b03811681146109c857600080fd5b6000806040838503121561104057600080fd5b82359150602083013561105281611018565b809150509250929050565b80151581146109c857600080fd5b6000806040838503121561107e57600080fd5b82356110898161105d565b946020939093013593505050565b6000608082016bffffffffffffffffffffffff8716835260206001600160401b0387168185015260018060a01b0380871660408601526080606086015282865180855260a087019150838801945060005b818110156111065785518416835294840194918401916001016110e8565b50909a9950505050505050505050565b60006020828403121561112857600080fd5b813561113381611018565b9392505050565b634e487b7160e01b600052604160045260246000fd5b604051601f8201601f191681016001600160401b03811182821017156111785761117861113a565b604052919050565b60006001600160401b038211156111995761119961113a565b5060051b60200190565b600080604083850312156111b657600080fd5b823591506020808401356001600160401b038111156111d457600080fd5b8401601f810186136111e557600080fd5b80356111f86111f382611180565b611150565b81815260059190911b8201830190838101908883111561121757600080fd5b928401925b828410156112355783358252928401929084019061121c565b80955050505050509250929050565b60006020828403121561125657600080fd5b5035919050565b602080825282518282018190526000919060409081850190868401855b828110156112bf57815180516001600160a01b03168552868101518786015285810151868601526060908101511515908501526080909301929085019060010161127a565b5091979650505050505050565b6000602082840312156112de57600080fd5b81516111338161105d565b634e487b7160e01b600052603260045260246000fd5b60008261131c57634e487b7160e01b600052601260045260246000fd5b500690565b634e487b7160e01b600052601160045260246000fd5b8082018082111561134a5761134a611321565b92915050565b600081600019048311821515161561136a5761136a611321565b500290565b6000806000806080858703121561138557600080fd5b84516bffffffffffffffffffffffff811681146113a157600080fd5b809450506020808601516001600160401b0380821682146113c157600080fd5b60408801519195506113d282611018565b6060880151919450808211156113e757600080fd5b508601601f810188136113f957600080fd5b80516114076111f382611180565b81815260059190911b8201830190838101908a83111561142657600080fd5b928401925b8284101561144d57835161143e81611018565b8252928401929084019061142b565b979a9699509497505050505050565b60006020828403121561146e57600080fd5b5051919050565b60005b83811015611490578181015183820152602001611478565b50506000910152565b60018060a01b038416815282602082015260606040820152600082518060608401526114cc816080850160208701611475565b601f01601f191691909101608001949350505050565b600082516114f4818460208701611475565b9190910192915050565b60006001820161151057611510611321565b506001019056fea2646970667358221220b6e5d3dcb6855c9cf6700ea859eb6d01d850b77c4024920d40d0511b2f076b1964736f6c63430008100033",
    "sourcePath": "/home/thyke/dev/coinFlip/coinFlip/contracts/CoinFlip.sol",
    "compiler": {
        "name": "solc",
        "version": "0.8.16+commit.07a7930e"
    },
    "functionHashes": {
        "addConsumer(address)": "112940f9",
        "cancelSubscription(address)": "93d81d58",
        "flipCoin(bool,uint256)": "0c997597",
        "fundAndRequestRandomWords()": "58ecb16b",
        "fundVRF()": "53811c37",
        "getLastFlips()": "b97229b9",
        "getLinkBalance()": "50c5f975",
        "getSubscriptionDetails()": "0d5de6df",
        "pendingRequestExists()": "a3ced7b9",
        "rawFulfillRandomWords(uint256,uint256[])": "1fe543e3",
        "removeConsumer(address)": "0e27e3df",
        "requestRandomWords()": "e0c86289",
        "s_randomWords(uint256)": "f6eaffc8",
        "s_requestId()": "e89e106a",
        "topUpSubscription(uint256)": "86850e93",
        "usersFlips(uint256)": "a0f0a1e3",
        "withdraw(uint256,address)": "00f714ce"
    },
    "gasEstimates": {
        "creation": {
            "codeDepositCost": "1090600",
            "executionCost": "infinite",
            "totalCost": "infinite"
        },
        "external": {
            "": "185",
            "addConsumer(address)": "infinite",
            "cancelSubscription(address)": "infinite",
            "flipCoin(bool,uint256)": "infinite",
            "fundAndRequestRandomWords()": "infinite",
            "fundVRF()": "infinite",
            "getLastFlips()": "infinite",
            "getLinkBalance()": "infinite",
            "getSubscriptionDetails()": "infinite",
            "pendingRequestExists()": "infinite",
            "rawFulfillRandomWords(uint256,uint256[])": "infinite",
            "removeConsumer(address)": "infinite",
            "requestRandomWords()": "infinite",
            "s_randomWords(uint256)": "4685",
            "s_requestId()": "2383",
            "topUpSubscription(uint256)": "infinite",
            "usersFlips(uint256)": "8983",
            "withdraw(uint256,address)": "infinite"
        },
        "internal": {
            "createNewSubscription()": "infinite",
            "fulfillRandomWords(uint256,uint256[] memory)": "infinite"
        }
    }
}