{
  "_format": "hh-sol-artifact-1",
  "contractName": "TykheLuckyOracle",
  "sourceName": "contracts/TykheLuckyOracle.sol",
  "abi": [
    {
      "inputs": [],
      "stateMutability": "nonpayable",
      "type": "constructor"
    },
    {
      "inputs": [
        {
          "internalType": "address",
          "name": "have",
          "type": "address"
        },
        {
          "internalType": "address",
          "name": "want",
          "type": "address"
        }
      ],
      "name": "OnlyCoordinatorCanFulfill",
      "type": "error"
    },
    {
      "stateMutability": "payable",
      "type": "fallback"
    },
    {
      "inputs": [
        {
          "internalType": "uint256",
          "name": "index",
          "type": "uint256"
        }
      ],
      "name": "askOracle",
      "outputs": [
        {
          "internalType": "uint256",
          "name": "",
          "type": "uint256"
        }
      ],
      "stateMutability": "view",
      "type": "function"
    },
    {
      "inputs": [],
      "name": "cancelSubscription",
      "outputs": [],
      "stateMutability": "nonpayable",
      "type": "function"
    },
    {
      "inputs": [],
      "name": "dexRouter",
      "outputs": [
        {
          "internalType": "contract IUniswapV2Router02",
          "name": "",
          "type": "address"
        }
      ],
      "stateMutability": "view",
      "type": "function"
    },
    {
      "inputs": [],
      "name": "fundAndRequestRandomWords",
      "outputs": [],
      "stateMutability": "nonpayable",
      "type": "function"
    },
    {
      "inputs": [],
      "name": "getLinkBalance",
      "outputs": [
        {
          "internalType": "uint256",
          "name": "balance",
          "type": "uint256"
        }
      ],
      "stateMutability": "view",
      "type": "function"
    },
    {
      "inputs": [],
      "name": "getSubscriptionDetails",
      "outputs": [
        {
          "internalType": "uint96",
          "name": "balance",
          "type": "uint96"
        },
        {
          "internalType": "uint64",
          "name": "reqCount",
          "type": "uint64"
        },
        {
          "internalType": "address",
          "name": "owner",
          "type": "address"
        },
        {
          "internalType": "address[]",
          "name": "consumers",
          "type": "address[]"
        }
      ],
      "stateMutability": "view",
      "type": "function"
    },
    {
      "inputs": [],
      "name": "pendingRequestExists",
      "outputs": [
        {
          "internalType": "bool",
          "name": "",
          "type": "bool"
        }
      ],
      "stateMutability": "view",
      "type": "function"
    },
    {
      "inputs": [
        {
          "internalType": "uint256",
          "name": "requestId",
          "type": "uint256"
        },
        {
          "internalType": "uint256[]",
          "name": "randomWords",
          "type": "uint256[]"
        }
      ],
      "name": "rawFulfillRandomWords",
      "outputs": [],
      "stateMutability": "nonpayable",
      "type": "function"
    },
    {
      "inputs": [],
      "name": "requestRandomWords",
      "outputs": [],
      "stateMutability": "nonpayable",
      "type": "function"
    },
    {
      "inputs": [],
      "name": "s_owner",
      "outputs": [
        {
          "internalType": "address",
          "name": "",
          "type": "address"
        }
      ],
      "stateMutability": "view",
      "type": "function"
    },
    {
      "inputs": [
        {
          "internalType": "uint256",
          "name": "",
          "type": "uint256"
        }
      ],
      "name": "s_randomWords",
      "outputs": [
        {
          "internalType": "uint256",
          "name": "",
          "type": "uint256"
        }
      ],
      "stateMutability": "view",
      "type": "function"
    },
    {
      "inputs": [],
      "name": "s_requestId",
      "outputs": [
        {
          "internalType": "uint256",
          "name": "",
          "type": "uint256"
        }
      ],
      "stateMutability": "view",
      "type": "function"
    },
    {
      "inputs": [],
      "name": "topUpSubscription",
      "outputs": [],
      "stateMutability": "nonpayable",
      "type": "function"
    },
    {
      "inputs": [],
      "name": "withdrawLink",
      "outputs": [],
      "stateMutability": "nonpayable",
      "type": "function"
    },
    {
      "inputs": [],
      "name": "wordsIndex",
      "outputs": [
        {
          "internalType": "uint256",
          "name": "",
          "type": "uint256"
        }
      ],
      "stateMutability": "view",
      "type": "function"
    },
    {
      "stateMutability": "payable",
      "type": "receive"
    }
  ],
  "bytecode": "0x60a0604052600280546001600160a01b0319908116736a2aad07396b36fe02a22b33cf443582f682c82f17909155600380549091167384b9b910527ad5c03a9ca831909e21e236ea7b061790557fd4bb89654db74673a187bd804519e65e3f71a52bc55f11da7601a13dcf5053146004556005805466020003000186a06001600160501b0319909116179055600060095534801561009c57600080fd5b506002546001600160a01b039081166080819052600a80546001600160a01b0319908116739ac64cc6e4415144c455bd8e4837fea55603e5c3179091556000805482169092179091556003546001805483169190931617909155600880549091163317905561010961010e565b610260565b6008546001600160a01b0316331461012557600080fd5b60008054906101000a90046001600160a01b03166001600160a01b031663a21a23e46040518163ffffffff1660e01b81526004016020604051808303816000875af1158015610178573d6000803e3d6000fd5b505050506040513d601f19601f8201168201806040525081019061019c9190610230565b60018054600160a01b600160e01b031916600160a01b6001600160401b0393841681029190911791829055600054604051631cd0704360e21b81529190920490921660048301523060248301526001600160a01b031690637341c10c90604401600060405180830381600087803b15801561021657600080fd5b505af115801561022a573d6000803e3d6000fd5b50505050565b60006020828403121561024257600080fd5b81516001600160401b038116811461025957600080fd5b9392505050565b608051610dbb6102826000396000818161032301526103650152610dbb6000f3fe6080604052600436106100b95760003560e01c80630758d924146100c25780630d5de6df146100f85780631fe543e31461011d57806324e9edb01461013d57806350c5f9751461015257806358ecb16b146101755780637aa517541461018a5780638dc654a21461019f578063a3ced7b9146101b4578063d627f363146101d9578063df892a70146101ef578063e0c862891461020f578063e397824014610224578063e89e106a14610244578063f6eaffc81461025a57005b366100c057005b005b3480156100ce57600080fd5b50600a546100e2906001600160a01b031681565b6040516100ef91906109ce565b60405180910390f35b34801561010457600080fd5b5061010d61027a565b6040516100ef94939291906109e2565b34801561012957600080fd5b506100c0610138366004610ac9565b610318565b34801561014957600080fd5b506100c06103a5565b34801561015e57600080fd5b5061016761044c565b6040519081526020016100ef565b34801561018157600080fd5b506100c06104c3565b34801561019657600080fd5b506100c06105a0565b3480156101ab57600080fd5b506100c06105c1565b3480156101c057600080fd5b506101c96106c8565b60405190151581526020016100ef565b3480156101e557600080fd5b5061016760095481565b3480156101fb57600080fd5b5061016761020a366004610b6a565b61078f565b34801561021b57600080fd5b506100c06107b6565b34801561023057600080fd5b506008546100e2906001600160a01b031681565b34801561025057600080fd5b5061016760075481565b34801561026657600080fd5b50610167610275366004610b6a565b6107cd565b6000805460015460405163523e3b4b60e11b8152839283926060926001600160a01b039092169163a47c7696916102c591600160a01b9091046001600160401b031690600401610b83565b600060405180830381865afa1580156102e2573d6000803e3d6000fd5b505050506040513d6000823e601f3d908101601f1916820160405261030a9190810190610bb3565b935093509350935090919293565b336001600160a01b037f000000000000000000000000000000000000000000000000000000000000000016146103975760405163073e64fd60e21b81523360048201526001600160a01b037f00000000000000000000000000000000000000000000000000000000000000001660248201526044015b60405180910390fd5b6103a182826107ee565b5050565b6008546001600160a01b031633146103bc57600080fd5b600054600154600854604051630d7ae1d360e41b8152600160a01b9092046001600160401b031660048301526001600160a01b0390811660248301529091169063d7ae1d3090604401600060405180830381600087803b15801561041f57600080fd5b505af1158015610433573d6000803e3d6000fd5b505060018054600160a01b600160e01b03191690555050565b6001546040516370a0823160e01b81526000916001600160a01b0316906370a082319061047d9030906004016109ce565b602060405180830381865afa15801561049a573d6000803e3d6000fd5b505050506040513d601f19601f820116820180604052508101906104be9190610c98565b905090565b6008546001600160a01b031633146104da57600080fd5b6104e2610806565b600054600480546001546005546040516305d3b1d360e41b815293840192909252600160a01b90046001600160401b03166024830152600160201b810461ffff16604483015263ffffffff8082166064840152600160301b9091041660848201526001600160a01b0390911690635d3b1d309060a4016020604051808303816000875af1158015610577573d6000803e3d6000fd5b505050506040513d601f19601f8201168201806040525081019061059b9190610c98565b600755565b6008546001600160a01b031633146105b757600080fd5b6105bf610806565b565b6008546001600160a01b031633146105d857600080fd5b6001546008546040516370a0823160e01b81526001600160a01b039283169263a9059cbb92169083906370a08231906106159030906004016109ce565b602060405180830381865afa158015610632573d6000803e3d6000fd5b505050506040513d601f19601f820116820180604052508101906106569190610c98565b6040516001600160e01b031960e085901b1681526001600160a01b03909216600483015260248201526044016020604051808303816000875af11580156106a1573d6000803e3d6000fd5b505050506040513d601f19601f820116820180604052508101906106c59190610cb1565b50565b6000805460015460405183926001600160a01b0316916106fc91600160a01b9091046001600160401b031690602401610b83565b60408051601f198184030181529181526020820180516001600160e01b0316633a0ab5f560e21b179052516107319190610d0a565b600060405180830381855afa9150503d806000811461076c576040519150601f19603f3d011682016040523d82523d6000602084013e610771565b606091505b50915050808060200190518101906107899190610cb1565b91505090565b6000600682815481106107a4576107a4610d26565b90600052602060002001549050919050565b6008546001600160a01b031633146104e257600080fd5b600681815481106107dd57600080fd5b600091825260209091200154905081565b805161080190600690602084019061096e565b505050565b6001546040516370a0823160e01b81526000916001600160a01b0316906370a08231906108379030906004016109ce565b602060405180830381865afa158015610854573d6000803e3d6000fd5b505050506040513d601f19601f820116820180604052508101906108789190610c98565b9050600081116108be5760405162461bcd60e51b81526020600482015260116024820152705a65726f206c696e6b2062616c616e636560781b604482015260640161038e565b6001546000546040516001600160a01b0380841693634000aea093919091169185916108fe91600160a01b9091046001600160401b031690602001610b83565b6040516020818303038152906040526040518463ffffffff1660e01b815260040161092b93929190610d3c565b6020604051808303816000875af115801561094a573d6000803e3d6000fd5b505050506040513d601f19601f820116820180604052508101906103a19190610cb1565b8280548282559060005260206000209081019282156109a9579160200282015b828111156109a957825182559160200191906001019061098e565b506109b59291506109b9565b5090565b5b808211156109b557600081556001016109ba565b6001600160a01b0391909116815260200190565b6001600160601b03851681526001600160401b0384166020808301919091526001600160a01b038481166040840152608060608401819052845190840181905260009285810192909160a0860190855b81811015610a50578551841683529484019491840191600101610a32565b50909a9950505050505050505050565b634e487b7160e01b600052604160045260246000fd5b604051601f8201601f191681016001600160401b0381118282101715610a9e57610a9e610a60565b604052919050565b60006001600160401b03821115610abf57610abf610a60565b5060051b60200190565b60008060408385031215610adc57600080fd5b823591506020808401356001600160401b03811115610afa57600080fd5b8401601f81018613610b0b57600080fd5b8035610b1e610b1982610aa6565b610a76565b81815260059190911b82018301908381019088831115610b3d57600080fd5b928401925b82841015610b5b57833582529284019290840190610b42565b80955050505050509250929050565b600060208284031215610b7c57600080fd5b5035919050565b6001600160401b0391909116815260200190565b80516001600160a01b0381168114610bae57600080fd5b919050565b60008060008060808587031215610bc957600080fd5b84516001600160601b0381168114610be057600080fd5b602086810151919550906001600160401b038082168214610c0057600080fd5b819550610c0f60408901610b97565b94506060880151915080821115610c2557600080fd5b508601601f81018813610c3757600080fd5b8051610c45610b1982610aa6565b81815260059190911b8201830190838101908a831115610c6457600080fd5b928401925b82841015610c8957610c7a84610b97565b82529284019290840190610c69565b979a9699509497505050505050565b600060208284031215610caa57600080fd5b5051919050565b600060208284031215610cc357600080fd5b81518015158114610cd357600080fd5b9392505050565b60005b83811015610cf5578181015183820152602001610cdd565b83811115610d04576000848401525b50505050565b60008251610d1c818460208701610cda565b9190910192915050565b634e487b7160e01b600052603260045260246000fd5b60018060a01b03841681528260208201526060604082015260008251806060840152610d6f816080850160208701610cda565b601f01601f19169190910160800194935050505056fea26469706673582212201c7ef3bcfe3d185cdcb5673888adb0c2093361433d7225062ed2ccff7fda9fb764736f6c634300080f0033",
  "linkReferences": {},
  "deployedLinkReferences": {}
}