{
  "_format": "hh-sol-artifact-1",
  "contractName": "VRFv2Consumer",
  "sourceName": "contracts/VRFv2Consumer.sol",
  "abi": [
    {
      "inputs": [],
      "stateMutability": "nonpayable",
      "type": "constructor"
    },
    {
      "inputs": [
        {
          "internalType": "address",
          "name": "have",
          "type": "address"
        },
        {
          "internalType": "address",
          "name": "want",
          "type": "address"
        }
      ],
      "name": "OnlyCoordinatorCanFulfill",
      "type": "error"
    },
    {
      "inputs": [
        {
          "internalType": "address",
          "name": "consumerAddress",
          "type": "address"
        }
      ],
      "name": "addConsumer",
      "outputs": [],
      "stateMutability": "nonpayable",
      "type": "function"
    },
    {
      "inputs": [
        {
          "internalType": "address",
          "name": "receivingWallet",
          "type": "address"
        }
      ],
      "name": "cancelSubscription",
      "outputs": [],
      "stateMutability": "nonpayable",
      "type": "function"
    },
    {
      "inputs": [
        {
          "internalType": "uint256",
          "name": "amount",
          "type": "uint256"
        }
      ],
      "name": "fundAndRequestRandomWords",
      "outputs": [],
      "stateMutability": "nonpayable",
      "type": "function"
    },
    {
      "inputs": [
        {
          "internalType": "uint256",
          "name": "requestId",
          "type": "uint256"
        },
        {
          "internalType": "uint256[]",
          "name": "randomWords",
          "type": "uint256[]"
        }
      ],
      "name": "rawFulfillRandomWords",
      "outputs": [],
      "stateMutability": "nonpayable",
      "type": "function"
    },
    {
      "inputs": [
        {
          "internalType": "address",
          "name": "consumerAddress",
          "type": "address"
        }
      ],
      "name": "removeConsumer",
      "outputs": [],
      "stateMutability": "nonpayable",
      "type": "function"
    },
    {
      "inputs": [],
      "name": "requestRandomWords",
      "outputs": [],
      "stateMutability": "nonpayable",
      "type": "function"
    },
    {
      "inputs": [
        {
          "internalType": "uint256",
          "name": "",
          "type": "uint256"
        }
      ],
      "name": "s_randomWords",
      "outputs": [
        {
          "internalType": "uint256",
          "name": "",
          "type": "uint256"
        }
      ],
      "stateMutability": "view",
      "type": "function"
    },
    {
      "inputs": [],
      "name": "s_requestId",
      "outputs": [
        {
          "internalType": "uint256",
          "name": "",
          "type": "uint256"
        }
      ],
      "stateMutability": "view",
      "type": "function"
    },
    {
      "inputs": [
        {
          "internalType": "uint256",
          "name": "amount",
          "type": "uint256"
        }
      ],
      "name": "topUpSubscription",
      "outputs": [],
      "stateMutability": "nonpayable",
      "type": "function"
    },
    {
      "inputs": [
        {
          "internalType": "uint256",
          "name": "amount",
          "type": "uint256"
        },
        {
          "internalType": "address",
          "name": "to",
          "type": "address"
        }
      ],
      "name": "withdraw",
      "outputs": [],
      "stateMutability": "nonpayable",
      "type": "function"
    }
  ],
  "bytecode": "0x60a0604052600280546001600160a01b0319908116736a2aad07396b36fe02a22b33cf443582f682c82f17909155600380549091167384b9b910527ad5c03a9ca831909e21e236ea7b061790557fd4bb89654db74673a187bd804519e65e3f71a52bc55f11da7601a13dcf5053146004556005805466020003000186a06001600160501b031990911617905534801561009757600080fd5b506002546001600160a01b039081166080819052600080546001600160a01b03199081169092179055600354600180548316919093161790915560088054909116331790556100e46100e9565b61023b565b6008546001600160a01b0316331461010057600080fd5b60008054906101000a90046001600160a01b03166001600160a01b031663a21a23e46040518163ffffffff1660e01b81526004016020604051808303816000875af1158015610153573d6000803e3d6000fd5b505050506040513d601f19601f82011682018060405250810190610177919061020b565b60018054600160a01b600160e01b031916600160a01b6001600160401b0393841681029190911791829055600054604051631cd0704360e21b81529190920490921660048301523060248301526001600160a01b031690637341c10c90604401600060405180830381600087803b1580156101f157600080fd5b505af1158015610205573d6000803e3d6000fd5b50505050565b60006020828403121561021d57600080fd5b81516001600160401b038116811461023457600080fd5b9392505050565b608051610a5b61025d600039600081816102da015261031c0152610a5b6000f3fe608060405234801561001057600080fd5b506004361061008d5760003560e01c8062f714ce146100925780630e27e3df146100a7578063112940f9146100ba5780631fe543e3146100cd5780636fd700bb146100e057806386850e93146100f357806393d81d5814610106578063e0c8628914610119578063e89e106a14610121578063f6eaffc81461013c575b600080fd5b6100a56100a03660046107c9565b61014f565b005b6100a56100b53660046107f5565b6101e2565b6100a56100c83660046107f5565b610273565b6100a56100db36600461082d565b6102cf565b6100a56100ee3660046108f6565b61035b565b6100a56101013660046108f6565b6104d3565b6100a56101143660046107f5565b61059a565b6100a561063e565b61012a60075481565b60405190815260200160405180910390f35b61012a61014a3660046108f6565b610704565b6008546001600160a01b0316331461016657600080fd5b60015460405163a9059cbb60e01b81526001600160a01b038381166004830152602482018590529091169063a9059cbb906044016020604051808303816000875af11580156101b9573d6000803e3d6000fd5b505050506040513d601f19601f820116820180604052508101906101dd919061090f565b505050565b6008546001600160a01b031633146101f957600080fd5b600054600154604051639f87fad760e01b81526001600160a01b0390921691639f87fad79161023e91600160a01b9091046001600160401b0316908590600401610931565b600060405180830381600087803b15801561025857600080fd5b505af115801561026c573d6000803e3d6000fd5b5050505050565b6008546001600160a01b0316331461028a57600080fd5b600054600154604051631cd0704360e21b81526001600160a01b0390921691637341c10c9161023e91600160a01b9091046001600160401b0316908590600401610931565b336001600160a01b037f0000000000000000000000000000000000000000000000000000000000000000161461034d5760405163073e64fd60e21b81523360048201526001600160a01b037f000000000000000000000000000000000000000000000000000000000000000016602482015260440160405180910390fd5b6103578282610725565b5050565b6008546001600160a01b0316331461037257600080fd5b6001546000546040516001600160a01b0380841693634000aea093919091169185916103b291600160a01b9091046001600160401b031690602001610953565b6040516020818303038152906040526040518463ffffffff1660e01b81526004016103df93929190610967565b6020604051808303816000875af11580156103fe573d6000803e3d6000fd5b505050506040513d601f19601f82011682018060405250810190610422919061090f565b50600054600480546001546005546040516305d3b1d360e41b81526001600160a01b0390951694635d3b1d309461048a9493600160a01b90046001600160401b031692600160201b810461ffff169263ffffffff80831693600160301b9093041691016109d3565b6020604051808303816000875af11580156104a9573d6000803e3d6000fd5b505050506040513d601f19601f820116820180604052508101906104cd9190610a0c565b60075550565b6008546001600160a01b031633146104ea57600080fd5b6001546000546040516001600160a01b0380841693634000aea0939190911691859161052a91600160a01b9091046001600160401b031690602001610953565b6040516020818303038152906040526040518463ffffffff1660e01b815260040161055793929190610967565b6020604051808303816000875af1158015610576573d6000803e3d6000fd5b505050506040513d601f19601f82011682018060405250810190610357919061090f565b6008546001600160a01b031633146105b157600080fd5b600054600154604051630d7ae1d360e41b81526001600160a01b039092169163d7ae1d30916105f691600160a01b9091046001600160401b0316908590600401610931565b600060405180830381600087803b15801561061057600080fd5b505af1158015610624573d6000803e3d6000fd5b505060018054600160a01b600160e01b0319169055505050565b6008546001600160a01b0316331461065557600080fd5b600054600480546001546005546040516305d3b1d360e41b81526001600160a01b0390951694635d3b1d30946106bc9493600160a01b90046001600160401b031692600160201b810461ffff169263ffffffff80831693600160301b9093041691016109d3565b6020604051808303816000875af11580156106db573d6000803e3d6000fd5b505050506040513d601f19601f820116820180604052508101906106ff9190610a0c565b600755565b6006818154811061071457600080fd5b600091825260209091200154905081565b80516006805482825560008290526101dd927ff652222313e28459528d920b65115c16c04f3efc82aaedc97be59f3f377c0d3f91820191602086018215610788579160200282015b8281111561078857825182559160200191906001019061076d565b50610794929150610798565b5090565b5b808211156107945760008155600101610799565b80356001600160a01b03811681146107c457600080fd5b919050565b600080604083850312156107dc57600080fd5b823591506107ec602084016107ad565b90509250929050565b60006020828403121561080757600080fd5b610810826107ad565b9392505050565b634e487b7160e01b600052604160045260246000fd5b6000806040838503121561084057600080fd5b823591506020808401356001600160401b038082111561085f57600080fd5b818601915086601f83011261087357600080fd5b81358181111561088557610885610817565b8060051b604051601f19603f830116810181811085821117156108aa576108aa610817565b6040529182528482019250838101850191898311156108c857600080fd5b938501935b828510156108e6578435845293850193928501926108cd565b8096505050505050509250929050565b60006020828403121561090857600080fd5b5035919050565b60006020828403121561092157600080fd5b8151801515811461081057600080fd5b6001600160401b039290921682526001600160a01b0316602082015260400190565b6001600160401b0391909116815260200190565b60018060a01b038416815260006020848184015260606040840152835180606085015260005b818110156109a95785810183015185820160800152820161098d565b818111156109bb576000608083870101525b50601f01601f19169290920160800195945050505050565b9485526001600160401b0393909316602085015261ffff91909116604084015263ffffffff908116606084015216608082015260a00190565b600060208284031215610a1e57600080fd5b505191905056fea26469706673582212206a31e74dfe22f8b5d60cc0dee80b9d4f4fa103b7a4d3fde41749bf393d1521b964736f6c634300080f0033",
  "linkReferences": {},
  "deployedLinkReferences": {}
}